{
  "address": "0xdcaBA1e4e9DD68D8a12694caEe2A72489C14A40b",
  "abi": [
    {
      "anonymous": false,
      "inputs": [
        {
          "indexed": true,
          "internalType": "address",
          "name": "owner",
          "type": "address"
        },
        {
          "indexed": true,
          "internalType": "address",
          "name": "spender",
          "type": "address"
        },
        {
          "indexed": false,
          "internalType": "uint256",
          "name": "value",
          "type": "uint256"
        }
      ],
      "name": "Approval",
      "type": "event"
    },
    {
      "anonymous": false,
      "inputs": [
        {
          "indexed": false,
          "internalType": "address",
          "name": "user",
          "type": "address"
        },
        {
          "indexed": false,
          "internalType": "string",
          "name": "number",
          "type": "string"
        },
        {
          "indexed": false,
          "internalType": "uint256",
          "name": "time",
          "type": "uint256"
        }
      ],
      "name": "ClaimMint",
      "type": "event"
    },
    {
      "anonymous": false,
      "inputs": [
        {
          "indexed": false,
          "internalType": "address",
          "name": "user",
          "type": "address"
        },
        {
          "indexed": false,
          "internalType": "string",
          "name": "number",
          "type": "string"
        },
        {
          "indexed": false,
          "internalType": "uint256",
          "name": "time",
          "type": "uint256"
        }
      ],
      "name": "ClaimMintReward",
      "type": "event"
    },
    {
      "anonymous": false,
      "inputs": [
        {
          "indexed": false,
          "internalType": "string",
          "name": "number",
          "type": "string"
        },
        {
          "indexed": false,
          "internalType": "uint256",
          "name": "heat",
          "type": "uint256"
        },
        {
          "indexed": false,
          "internalType": "uint256",
          "name": "len",
          "type": "uint256"
        }
      ],
      "name": "DegreeHeats",
      "type": "event"
    },
    {
      "anonymous": false,
      "inputs": [
        {
          "indexed": false,
          "internalType": "uint8",
          "name": "version",
          "type": "uint8"
        }
      ],
      "name": "Initialized",
      "type": "event"
    },
    {
      "anonymous": false,
      "inputs": [
        {
          "indexed": true,
          "internalType": "address",
          "name": "user",
          "type": "address"
        },
        {
          "indexed": false,
          "internalType": "uint256",
          "name": "amount",
          "type": "uint256"
        },
        {
          "indexed": false,
          "internalType": "uint256",
          "name": "term",
          "type": "uint256"
        }
      ],
      "name": "Staked",
      "type": "event"
    },
    {
      "anonymous": false,
      "inputs": [
        {
          "indexed": true,
          "internalType": "address",
          "name": "from",
          "type": "address"
        },
        {
          "indexed": true,
          "internalType": "address",
          "name": "to",
          "type": "address"
        },
        {
          "indexed": false,
          "internalType": "uint256",
          "name": "value",
          "type": "uint256"
        }
      ],
      "name": "Transfer",
      "type": "event"
    },
    {
      "anonymous": false,
      "inputs": [
        {
          "indexed": false,
          "internalType": "address",
          "name": "user",
          "type": "address"
        }
      ],
      "name": "UserReceive",
      "type": "event"
    },
    {
      "anonymous": false,
      "inputs": [
        {
          "indexed": false,
          "internalType": "string",
          "name": "number",
          "type": "string"
        },
        {
          "indexed": false,
          "internalType": "uint256",
          "name": "amount",
          "type": "uint256"
        }
      ],
      "name": "UserUnWithDrawEvent",
      "type": "event"
    },
    {
      "anonymous": false,
      "inputs": [
        {
          "indexed": false,
          "internalType": "string",
          "name": "number",
          "type": "string"
        },
        {
          "indexed": false,
          "internalType": "uint256",
          "name": "amount",
          "type": "uint256"
        }
      ],
      "name": "UserWithDrawEvent",
      "type": "event"
    },
    {
      "anonymous": false,
      "inputs": [
        {
          "indexed": true,
          "internalType": "address",
          "name": "user",
          "type": "address"
        },
        {
          "indexed": false,
          "internalType": "uint256",
          "name": "amount",
          "type": "uint256"
        },
        {
          "indexed": false,
          "internalType": "uint256",
          "name": "reward",
          "type": "uint256"
        }
      ],
      "name": "Withdrawn",
      "type": "event"
    },
    {
      "inputs": [],
      "name": "FoundationAddr",
      "outputs": [
        {
          "internalType": "address",
          "name": "",
          "type": "address"
        }
      ],
      "stateMutability": "view",
      "type": "function"
    },
    {
      "inputs": [
        {
          "internalType": "address",
          "name": "user",
          "type": "address"
        },
        {
          "internalType": "uint256",
          "name": "amount",
          "type": "uint256"
        }
      ],
      "name": "MintGNP",
      "outputs": [],
      "stateMutability": "nonpayable",
      "type": "function"
    },
    {
      "inputs": [],
      "name": "Receive",
      "outputs": [],
      "stateMutability": "nonpayable",
      "type": "function"
    },
    {
      "inputs": [],
      "name": "SECONDS_IN_DAY",
      "outputs": [
        {
          "internalType": "uint256",
          "name": "",
          "type": "uint256"
        }
      ],
      "stateMutability": "view",
      "type": "function"
    },
    {
      "inputs": [],
      "name": "SetDayTime",
      "outputs": [],
      "stateMutability": "nonpayable",
      "type": "function"
    },
    {
      "inputs": [
        {
          "internalType": "address[]",
          "name": "_users",
          "type": "address[]"
        },
        {
          "internalType": "uint256[]",
          "name": "_withdrawAmounts",
          "type": "uint256[]"
        },
        {
          "internalType": "uint256",
          "name": "_totalUnwithdrawAmounts",
          "type": "uint256"
        },
        {
          "internalType": "uint8[]",
          "name": "vs",
          "type": "uint8[]"
        },
        {
          "internalType": "bytes32[]",
          "name": "rs",
          "type": "bytes32[]"
        },
        {
          "internalType": "bytes32[]",
          "name": "ss",
          "type": "bytes32[]"
        }
      ],
      "name": "SetUserReward",
      "outputs": [],
      "stateMutability": "nonpayable",
      "type": "function"
    },
    {
      "inputs": [],
      "name": "activeMinters",
      "outputs": [
        {
          "internalType": "uint256",
          "name": "",
          "type": "uint256"
        }
      ],
      "stateMutability": "view",
      "type": "function"
    },
    {
      "inputs": [],
      "name": "activeNumbers",
      "outputs": [
        {
          "internalType": "uint256",
          "name": "",
          "type": "uint256"
        }
      ],
      "stateMutability": "view",
      "type": "function"
    },
    {
      "inputs": [],
      "name": "activeStakes",
      "outputs": [
        {
          "internalType": "uint256",
          "name": "",
          "type": "uint256"
        }
      ],
      "stateMutability": "view",
      "type": "function"
    },
    {
      "inputs": [],
      "name": "addSpendNonce",
      "outputs": [],
      "stateMutability": "nonpayable",
      "type": "function"
    },
    {
      "inputs": [
        {
          "internalType": "address",
          "name": "owner",
          "type": "address"
        },
        {
          "internalType": "address",
          "name": "spender",
          "type": "address"
        }
      ],
      "name": "allowance",
      "outputs": [
        {
          "internalType": "uint256",
          "name": "",
          "type": "uint256"
        }
      ],
      "stateMutability": "view",
      "type": "function"
    },
    {
      "inputs": [
        {
          "internalType": "address",
          "name": "spender",
          "type": "address"
        },
        {
          "internalType": "uint256",
          "name": "amount",
          "type": "uint256"
        }
      ],
      "name": "approve",
      "outputs": [
        {
          "internalType": "bool",
          "name": "",
          "type": "bool"
        }
      ],
      "stateMutability": "nonpayable",
      "type": "function"
    },
    {
      "inputs": [],
      "name": "apy",
      "outputs": [
        {
          "internalType": "uint256",
          "name": "",
          "type": "uint256"
        }
      ],
      "stateMutability": "view",
      "type": "function"
    },
    {
      "inputs": [
        {
          "internalType": "address",
          "name": "account",
          "type": "address"
        }
      ],
      "name": "balanceOf",
      "outputs": [
        {
          "internalType": "uint256",
          "name": "",
          "type": "uint256"
        }
      ],
      "stateMutability": "view",
      "type": "function"
    },
    {
      "inputs": [
        {
          "internalType": "string",
          "name": "_number",
          "type": "string"
        }
      ],
      "name": "claimMint",
      "outputs": [],
      "stateMutability": "nonpayable",
      "type": "function"
    },
    {
      "inputs": [],
      "name": "claimMints",
      "outputs": [
        {
          "internalType": "uint256",
          "name": "",
          "type": "uint256"
        }
      ],
      "stateMutability": "view",
      "type": "function"
    },
    {
      "inputs": [
        {
          "internalType": "uint256",
          "name": "",
          "type": "uint256"
        }
      ],
      "name": "dayClaimed",
      "outputs": [
        {
          "internalType": "bool",
          "name": "",
          "type": "bool"
        }
      ],
      "stateMutability": "view",
      "type": "function"
    },
    {
      "inputs": [
        {
          "internalType": "uint256",
          "name": "",
          "type": "uint256"
        }
      ],
      "name": "dayClaims",
      "outputs": [
        {
          "internalType": "uint256",
          "name": "",
          "type": "uint256"
        }
      ],
      "stateMutability": "view",
      "type": "function"
    },
    {
      "inputs": [
        {
          "internalType": "uint256",
          "name": "",
          "type": "uint256"
        }
      ],
      "name": "dayReceived",
      "outputs": [
        {
          "internalType": "uint256",
          "name": "",
          "type": "uint256"
        }
      ],
      "stateMutability": "view",
      "type": "function"
    },
    {
      "inputs": [
        {
          "internalType": "address",
          "name": "",
          "type": "address"
        },
        {
          "internalType": "uint256",
          "name": "",
          "type": "uint256"
        }
      ],
      "name": "dayReceivedAmount",
      "outputs": [
        {
          "internalType": "bool",
          "name": "",
          "type": "bool"
        }
      ],
      "stateMutability": "view",
      "type": "function"
    },
    {
      "inputs": [
        {
          "internalType": "uint256",
          "name": "",
          "type": "uint256"
        }
      ],
      "name": "dayStaked",
      "outputs": [
        {
          "internalType": "uint256",
          "name": "",
          "type": "uint256"
        }
      ],
      "stateMutability": "view",
      "type": "function"
    },
    {
      "inputs": [],
      "name": "daySupply",
      "outputs": [
        {
          "internalType": "uint256",
          "name": "",
          "type": "uint256"
        }
      ],
      "stateMutability": "view",
      "type": "function"
    },
    {
      "inputs": [
        {
          "internalType": "uint256",
          "name": "",
          "type": "uint256"
        }
      ],
      "name": "dayUnStaked",
      "outputs": [
        {
          "internalType": "uint256",
          "name": "",
          "type": "uint256"
        }
      ],
      "stateMutability": "view",
      "type": "function"
    },
    {
      "inputs": [],
      "name": "decimals",
      "outputs": [
        {
          "internalType": "uint8",
          "name": "",
          "type": "uint8"
        }
      ],
      "stateMutability": "view",
      "type": "function"
    },
    {
      "inputs": [
        {
          "internalType": "address",
          "name": "spender",
          "type": "address"
        },
        {
          "internalType": "uint256",
          "name": "subtractedValue",
          "type": "uint256"
        }
      ],
      "name": "decreaseAllowance",
      "outputs": [
        {
          "internalType": "bool",
          "name": "",
          "type": "bool"
        }
      ],
      "stateMutability": "nonpayable",
      "type": "function"
    },
    {
      "inputs": [
        {
          "internalType": "string",
          "name": "",
          "type": "string"
        }
      ],
      "name": "degreeHeats",
      "outputs": [
        {
          "internalType": "uint256",
          "name": "",
          "type": "uint256"
        }
      ],
      "stateMutability": "view",
      "type": "function"
    },
    {
      "inputs": [],
      "name": "destructions",
      "outputs": [
        {
          "internalType": "uint256",
          "name": "",
          "type": "uint256"
        }
      ],
      "stateMutability": "view",
      "type": "function"
    },
    {
      "inputs": [],
      "name": "genesisTs",
      "outputs": [
        {
          "internalType": "uint256",
          "name": "",
          "type": "uint256"
        }
      ],
      "stateMutability": "view",
      "type": "function"
    },
    {
      "inputs": [
        {
          "internalType": "address",
          "name": "_user",
          "type": "address"
        },
        {
          "internalType": "string",
          "name": "_number",
          "type": "string"
        }
      ],
      "name": "getClaimTsAmount",
      "outputs": [
        {
          "internalType": "int256",
          "name": "count",
          "type": "int256"
        },
        {
          "internalType": "uint256",
          "name": "_amount",
          "type": "uint256"
        }
      ],
      "stateMutability": "view",
      "type": "function"
    },
    {
      "inputs": [],
      "name": "getEarthDashboard",
      "outputs": [
        {
          "internalType": "uint256",
          "name": "_totalSupply",
          "type": "uint256"
        },
        {
          "internalType": "uint256",
          "name": "liquidSupply",
          "type": "uint256"
        },
        {
          "internalType": "uint256",
          "name": "destruction",
          "type": "uint256"
        },
        {
          "internalType": "uint256",
          "name": "totalStaked",
          "type": "uint256"
        },
        {
          "internalType": "uint256",
          "name": "treasury",
          "type": "uint256"
        },
        {
          "internalType": "uint256",
          "name": "foundation",
          "type": "uint256"
        }
      ],
      "stateMutability": "view",
      "type": "function"
    },
    {
      "inputs": [],
      "name": "getMeshDashboard",
      "outputs": [
        {
          "internalType": "uint256",
          "name": "participants",
          "type": "uint256"
        },
        {
          "internalType": "uint256",
          "name": "totalclaimMints",
          "type": "uint256"
        },
        {
          "internalType": "uint256",
          "name": "claimedMesh",
          "type": "uint256"
        },
        {
          "internalType": "uint256",
          "name": "maxHeats",
          "type": "uint256"
        },
        {
          "internalType": "uint256",
          "name": "sinceGenesis",
          "type": "uint256"
        }
      ],
      "stateMutability": "view",
      "type": "function"
    },
    {
      "inputs": [],
      "name": "getMeshData",
      "outputs": [
        {
          "internalType": "uint256",
          "name": "userCounts",
          "type": "uint256"
        },
        {
          "internalType": "uint256",
          "name": "launchData",
          "type": "uint256"
        },
        {
          "internalType": "uint256",
          "name": "totalMinted",
          "type": "uint256"
        },
        {
          "internalType": "uint256",
          "name": "liquidSupply",
          "type": "uint256"
        }
      ],
      "stateMutability": "view",
      "type": "function"
    },
    {
      "inputs": [],
      "name": "getNetworkEvents",
      "outputs": [
        {
          "internalType": "uint256",
          "name": "_genesisTs",
          "type": "uint256"
        },
        {
          "internalType": "uint256[]",
          "name": "_received",
          "type": "uint256[]"
        },
        {
          "internalType": "uint256[]",
          "name": "_staked",
          "type": "uint256[]"
        },
        {
          "internalType": "uint256[]",
          "name": "_unstaked",
          "type": "uint256[]"
        }
      ],
      "stateMutability": "view",
      "type": "function"
    },
    {
      "inputs": [
        {
          "internalType": "address",
          "name": "_user",
          "type": "address"
        }
      ],
      "name": "getRewardAmount",
      "outputs": [
        {
          "internalType": "uint256",
          "name": "_userTotalAmount",
          "type": "uint256"
        },
        {
          "internalType": "uint256",
          "name": "_userWithdraw",
          "type": "uint256"
        },
        {
          "internalType": "uint256",
          "name": "_userUnWithdraw",
          "type": "uint256"
        }
      ],
      "stateMutability": "view",
      "type": "function"
    },
    {
      "inputs": [],
      "name": "getSpendNonce",
      "outputs": [
        {
          "internalType": "uint256",
          "name": "",
          "type": "uint256"
        }
      ],
      "stateMutability": "view",
      "type": "function"
    },
    {
      "inputs": [
        {
          "internalType": "address",
          "name": "_user",
          "type": "address"
        }
      ],
      "name": "getStakeInfo",
      "outputs": [
        {
          "internalType": "uint256",
          "name": "tvl",
          "type": "uint256"
        },
        {
          "internalType": "uint256",
          "name": "revenue",
          "type": "uint256"
        },
        {
          "internalType": "uint256",
          "name": "earned",
          "type": "uint256"
        },
        {
          "internalType": "uint256",
          "name": "claimable",
          "type": "uint256"
        },
        {
          "internalType": "uint256",
          "name": "totalApy",
          "type": "uint256"
        },
        {
          "internalType": "uint256",
          "name": "staked",
          "type": "uint256"
        },
        {
          "internalType": "uint256",
          "name": "totalEarnValue",
          "type": "uint256"
        },
        {
          "internalType": "uint256",
          "name": "offEarthStake",
          "type": "uint256"
        }
      ],
      "stateMutability": "view",
      "type": "function"
    },
    {
      "inputs": [
        {
          "internalType": "address",
          "name": "user",
          "type": "address"
        }
      ],
      "name": "getStakeTime",
      "outputs": [
        {
          "internalType": "uint256",
          "name": "ts",
          "type": "uint256"
        }
      ],
      "stateMutability": "view",
      "type": "function"
    },
    {
      "inputs": [
        {
          "internalType": "address",
          "name": "spender",
          "type": "address"
        },
        {
          "internalType": "uint256",
          "name": "addedValue",
          "type": "uint256"
        }
      ],
      "name": "increaseAllowance",
      "outputs": [
        {
          "internalType": "bool",
          "name": "",
          "type": "bool"
        }
      ],
      "stateMutability": "nonpayable",
      "type": "function"
    },
    {
      "inputs": [
        {
          "internalType": "address[]",
          "name": "_owners",
          "type": "address[]"
        },
        {
          "internalType": "uint256",
          "name": "_apy",
          "type": "uint256"
        },
        {
          "internalType": "address",
          "name": "_foundationAddr",
          "type": "address"
        }
      ],
      "name": "initialize",
      "outputs": [],
      "stateMutability": "nonpayable",
      "type": "function"
    },
    {
      "inputs": [],
      "name": "maxMeshHeats",
      "outputs": [
        {
          "internalType": "uint256",
          "name": "",
          "type": "uint256"
        }
      ],
      "stateMutability": "view",
      "type": "function"
    },
    {
      "inputs": [],
      "name": "name",
      "outputs": [
        {
          "internalType": "string",
          "name": "",
          "type": "string"
        }
      ],
      "stateMutability": "view",
      "type": "function"
    },
    {
      "inputs": [
        {
          "internalType": "address",
          "name": "",
          "type": "address"
        }
      ],
      "name": "rankWithdrawAmount",
      "outputs": [
        {
          "internalType": "uint256",
          "name": "",
          "type": "uint256"
        }
      ],
      "stateMutability": "view",
      "type": "function"
    },
    {
      "inputs": [
        {
          "internalType": "uint256",
          "name": "amount",
          "type": "uint256"
        },
        {
          "internalType": "uint256",
          "name": "term",
          "type": "uint256"
        }
      ],
      "name": "stake",
      "outputs": [],
      "stateMutability": "nonpayable",
      "type": "function"
    },
    {
      "inputs": [
        {
          "internalType": "address",
          "name": "",
          "type": "address"
        }
      ],
      "name": "stakeValues",
      "outputs": [
        {
          "internalType": "uint256",
          "name": "",
          "type": "uint256"
        }
      ],
      "stateMutability": "view",
      "type": "function"
    },
    {
      "inputs": [],
      "name": "symbol",
      "outputs": [
        {
          "internalType": "string",
          "name": "",
          "type": "string"
        }
      ],
      "stateMutability": "view",
      "type": "function"
    },
    {
      "inputs": [],
      "name": "totalEarn",
      "outputs": [
        {
          "internalType": "uint256",
          "name": "",
          "type": "uint256"
        }
      ],
      "stateMutability": "view",
      "type": "function"
    },
    {
      "inputs": [],
      "name": "totalNGPStaked",
      "outputs": [
        {
          "internalType": "uint256",
          "name": "",
          "type": "uint256"
        }
      ],
      "stateMutability": "view",
      "type": "function"
    },
    {
      "inputs": [],
      "name": "totalSupply",
      "outputs": [
        {
          "internalType": "uint256",
          "name": "",
          "type": "uint256"
        }
      ],
      "stateMutability": "view",
      "type": "function"
    },
    {
      "inputs": [
        {
          "internalType": "string",
          "name": "",
          "type": "string"
        },
        {
          "internalType": "address",
          "name": "",
          "type": "address"
        }
      ],
      "name": "totalUnWithDraws",
      "outputs": [
        {
          "internalType": "uint256",
          "name": "",
          "type": "uint256"
        }
      ],
      "stateMutability": "view",
      "type": "function"
    },
    {
      "inputs": [
        {
          "internalType": "string",
          "name": "",
          "type": "string"
        },
        {
          "internalType": "address",
          "name": "",
          "type": "address"
        }
      ],
      "name": "totalWithDraws",
      "outputs": [
        {
          "internalType": "uint256",
          "name": "",
          "type": "uint256"
        }
      ],
      "stateMutability": "view",
      "type": "function"
    },
    {
      "inputs": [
        {
          "internalType": "address",
          "name": "to",
          "type": "address"
        },
        {
          "internalType": "uint256",
          "name": "amount",
          "type": "uint256"
        }
      ],
      "name": "transfer",
      "outputs": [
        {
          "internalType": "bool",
          "name": "",
          "type": "bool"
        }
      ],
      "stateMutability": "nonpayable",
      "type": "function"
    },
    {
      "inputs": [
        {
          "internalType": "address",
          "name": "from",
          "type": "address"
        },
        {
          "internalType": "address",
          "name": "to",
          "type": "address"
        },
        {
          "internalType": "uint256",
          "name": "amount",
          "type": "uint256"
        }
      ],
      "name": "transferFrom",
      "outputs": [
        {
          "internalType": "bool",
          "name": "",
          "type": "bool"
        }
      ],
      "stateMutability": "nonpayable",
      "type": "function"
    },
    {
      "inputs": [],
      "name": "treasuryValue",
      "outputs": [
        {
          "internalType": "uint256",
          "name": "",
          "type": "uint256"
        }
      ],
      "stateMutability": "view",
      "type": "function"
    },
    {
      "inputs": [
        {
          "internalType": "address",
          "name": "",
          "type": "address"
        }
      ],
      "name": "unWithDrawAmount",
      "outputs": [
        {
          "internalType": "uint256",
          "name": "",
          "type": "uint256"
        }
      ],
      "stateMutability": "view",
      "type": "function"
    },
    {
      "inputs": [
        {
          "internalType": "address",
          "name": "",
          "type": "address"
        }
      ],
      "name": "unWithdraws",
      "outputs": [
        {
          "internalType": "uint256",
          "name": "",
          "type": "uint256"
        }
      ],
      "stateMutability": "view",
      "type": "function"
    },
    {
      "inputs": [
        {
          "internalType": "string",
          "name": "",
          "type": "string"
        },
        {
          "internalType": "uint256",
          "name": "",
          "type": "uint256"
        }
      ],
      "name": "userApplys",
      "outputs": [
        {
          "internalType": "address",
          "name": "",
          "type": "address"
        }
      ],
      "stateMutability": "view",
      "type": "function"
    },
    {
      "inputs": [
        {
          "internalType": "address",
          "name": "",
          "type": "address"
        },
        {
          "internalType": "string",
          "name": "",
          "type": "string"
        }
      ],
      "name": "userMints",
      "outputs": [
        {
          "internalType": "address",
          "name": "user",
          "type": "address"
        },
        {
          "internalType": "string",
          "name": "number",
          "type": "string"
        },
        {
          "internalType": "uint256",
          "name": "updateTs",
          "type": "uint256"
        },
        {
          "internalType": "uint256",
          "name": "withdrawTs",
          "type": "uint256"
        }
      ],
      "stateMutability": "view",
      "type": "function"
    },
    {
      "inputs": [
        {
          "internalType": "address",
          "name": "",
          "type": "address"
        },
        {
          "internalType": "uint256",
          "name": "",
          "type": "uint256"
        }
      ],
      "name": "userNumbers",
      "outputs": [
        {
          "internalType": "string",
          "name": "",
          "type": "string"
        }
      ],
      "stateMutability": "view",
      "type": "function"
    },
    {
      "inputs": [
        {
          "internalType": "address",
          "name": "",
          "type": "address"
        }
      ],
      "name": "userStakes",
      "outputs": [
        {
          "internalType": "uint256",
          "name": "term",
          "type": "uint256"
        },
        {
          "internalType": "uint256",
          "name": "maturityTs",
          "type": "uint256"
        },
        {
          "internalType": "uint256",
          "name": "amount",
          "type": "uint256"
        }
      ],
      "stateMutability": "view",
      "type": "function"
    },
    {
      "inputs": [
        {
          "internalType": "address",
          "name": "",
          "type": "address"
        }
      ],
      "name": "userWithdraws",
      "outputs": [
        {
          "internalType": "uint256",
          "name": "",
          "type": "uint256"
        }
      ],
      "stateMutability": "view",
      "type": "function"
    },
    {
      "inputs": [
        {
          "internalType": "address",
          "name": "_sender",
          "type": "address"
        },
        {
          "internalType": "uint8[]",
          "name": "vs",
          "type": "uint8[]"
        },
        {
          "internalType": "bytes32[]",
          "name": "rs",
          "type": "bytes32[]"
        },
        {
          "internalType": "bytes32[]",
          "name": "ss",
          "type": "bytes32[]"
        }
      ],
      "name": "validSignature",
      "outputs": [
        {
          "internalType": "bool",
          "name": "",
          "type": "bool"
        }
      ],
      "stateMutability": "view",
      "type": "function"
    },
    {
      "inputs": [],
      "name": "withdraw",
      "outputs": [],
      "stateMutability": "nonpayable",
      "type": "function"
    },
    {
      "inputs": [
        {
          "internalType": "address",
          "name": "",
          "type": "address"
        }
      ],
      "name": "withdrawAmount",
      "outputs": [
        {
          "internalType": "uint256",
          "name": "",
          "type": "uint256"
        }
      ],
      "stateMutability": "view",
      "type": "function"
    }
  ],
  "transactionHash": "0x5dce99fa307d33e9cbfc24dccfbef7176f7f85789d33944d66bf06867664d166",
  "args": [],
  "numDeployments": 2,
  "solcInputHash": "5aaf58e04c00f14dc27cc7813a35bc3a",
  "bytecode": "0x608060405234801561001057600080fd5b5061376e806100206000396000f3fe608060405234801561001057600080fd5b50600436106103c45760003560e01c80637b0472f0116101ff578063c18fab141161011a578063e3af6d0a116100ad578063ed2f23691161007c578063ed2f2369146109dc578063f01d110c146109e5578063f9a18ba5146109ee578063fb1c8b9f14610a0e57600080fd5b8063e3af6d0a1461095b578063e3c41c4e14610964578063e8ca8da314610994578063ebcdbc2d146109bc57600080fd5b8063cb48e3c6116100e9578063cb48e3c6146108ff578063cb92ef4a1461091f578063dd62ed3e1461093f578063dffd722f1461095257600080fd5b8063c18fab1414610861578063c293d09b14610896578063c3453153146108a9578063c6a2a9f1146108f757600080fd5b80639d0c0f2311610192578063a6a5ff9211610161578063a6a5ff921461080a578063a9059cbb14610832578063b4800cdc14610845578063bcfd8dbf1461084e57600080fd5b80639d0c0f23146107c65780639f1b3bad146107e6578063a457c2d7146107ee578063a67347151461080157600080fd5b80638da7ad23116101ce5780638da7ad231461076e5780638ed4064a1461079d57806390399318146107a657806395d89b41146107be57600080fd5b80637b0472f0146106fd5780638283cef614610710578063890d3b27146107235780638d6b6a591461074e57600080fd5b806339509351116102ef5780634c2346fa1161028257806361a52a361161025157806361a52a36146106955780636e5d82801461069e57806370a08231146106c157806372483bf9146106ea57600080fd5b80634c2346fa146106395780634f4201511461064c5780635cad385c1461066c5780635f7bb9321461067557600080fd5b80633d7af48f116102be5780633d7af48f1461059457806341b23df01461059d57806344a040f5146105cb578063474a2b191461062657600080fd5b806339509351146105685780633adfe5ea1461057b5780633bcfc4b8146105835780633ccfd60b1461058c57600080fd5b80631442156f116103675780631ea13164116103365780631ea13164146104eb57806323b872dd146105265780632c2d0a0c14610539578063313ce5671461055957600080fd5b80631442156f1461047457806318160ddd146104af5780631c02b1f4146104b75780631dca03bc146104c057600080fd5b80630aedb5ba116103a35780630aedb5ba146104175780630bfbba011461042e5780630ffcccff14610441578063130662401461046157600080fd5b8062ddf1ef146103c957806306fdde03146103d6578063095ea7b3146103f4575b600080fd5b6103d4610258607855565b005b6103de610a31565b6040516103eb9190612ce9565b60405180910390f35b610407610402366004612d18565b610ac3565b60405190151581526020016103eb565b61042060655481565b6040519081526020016103eb565b6103de61043c366004612d18565b610add565b61042061044f366004612d42565b60836020526000908152604090205481565b6103d461046f366004612e10565b610b96565b610420610482366004612e4c565b81516020818401810180516089825292820194820194909420919093529091526000908152604090205481565b603554610420565b61042060765481565b6104206104ce366004612e10565b805160208183018101805160688252928201919093012091525481565b6104206104f9366004612e4c565b81516020818401810180516088825292820194820194909420919093529091526000908152604090205481565b610407610534366004612e99565b610ff5565b610420610547366004612d42565b60856020526000908152604090205481565b604051601281526020016103eb565b610407610576366004612d18565b61101b565b6103d461103d565b61042060795481565b6103d4611054565b61042060745481565b6104076105ab366004612d18565b608a60209081526000928352604080842090915290825290205460ff1681565b61060b6105d9366004612ed5565b6001600160a01b0316600090815260876020908152604080832054606a835281842054606b9093529220549192909190565b604080519384526020840192909252908201526060016103eb565b6103d4610634366004613034565b61125c565b610407610647366004613119565b611431565b61042061065a366004612ed5565b606a6020526000908152604090205481565b61042060775481565b610420610683366004612ed5565b60826020526000908152604090205481565b61042060785481565b6104076106ac366004612d42565b607f6020526000908152604090205460ff1681565b6104206106cf366004612ed5565b6001600160a01b031660009081526033602052604090205490565b6103d46106f83660046131b1565b611715565b6103d461070b36600461320d565b611992565b6103d461071e366004612d18565b611b65565b608154610736906001600160a01b031681565b6040516001600160a01b0390911681526020016103eb565b61042061075c366004612ed5565b60866020526000908152604090205481565b61060b61077c366004612ed5565b607d6020526000908152604090208054600182015460029092015490919083565b610420607b5481565b6107ae611b73565b6040516103eb949392919061326a565b6103de611d21565b6104206107d4366004612ed5565b60876020526000908152604090205481565b6103d4611d30565b6104076107fc366004612d18565b611ec6565b61042060755481565b610812611f4c565b6040805194855260208501939093529183015260608201526080016103eb565b610407610840366004612d18565b611fa2565b61042060735481565b61042061085c366004612ed5565b611fb0565b610869611ff3565b604080519687526020870195909552938501929092526060840152608083015260a082015260c0016103eb565b6107366108a43660046132b4565b612058565b6108bc6108b7366004612ed5565b61209f565b604080519889526020890197909752958701949094526060860192909252608085015260a084015260c083015260e0820152610100016103eb565b606e54610420565b61042061090d366004612ed5565b606b6020526000908152604090205481565b61042061092d366004612d42565b607e6020526000908152604090205481565b61042061094d3660046132f8565b61218c565b610420607c5481565b61042060725481565b61096c6121b7565b604080519586526020860194909452928401919091526060830152608082015260a0016103eb565b6109a76109a2366004613322565b6121ea565b604080519283526020830191909152016103eb565b6104206109ca366004612d42565b60846020526000908152604090205481565b610420607a5481565b61042060805481565b6104206109fc366004612ed5565b606c6020526000908152604090205481565b610a21610a1c3660046133a4565b612293565b6040516103eb94939291906133f1565b606060368054610a4090613428565b80601f0160208091040260200160405190810160405280929190818152602001828054610a6c90613428565b8015610ab95780601f10610a8e57610100808354040283529160200191610ab9565b820191906000526020600020905b815481529060010190602001808311610a9c57829003601f168201915b5050505050905090565b600033610ad181858561236a565b60019150505b92915050565b60696020528160005260406000208181548110610af957600080fd5b90600052602060002001600091509150508054610b1590613428565b80601f0160208091040260200160405190810160405280929190818152602001828054610b4190613428565b8015610b8e5780601f10610b6357610100808354040283529160200191610b8e565b820191906000526020600020905b815481529060010190602001808311610b7157829003601f168201915b505050505081565b336000908152606660205260408082209051610bb3908490613463565b9081526040805191829003602090810183206080840190925281546001600160a01b0316835260018201805491840191610bec90613428565b80601f0160208091040260200160405190810160405280929190818152602001828054610c1890613428565b8015610c655780601f10610c3a57610100808354040283529160200191610c65565b820191906000526020600020905b815481529060010190602001808311610c4857829003601f168201915b505050505081526020016002820154815260200160038201548152505090508060400151600014610cdd5760405162461bcd60e51b815260206004820152601e60248201527f6d4e47503a204d696e7420616c726561647920696e2070726f6772657373000060448201526064015b60405180910390fd5b6000606783604051610cef9190613463565b9081526040519081900360200190205490508015610d63576000600a606885604051610d1b9190613463565b908152602001604051809103902054610d349190613495565b90508060776000828254610d4891906134b7565b90915550508015610d5d57610d5d338261248f565b50610d79565b60748054906000610d73836134cf565b91905055505b6020808301849052338084524260408086018290526060860191909152600091825260669092528190209051839190610db3908690613463565b90815260405160209181900382019020825181546001600160a01b0319166001600160a01b039091161781558282015180519192610df992600185019290910190612bf8565b506040820151816002015560608201518160030155905050606783604051610e219190613463565b90815260405190819003602090810182208054600181018255600091825291812090910180546001600160a01b0319163317905590606790610e64908690613463565b9081526040519081900360200190205490506000610e838260646135ce565b610e8e83606a6135ce565b610e9a90611a0b6135da565b610ea99064174876e8006135da565b610eb39190613495565b905080606886604051610ec69190613463565b9081526020016040518091039020819055507fe5c486bee358a5fff5e4d70dc5fdaaf14806df125ffde843a8c40db608264812858284604051610f0b939291906135f9565b60405180910390a1607654811115610f235760768190555b33600090815260696020908152604082208054600181018255908352918190208751610f56939190910191880190612bf8565b50336000908152606d602052604090205460ff16610f9e5760738054906000610f7e836134cf565b9091555050336000908152606d60205260409020805460ff191660011790555b60758054906000610fae836134cf565b91905055507f1309ab74031e37b46ee8ce9ff667a17a5c69a500a05d167e4c89ad8b0bc40bf9338642604051610fe69392919061361e565b60405180910390a15050505050565b6000336110038582856125c0565b61100e85858561263a565b60019150505b9392505050565b600033610ad181858561102e838361218c565b61103891906134b7565b61236a565b606e805490600061104d836134cf565b9190505550565b336000908152607d602090815260409182902082516060810184528154815260018201549281019290925260020154918101829052906110cd5760405162461bcd60e51b81526020600482015260146024820152734e47503a206e6f207374616b652065786973747360601b6044820152606401610cd4565b428160200151111561110e5760405162461bcd60e51b815260206004820152600a6024820152696d61747572697479547360b01b6044820152606401610cd4565b60006111278260400151836000015184602001516127e5565b9050600081836040015161113b91906134b7565b90506000607854607254426111509190613652565b61115a9190613495565b3360009081526082602052604081208054929350859290919061117e9084906134b7565b9250508190555082607c600082825461119791906134b7565b9091555050607a80549060006111ac83613669565b91905055508360400151607b60008282546111c79190613652565b9091555050600081815260856020526040812080548492906111ea9084906134b7565b909155506111fa90503383612829565b60408085015181519081526020810185905233917f92ccf450a286a957af52509bc1c9939d1a6a481783e142e41e2499f0bb66ebc6910160405180910390a25050336000908152607d6020526040812081815560018101829055600201555050565b336000908152606f602052604090205460ff166112a75760405162461bcd60e51b81526020600482015260096024820152683737ba1037bbb732b960b91b6044820152606401610cd4565b6112b333848484611431565b6112f45760405162461bcd60e51b8152602060048201526012602482015271696e76616c6964207369676e61747572657360701b6044820152606401610cd4565b606e546113029060016134b7565b606e55868581146113445760405162461bcd60e51b815260206004820152600c60248201526b0cae4e4dee440d8cadccee8d60a31b6044820152606401610cd4565b60005b818110156113bf5787878281811061136157611361613680565b90506020020135606a60008c8c8581811061137e5761137e613680565b90506020020160208101906113939190612ed5565b6001600160a01b03168152602081019190915260400160002055806113b7816134cf565b915050611347565b5084608060008282546113d291906134b7565b9091555050608154608054611408916001600160a01b0316906064906113f99060146135da565b6114039190613495565b612877565b6064608054605061141991906135da565b6114239190613495565b608055505050505050505050565b6000825184511461147d5760405162461bcd60e51b81526020600482015260166024820152750ece65cd8cadccee8d0407a7a40e4e65cd8cadccee8d60531b6044820152606401610cd4565b81518351146114c75760405162461bcd60e51b81526020600482015260166024820152750e4e65cd8cadccee8d0407a7a40e6e65cd8cadccee8d60531b6044820152606401610cd4565b6070548451111561151a5760405162461bcd60e51b815260206004820152601a60248201527f76732e6c656e677468203c3d206f776e6572732e6c656e6774680000000000006044820152606401610cd4565b607154845110156115655760405162461bcd60e51b81526020600482015260156024820152741d9ccb9b195b99dd1a080f8f481c995c5d5a5c9959605a1b6044820152606401610cd4565b600061157086612938565b9050600085516001600160401b0381111561158d5761158d612d5b565b6040519080825280602002602001820160405280156115b6578160200160208202803683370190505b50905060005b86518110156116c0576001838883815181106115da576115da613680565b6020026020010151601b6115ee9190613696565b88848151811061160057611600613680565b602002602001015188858151811061161a5761161a613680565b602002602001015160405160008152602001604052604051611658949392919093845260ff9290921660208401526040830152606082015260800190565b6020604051602081039080840390855afa15801561167a573d6000803e3d6000fd5b5050506020604051035182828151811061169657611696613680565b6001600160a01b0390921660209283029190910190910152806116b8816134cf565b9150506115bc565b506116ca816129fa565b6117085760405162461bcd60e51b815260206004820152600f60248201526e5f64697374696e63744f776e65727360881b6044820152606401610cd4565b5060019695505050505050565b600054610100900460ff16158080156117355750600054600160ff909116105b8061174f5750303b15801561174f575060005460ff166001145b6117b25760405162461bcd60e51b815260206004820152602e60248201527f496e697469616c697a61626c653a20636f6e747261637420697320616c72656160448201526d191e481a5b9a5d1a585b1a5e995960921b6064820152608401610cd4565b6000805460ff1916600117905580156117d5576000805461ff0019166101001790555b61181f6040518060400160405280600b81526020016a22a0a92a24102a37b5b2b760a91b8152506040518060400160405280600581526020016408a82a4a8960db1b815250612af5565b60005b8481101561190457600086868381811061183e5761183e613680565b90506020020160208101906118539190612ed5565b6001600160a01b0381166000908152606f602052604090205490915060ff168061188457506001600160a01b038116155b1561188e57600080fd5b6001600160a01b03166000818152606f60205260408120805460ff191660019081179091556070805491820181559091527f8f6b23ffa15f0465e3176e15ca644cf24f86dc1312fe715484e3c4aead5eb78b0180546001600160a01b0319169091179055806118fc816134cf565b915050611822565b50611910600285613495565b61191b9060016134b7565b60715562015180607855426072556079839055608180546001600160a01b0319166001600160a01b038416179055801561198b576000805461ff0019169055604051600181527f7f26b83ff96e1f2b6a682f133852f6798a09c465da95921460cefb384740249890602001610fe6565b5050505050565b336000908152603360205260409020548211156119f15760405162461bcd60e51b815260206004820152601760248201527f4e47503a206e6f7420656e6f7567682062616c616e63650000000000000000006044820152606401610cd4565b60008211611a335760405162461bcd60e51b815260206004820152600f60248201526e04e47503a20616d6f756e74203e203608c1b6044820152606401610cd4565b6001811015611a755760405162461bcd60e51b815260206004820152600e60248201526d4e47503a207465726d203e3d203160901b6044820152606401610cd4565b336000908152607d602052604090206002015415611ac95760405162461bcd60e51b81526020600482015260116024820152704e47503a207374616b652065786973747360781b6044820152606401610cd4565b611ad33083611fa2565b50611ade8282612b26565b600060785460725442611af19190613652565b611afb9190613495565b905082608460008381526020019081526020016000206000828254611b2091906134b7565b9091555050604080518481526020810184905233917f1449c6dd7851abc30abf37f57715f492010519147cc2652fbc38202c18a6ee90910160405180910390a2505050565b611b6f8282612877565b5050565b60006060806060600060785460725442611b8d9190613652565b611b979190613495565b9050806001600160401b03811115611bb157611bb1612d5b565b604051908082528060200260200182016040528015611bda578160200160208202803683370190505b509350806001600160401b03811115611bf557611bf5612d5b565b604051908082528060200260200182016040528015611c1e578160200160208202803683370190505b509250806001600160401b03811115611c3957611c39612d5b565b604051908082528060200260200182016040528015611c62578160200160208202803683370190505b509150607254945060005b81811015611d19576000818152608360205260409020548551869083908110611c9857611c98613680565b6020026020010181815250506084600082815260200190815260200160002054848281518110611cca57611cca613680565b6020026020010181815250506085600082815260200190815260200160002054838281518110611cfc57611cfc613680565b602090810291909101015280611d11816134cf565b915050611c6d565b505090919293565b606060378054610a4090613428565b336000908152606a602052604090205480611d7a5760405162461bcd60e51b815260206004820152600a6024820152690616d6f756e74203e20360b41b6044820152606401610cd4565b336000908152608a60205260408120607854909190611d999042613495565b815260208101919091526040016000205460ff1615611de85760405162461bcd60e51b815260206004820152600b60248201526a646179207265636569766560a81b6044820152606401610cd4565b336000908152608a6020526040812060785460019290611e089042613495565b81526020810191909152604001600020805460ff19169115159190911790556064611e3482600a6135da565b611e3e9190613495565b33600090815260876020526040812080549293508392909190611e629084906134b7565b90915550611e7390508160096135da565b336000818152606a6020526040902091909155611e909082612877565b6040513381527ff78ef385f7cb8b9410efbec2e37ec346c24531feea7a4be70f153a40e2d49ee99060200160405180910390a150565b60003381611ed4828661218c565b905083811015611f345760405162461bcd60e51b815260206004820152602560248201527f45524332303a2064656372656173656420616c6c6f77616e63652062656c6f77604482015264207a65726f60d81b6064820152608401610cd4565b611f41828686840361236a565b506001949350505050565b600080600080607354935060785460725442611f689190613652565b611f729190613495565b9250611f7d60355490565b30600090815260336020526040902054909250611f9a9083613652565b905090919293565b600033610ad181858561263a565b6001600160a01b0381166000908152607d6020526040812060020154611fd4575060005b506001600160a01b03166000908152607d602052604090206001015490565b60008060008060008061200560355490565b306000908152603360205260409020549096506120229087613652565b607754607b546080546081546001600160a01b0316600090815260336020526040902054999a9399929850909650945092509050565b8151602081840181018051606782529282019185019190912091905280548290811061208357600080fd5b6000918252602090912001546001600160a01b03169150829050565b600080600080600080600080600080607b546120bb91906135da565b985080607c546120cb91906135da565b607c546001600160a01b038c166000908152607d602052604090206001015491995097504210612118576001600160a01b038a166000908152607d6020526040902060020154955061211d565b600095505b6079546001600160a01b038b166000908152607d60209081526040808320600201546082909252822054929750955090935061215860355490565b9050801561217f5780607b54620f424061217291906135da565b61217c9190613495565b92505b5050919395975091939597565b6001600160a01b03918216600090815260346020908152604080832093909416825291909152205490565b607354607554607454607654607854607254600091906121d79042613652565b6121e19190613495565b90509091929394565b6001600160a01b038316600090815260666020526040808220905182919061221590869086906136bb565b90815260200160405180910390206003015460001461223857600019915061228b565b6067848460405161224a9291906136bb565b908152604051908190036020018120549250600a9060689061226f90879087906136bb565b9081526020016040518091039020546122889190613495565b90505b935093915050565b60666020908152600092835260409092208151808301840180519281529084019290930191909120915280546001820180546001600160a01b0390921692916122db90613428565b80601f016020809104026020016040519081016040528092919081815260200182805461230790613428565b80156123545780601f1061232957610100808354040283529160200191612354565b820191906000526020600020905b81548152906001019060200180831161233757829003601f168201915b5050505050908060020154908060030154905084565b6001600160a01b0383166123cc5760405162461bcd60e51b8152602060048201526024808201527f45524332303a20617070726f76652066726f6d20746865207a65726f206164646044820152637265737360e01b6064820152608401610cd4565b6001600160a01b03821661242d5760405162461bcd60e51b815260206004820152602260248201527f45524332303a20617070726f766520746f20746865207a65726f206164647265604482015261737360f01b6064820152608401610cd4565b6001600160a01b0383811660008181526034602090815260408083209487168084529482529182902085905590518481527f8c5be1e5ebec7d5bd14f71427d1e84f3dd0314c0f7b2291e5b200ac8c7c3b92591015b60405180910390a3505050565b6001600160a01b0382166124ef5760405162461bcd60e51b815260206004820152602160248201527f45524332303a206275726e2066726f6d20746865207a65726f206164647265736044820152607360f81b6064820152608401610cd4565b6001600160a01b038216600090815260336020526040902054818110156125635760405162461bcd60e51b815260206004820152602260248201527f45524332303a206275726e20616d6f756e7420657863656564732062616c616e604482015261636560f01b6064820152608401610cd4565b6001600160a01b03831660008181526033602090815260408083208686039055603580548790039055518581529192917fddf252ad1be2c89b69c2b068fc378daa952ba7f163c4a11628f55a4df523b3ef9101612482565b505050565b60006125cc848461218c565b9050600019811461263457818110156126275760405162461bcd60e51b815260206004820152601d60248201527f45524332303a20696e73756666696369656e7420616c6c6f77616e63650000006044820152606401610cd4565b612634848484840361236a565b50505050565b6001600160a01b03831661269e5760405162461bcd60e51b815260206004820152602560248201527f45524332303a207472616e736665722066726f6d20746865207a65726f206164604482015264647265737360d81b6064820152608401610cd4565b6001600160a01b0382166127005760405162461bcd60e51b815260206004820152602360248201527f45524332303a207472616e7366657220746f20746865207a65726f206164647260448201526265737360e81b6064820152608401610cd4565b6001600160a01b038316600090815260336020526040902054818110156127785760405162461bcd60e51b815260206004820152602660248201527f45524332303a207472616e7366657220616d6f756e7420657863656564732062604482015265616c616e636560d01b6064820152608401610cd4565b6001600160a01b0380851660008181526033602052604080822086860390559286168082529083902080548601905591517fddf252ad1be2c89b69c2b068fc378daa952ba7f163c4a11628f55a4df523b3ef906127d89086815260200190565b60405180910390a3612634565b60008142111561281f576000836079546127ff91906135da565b9050606461280d82876135da565b6128179190613495565b915050611014565b5060009392505050565b60006078546072544261283c9190613652565b6128469190613495565b90508160836000838152602001908152602001600020600082825461286b91906134b7565b909155506125bb905083835b6001600160a01b0382166128cd5760405162461bcd60e51b815260206004820152601f60248201527f45524332303a206d696e7420746f20746865207a65726f2061646472657373006044820152606401610cd4565b80603560008282546128df91906134b7565b90915550506001600160a01b0382166000818152603360209081526040808320805486019055518481527fddf252ad1be2c89b69c2b068fc378daa952ba7f163c4a11628f55a4df523b3ef910160405180910390a35050565b60008061298c83606e546040805160609390931b6bffffffffffffffffffffffff19166020808501919091524660348501526054808501939093528151808503909301835260749093019052805191012090565b905060006040518060400160405280601c81526020017f19457468657265756d205369676e6564204d6573736167653a0a333200000000815250905080826040516020016129db9291906136cb565b6040516020818303038152906040528051906020012092505050919050565b60705481516000911015612a1057506000919050565b60005b8251811015612aec57606f6000848381518110612a3257612a32613680565b6020908102919091018101516001600160a01b031682528101919091526040016000205460ff16612a665750600092915050565b60005b81811015612ad957838181518110612a8357612a83613680565b60200260200101516001600160a01b0316848381518110612aa657612aa6613680565b60200260200101516001600160a01b03161415612ac7575060009392505050565b80612ad1816134cf565b915050612a69565b5080612ae4816134cf565b915050612a13565b50600192915050565b600054610100900460ff16612b1c5760405162461bcd60e51b8152600401610cd4906136ed565b611b6f8282612bae565b604051806060016040528082815260200160785483612b4591906135da565b612b4f90426134b7565b81526020908101849052336000908152607d82526040808220845181559284015160018401559290920151600290910155607a805491612b8e836134cf565b919050555081607b6000828254612ba591906134b7565b90915550505050565b600054610100900460ff16612bd55760405162461bcd60e51b8152600401610cd4906136ed565b8151612be8906036906020850190612bf8565b5080516125bb9060379060208401905b828054612c0490613428565b90600052602060002090601f016020900481019282612c265760008555612c6c565b82601f10612c3f57805160ff1916838001178555612c6c565b82800160010185558215612c6c579182015b82811115612c6c578251825591602001919060010190612c51565b50612c78929150612c7c565b5090565b5b80821115612c785760008155600101612c7d565b60005b83811015612cac578181015183820152602001612c94565b838111156126345750506000910152565b60008151808452612cd5816020860160208601612c91565b601f01601f19169290920160200192915050565b6020815260006110146020830184612cbd565b80356001600160a01b0381168114612d1357600080fd5b919050565b60008060408385031215612d2b57600080fd5b612d3483612cfc565b946020939093013593505050565b600060208284031215612d5457600080fd5b5035919050565b634e487b7160e01b600052604160045260246000fd5b604051601f8201601f191681016001600160401b0381118282101715612d9957612d99612d5b565b604052919050565b600082601f830112612db257600080fd5b81356001600160401b03811115612dcb57612dcb612d5b565b612dde601f8201601f1916602001612d71565b818152846020838601011115612df357600080fd5b816020850160208301376000918101602001919091529392505050565b600060208284031215612e2257600080fd5b81356001600160401b03811115612e3857600080fd5b612e4484828501612da1565b949350505050565b60008060408385031215612e5f57600080fd5b82356001600160401b03811115612e7557600080fd5b612e8185828601612da1565b925050612e9060208401612cfc565b90509250929050565b600080600060608486031215612eae57600080fd5b612eb784612cfc565b9250612ec560208501612cfc565b9150604084013590509250925092565b600060208284031215612ee757600080fd5b61101482612cfc565b60008083601f840112612f0257600080fd5b5081356001600160401b03811115612f1957600080fd5b6020830191508360208260051b8501011115612f3457600080fd5b9250929050565b60006001600160401b03821115612f5457612f54612d5b565b5060051b60200190565b600082601f830112612f6f57600080fd5b81356020612f84612f7f83612f3b565b612d71565b82815260059290921b84018101918181019086841115612fa357600080fd5b8286015b84811015612fce57803560ff81168114612fc15760008081fd5b8352918301918301612fa7565b509695505050505050565b600082601f830112612fea57600080fd5b81356020612ffa612f7f83612f3b565b82815260059290921b8401810191818101908684111561301957600080fd5b8286015b84811015612fce578035835291830191830161301d565b60008060008060008060008060c0898b03121561305057600080fd5b88356001600160401b038082111561306757600080fd5b6130738c838d01612ef0565b909a50985060208b013591508082111561308c57600080fd5b6130988c838d01612ef0565b909850965060408b0135955060608b01359150808211156130b857600080fd5b6130c48c838d01612f5e565b945060808b01359150808211156130da57600080fd5b6130e68c838d01612fd9565b935060a08b01359150808211156130fc57600080fd5b506131098b828c01612fd9565b9150509295985092959890939650565b6000806000806080858703121561312f57600080fd5b61313885612cfc565b935060208501356001600160401b038082111561315457600080fd5b61316088838901612f5e565b9450604087013591508082111561317657600080fd5b61318288838901612fd9565b9350606087013591508082111561319857600080fd5b506131a587828801612fd9565b91505092959194509250565b600080600080606085870312156131c757600080fd5b84356001600160401b038111156131dd57600080fd5b6131e987828801612ef0565b9095509350506020850135915061320260408601612cfc565b905092959194509250565b6000806040838503121561322057600080fd5b50508035926020909101359150565b600081518084526020808501945080840160005b8381101561325f57815187529582019590820190600101613243565b509495945050505050565b848152608060208201526000613283608083018661322f565b8281036040840152613295818661322f565b905082810360608401526132a9818561322f565b979650505050505050565b600080604083850312156132c757600080fd5b82356001600160401b038111156132dd57600080fd5b6132e985828601612da1565b95602094909401359450505050565b6000806040838503121561330b57600080fd5b61331483612cfc565b9150612e9060208401612cfc565b60008060006040848603121561333757600080fd5b61334084612cfc565b925060208401356001600160401b038082111561335c57600080fd5b818601915086601f83011261337057600080fd5b81358181111561337f57600080fd5b87602082850101111561339157600080fd5b6020830194508093505050509250925092565b600080604083850312156133b757600080fd5b6133c083612cfc565b915060208301356001600160401b038111156133db57600080fd5b6133e785828601612da1565b9150509250929050565b6001600160a01b038516815260806020820181905260009061341590830186612cbd565b6040830194909452506060015292915050565b600181811c9082168061343c57607f821691505b6020821081141561345d57634e487b7160e01b600052602260045260246000fd5b50919050565b60008251613475818460208701612c91565b9190910192915050565b634e487b7160e01b600052601160045260246000fd5b6000826134b257634e487b7160e01b600052601260045260246000fd5b500490565b600082198211156134ca576134ca61347f565b500190565b60006000198214156134e3576134e361347f565b5060010190565b600181815b8085111561352557816000190482111561350b5761350b61347f565b8085161561351857918102915b93841c93908002906134ef565b509250929050565b60008261353c57506001610ad7565b8161354957506000610ad7565b816001811461355f576002811461356957613585565b6001915050610ad7565b60ff84111561357a5761357a61347f565b50506001821b610ad7565b5060208310610133831016604e8410600b84101617156135a8575081810a610ad7565b6135b283836134ea565b80600019048211156135c6576135c661347f565b029392505050565b6000611014838361352d565b60008160001904831182151516156135f4576135f461347f565b500290565b60608152600061360c6060830186612cbd565b60208301949094525060400152919050565b6001600160a01b038416815260606020820181905260009061364290830185612cbd565b9050826040830152949350505050565b6000828210156136645761366461347f565b500390565b6000816136785761367861347f565b506000190190565b634e487b7160e01b600052603260045260246000fd5b600060ff821660ff84168060ff038211156136b3576136b361347f565b019392505050565b8183823760009101908152919050565b600083516136dd818460208801612c91565b9190910191825250602001919050565b6020808252602b908201527f496e697469616c697a61626c653a20636f6e7472616374206973206e6f74206960408201526a6e697469616c697a696e6760a81b60608201526080019056fea2646970667358221220e28e1b3e8b3699edcc863c2f5fdbf301f43f80c25d375d9227da72f7d683610164736f6c63430008080033",
  "devdoc": {
    "kind": "dev",
    "methods": {
      "allowance(address,address)": {
        "details": "See {IERC20-allowance}."
      },
      "approve(address,uint256)": {
        "details": "See {IERC20-approve}. NOTE: If `amount` is the maximum `uint256`, the allowance is not updated on `transferFrom`. This is semantically equivalent to an infinite approval. Requirements: - `spender` cannot be the zero address."
      },
      "balanceOf(address)": {
        "details": "See {IERC20-balanceOf}."
      },
      "decimals()": {
        "details": "Returns the number of decimals used to get its user representation. For example, if `decimals` equals `2`, a balance of `505` tokens should be displayed to a user as `5.05` (`505 / 10 ** 2`). Tokens usually opt for a value of 18, imitating the relationship between Ether and Wei. This is the value {ERC20} uses, unless this function is overridden; NOTE: This information is only used for _display_ purposes: it in no way affects any of the arithmetic of the contract, including {IERC20-balanceOf} and {IERC20-transfer}."
      },
      "decreaseAllowance(address,uint256)": {
        "details": "Atomically decreases the allowance granted to `spender` by the caller. This is an alternative to {approve} that can be used as a mitigation for problems described in {IERC20-approve}. Emits an {Approval} event indicating the updated allowance. Requirements: - `spender` cannot be the zero address. - `spender` must have allowance for the caller of at least `subtractedValue`."
      },
      "increaseAllowance(address,uint256)": {
        "details": "Atomically increases the allowance granted to `spender` by the caller. This is an alternative to {approve} that can be used as a mitigation for problems described in {IERC20-approve}. Emits an {Approval} event indicating the updated allowance. Requirements: - `spender` cannot be the zero address."
      },
      "name()": {
        "details": "Returns the name of the token."
      },
      "symbol()": {
        "details": "Returns the symbol of the token, usually a shorter version of the name."
      },
      "totalSupply()": {
        "details": "See {IERC20-totalSupply}."
      },
      "transfer(address,uint256)": {
        "details": "See {IERC20-transfer}. Requirements: - `to` cannot be the zero address. - the caller must have a balance of at least `amount`."
      },
      "transferFrom(address,address,uint256)": {
        "details": "See {IERC20-transferFrom}. Emits an {Approval} event indicating the updated allowance. This is not required by the EIP. See the note at the beginning of {ERC20}. NOTE: Does not update the allowance if the current allowance is the maximum `uint256`. Requirements: - `from` and `to` cannot be the zero address. - `from` must have a balance of at least `amount`. - the caller must have allowance for ``from``'s tokens of at least `amount`."
      }
    },
    "version": 1
  },
  "userdoc": {
    "kind": "user",
    "methods": {},
    "version": 1
  },
  "storageLayout": {
    "storage": [
      {
        "astId": 6,
        "contract": "contracts/NGP.sol:NGP",
        "label": "_initialized",
        "offset": 0,
        "slot": "0",
        "type": "t_uint8"
      },
      {
        "astId": 9,
        "contract": "contracts/NGP.sol:NGP",
        "label": "_initializing",
        "offset": 1,
        "slot": "0",
        "type": "t_bool"
      },
      {
        "astId": 1208,
        "contract": "contracts/NGP.sol:NGP",
        "label": "__gap",
        "offset": 0,
        "slot": "1",
        "type": "t_array(t_uint256)50_storage"
      },
      {
        "astId": 187,
        "contract": "contracts/NGP.sol:NGP",
        "label": "_balances",
        "offset": 0,
        "slot": "51",
        "type": "t_mapping(t_address,t_uint256)"
      },
      {
        "astId": 193,
        "contract": "contracts/NGP.sol:NGP",
        "label": "_allowances",
        "offset": 0,
        "slot": "52",
        "type": "t_mapping(t_address,t_mapping(t_address,t_uint256))"
      },
      {
        "astId": 195,
        "contract": "contracts/NGP.sol:NGP",
        "label": "_totalSupply",
        "offset": 0,
        "slot": "53",
        "type": "t_uint256"
      },
      {
        "astId": 197,
        "contract": "contracts/NGP.sol:NGP",
        "label": "_name",
        "offset": 0,
        "slot": "54",
        "type": "t_string_storage"
      },
      {
        "astId": 199,
        "contract": "contracts/NGP.sol:NGP",
        "label": "_symbol",
        "offset": 0,
        "slot": "55",
        "type": "t_string_storage"
      },
      {
        "astId": 779,
        "contract": "contracts/NGP.sol:NGP",
        "label": "__gap",
        "offset": 0,
        "slot": "56",
        "type": "t_array(t_uint256)45_storage"
      },
      {
        "astId": 1225,
        "contract": "contracts/NGP.sol:NGP",
        "label": "daySupply",
        "offset": 0,
        "slot": "101",
        "type": "t_uint256"
      },
      {
        "astId": 1232,
        "contract": "contracts/NGP.sol:NGP",
        "label": "userMints",
        "offset": 0,
        "slot": "102",
        "type": "t_mapping(t_address,t_mapping(t_string_memory_ptr,t_struct(MintInfo)1223_storage))"
      },
      {
        "astId": 1237,
        "contract": "contracts/NGP.sol:NGP",
        "label": "userApplys",
        "offset": 0,
        "slot": "103",
        "type": "t_mapping(t_string_memory_ptr,t_array(t_address)dyn_storage)"
      },
      {
        "astId": 1241,
        "contract": "contracts/NGP.sol:NGP",
        "label": "degreeHeats",
        "offset": 0,
        "slot": "104",
        "type": "t_mapping(t_string_memory_ptr,t_uint256)"
      },
      {
        "astId": 1246,
        "contract": "contracts/NGP.sol:NGP",
        "label": "userNumbers",
        "offset": 0,
        "slot": "105",
        "type": "t_mapping(t_address,t_array(t_string_storage)dyn_storage)"
      },
      {
        "astId": 1250,
        "contract": "contracts/NGP.sol:NGP",
        "label": "withdrawAmount",
        "offset": 0,
        "slot": "106",
        "type": "t_mapping(t_address,t_uint256)"
      },
      {
        "astId": 1254,
        "contract": "contracts/NGP.sol:NGP",
        "label": "unWithDrawAmount",
        "offset": 0,
        "slot": "107",
        "type": "t_mapping(t_address,t_uint256)"
      },
      {
        "astId": 1258,
        "contract": "contracts/NGP.sol:NGP",
        "label": "rankWithdrawAmount",
        "offset": 0,
        "slot": "108",
        "type": "t_mapping(t_address,t_uint256)"
      },
      {
        "astId": 1262,
        "contract": "contracts/NGP.sol:NGP",
        "label": "minters",
        "offset": 0,
        "slot": "109",
        "type": "t_mapping(t_address,t_bool)"
      },
      {
        "astId": 1264,
        "contract": "contracts/NGP.sol:NGP",
        "label": "spendNonce",
        "offset": 0,
        "slot": "110",
        "type": "t_uint256"
      },
      {
        "astId": 1268,
        "contract": "contracts/NGP.sol:NGP",
        "label": "isOwner",
        "offset": 0,
        "slot": "111",
        "type": "t_mapping(t_address,t_bool)"
      },
      {
        "astId": 1271,
        "contract": "contracts/NGP.sol:NGP",
        "label": "owners",
        "offset": 0,
        "slot": "112",
        "type": "t_array(t_address)dyn_storage"
      },
      {
        "astId": 1273,
        "contract": "contracts/NGP.sol:NGP",
        "label": "required",
        "offset": 0,
        "slot": "113",
        "type": "t_uint256"
      },
      {
        "astId": 1275,
        "contract": "contracts/NGP.sol:NGP",
        "label": "genesisTs",
        "offset": 0,
        "slot": "114",
        "type": "t_uint256"
      },
      {
        "astId": 1277,
        "contract": "contracts/NGP.sol:NGP",
        "label": "activeMinters",
        "offset": 0,
        "slot": "115",
        "type": "t_uint256"
      },
      {
        "astId": 1279,
        "contract": "contracts/NGP.sol:NGP",
        "label": "activeNumbers",
        "offset": 0,
        "slot": "116",
        "type": "t_uint256"
      },
      {
        "astId": 1281,
        "contract": "contracts/NGP.sol:NGP",
        "label": "claimMints",
        "offset": 0,
        "slot": "117",
        "type": "t_uint256"
      },
      {
        "astId": 1283,
        "contract": "contracts/NGP.sol:NGP",
        "label": "maxMeshHeats",
        "offset": 0,
        "slot": "118",
        "type": "t_uint256"
      },
      {
        "astId": 1285,
        "contract": "contracts/NGP.sol:NGP",
        "label": "destructions",
        "offset": 0,
        "slot": "119",
        "type": "t_uint256"
      },
      {
        "astId": 1287,
        "contract": "contracts/NGP.sol:NGP",
        "label": "SECONDS_IN_DAY",
        "offset": 0,
        "slot": "120",
        "type": "t_uint256"
      },
      {
        "astId": 1296,
        "contract": "contracts/NGP.sol:NGP",
        "label": "apy",
        "offset": 0,
        "slot": "121",
        "type": "t_uint256"
      },
      {
        "astId": 1298,
        "contract": "contracts/NGP.sol:NGP",
        "label": "activeStakes",
        "offset": 0,
        "slot": "122",
        "type": "t_uint256"
      },
      {
        "astId": 1300,
        "contract": "contracts/NGP.sol:NGP",
        "label": "totalNGPStaked",
        "offset": 0,
        "slot": "123",
        "type": "t_uint256"
      },
      {
        "astId": 1302,
        "contract": "contracts/NGP.sol:NGP",
        "label": "totalEarn",
        "offset": 0,
        "slot": "124",
        "type": "t_uint256"
      },
      {
        "astId": 1307,
        "contract": "contracts/NGP.sol:NGP",
        "label": "userStakes",
        "offset": 0,
        "slot": "125",
        "type": "t_mapping(t_address,t_struct(StakeInfo)1294_storage)"
      },
      {
        "astId": 1311,
        "contract": "contracts/NGP.sol:NGP",
        "label": "dayClaims",
        "offset": 0,
        "slot": "126",
        "type": "t_mapping(t_uint256,t_uint256)"
      },
      {
        "astId": 1315,
        "contract": "contracts/NGP.sol:NGP",
        "label": "dayClaimed",
        "offset": 0,
        "slot": "127",
        "type": "t_mapping(t_uint256,t_bool)"
      },
      {
        "astId": 1317,
        "contract": "contracts/NGP.sol:NGP",
        "label": "treasuryValue",
        "offset": 0,
        "slot": "128",
        "type": "t_uint256"
      },
      {
        "astId": 1319,
        "contract": "contracts/NGP.sol:NGP",
        "label": "FoundationAddr",
        "offset": 0,
        "slot": "129",
        "type": "t_address"
      },
      {
        "astId": 1323,
        "contract": "contracts/NGP.sol:NGP",
        "label": "stakeValues",
        "offset": 0,
        "slot": "130",
        "type": "t_mapping(t_address,t_uint256)"
      },
      {
        "astId": 1327,
        "contract": "contracts/NGP.sol:NGP",
        "label": "dayReceived",
        "offset": 0,
        "slot": "131",
        "type": "t_mapping(t_uint256,t_uint256)"
      },
      {
        "astId": 1331,
        "contract": "contracts/NGP.sol:NGP",
        "label": "dayStaked",
        "offset": 0,
        "slot": "132",
        "type": "t_mapping(t_uint256,t_uint256)"
      },
      {
        "astId": 1335,
        "contract": "contracts/NGP.sol:NGP",
        "label": "dayUnStaked",
        "offset": 0,
        "slot": "133",
        "type": "t_mapping(t_uint256,t_uint256)"
      },
      {
        "astId": 1339,
        "contract": "contracts/NGP.sol:NGP",
        "label": "unWithdraws",
        "offset": 0,
        "slot": "134",
        "type": "t_mapping(t_address,t_uint256)"
      },
      {
        "astId": 1343,
        "contract": "contracts/NGP.sol:NGP",
        "label": "userWithdraws",
        "offset": 0,
        "slot": "135",
        "type": "t_mapping(t_address,t_uint256)"
      },
      {
        "astId": 1349,
        "contract": "contracts/NGP.sol:NGP",
        "label": "totalWithDraws",
        "offset": 0,
        "slot": "136",
        "type": "t_mapping(t_string_memory_ptr,t_mapping(t_address,t_uint256))"
      },
      {
        "astId": 1355,
        "contract": "contracts/NGP.sol:NGP",
        "label": "totalUnWithDraws",
        "offset": 0,
        "slot": "137",
        "type": "t_mapping(t_string_memory_ptr,t_mapping(t_address,t_uint256))"
      },
      {
        "astId": 1361,
        "contract": "contracts/NGP.sol:NGP",
        "label": "dayReceivedAmount",
        "offset": 0,
        "slot": "138",
        "type": "t_mapping(t_address,t_mapping(t_uint256,t_bool))"
      }
    ],
    "types": {
      "t_address": {
        "encoding": "inplace",
        "label": "address",
        "numberOfBytes": "20"
      },
      "t_array(t_address)dyn_storage": {
        "base": "t_address",
        "encoding": "dynamic_array",
        "label": "address[]",
        "numberOfBytes": "32"
      },
      "t_array(t_string_storage)dyn_storage": {
        "base": "t_string_storage",
        "encoding": "dynamic_array",
        "label": "string[]",
        "numberOfBytes": "32"
      },
      "t_array(t_uint256)45_storage": {
        "base": "t_uint256",
        "encoding": "inplace",
        "label": "uint256[45]",
        "numberOfBytes": "1440"
      },
      "t_array(t_uint256)50_storage": {
        "base": "t_uint256",
        "encoding": "inplace",
        "label": "uint256[50]",
        "numberOfBytes": "1600"
      },
      "t_bool": {
        "encoding": "inplace",
        "label": "bool",
        "numberOfBytes": "1"
      },
      "t_mapping(t_address,t_array(t_string_storage)dyn_storage)": {
        "encoding": "mapping",
        "key": "t_address",
        "label": "mapping(address => string[])",
        "numberOfBytes": "32",
        "value": "t_array(t_string_storage)dyn_storage"
      },
      "t_mapping(t_address,t_bool)": {
        "encoding": "mapping",
        "key": "t_address",
        "label": "mapping(address => bool)",
        "numberOfBytes": "32",
        "value": "t_bool"
      },
      "t_mapping(t_address,t_mapping(t_address,t_uint256))": {
        "encoding": "mapping",
        "key": "t_address",
        "label": "mapping(address => mapping(address => uint256))",
        "numberOfBytes": "32",
        "value": "t_mapping(t_address,t_uint256)"
      },
      "t_mapping(t_address,t_mapping(t_string_memory_ptr,t_struct(MintInfo)1223_storage))": {
        "encoding": "mapping",
        "key": "t_address",
        "label": "mapping(address => mapping(string => struct NGP.MintInfo))",
        "numberOfBytes": "32",
        "value": "t_mapping(t_string_memory_ptr,t_struct(MintInfo)1223_storage)"
      },
      "t_mapping(t_address,t_mapping(t_uint256,t_bool))": {
        "encoding": "mapping",
        "key": "t_address",
        "label": "mapping(address => mapping(uint256 => bool))",
        "numberOfBytes": "32",
        "value": "t_mapping(t_uint256,t_bool)"
      },
      "t_mapping(t_address,t_struct(StakeInfo)1294_storage)": {
        "encoding": "mapping",
        "key": "t_address",
        "label": "mapping(address => struct NGP.StakeInfo)",
        "numberOfBytes": "32",
        "value": "t_struct(StakeInfo)1294_storage"
      },
      "t_mapping(t_address,t_uint256)": {
        "encoding": "mapping",
        "key": "t_address",
        "label": "mapping(address => uint256)",
        "numberOfBytes": "32",
        "value": "t_uint256"
      },
      "t_mapping(t_string_memory_ptr,t_array(t_address)dyn_storage)": {
        "encoding": "mapping",
        "key": "t_string_memory_ptr",
        "label": "mapping(string => address[])",
        "numberOfBytes": "32",
        "value": "t_array(t_address)dyn_storage"
      },
      "t_mapping(t_string_memory_ptr,t_mapping(t_address,t_uint256))": {
        "encoding": "mapping",
        "key": "t_string_memory_ptr",
        "label": "mapping(string => mapping(address => uint256))",
        "numberOfBytes": "32",
        "value": "t_mapping(t_address,t_uint256)"
      },
      "t_mapping(t_string_memory_ptr,t_struct(MintInfo)1223_storage)": {
        "encoding": "mapping",
        "key": "t_string_memory_ptr",
        "label": "mapping(string => struct NGP.MintInfo)",
        "numberOfBytes": "32",
        "value": "t_struct(MintInfo)1223_storage"
      },
      "t_mapping(t_string_memory_ptr,t_uint256)": {
        "encoding": "mapping",
        "key": "t_string_memory_ptr",
        "label": "mapping(string => uint256)",
        "numberOfBytes": "32",
        "value": "t_uint256"
      },
      "t_mapping(t_uint256,t_bool)": {
        "encoding": "mapping",
        "key": "t_uint256",
        "label": "mapping(uint256 => bool)",
        "numberOfBytes": "32",
        "value": "t_bool"
      },
      "t_mapping(t_uint256,t_uint256)": {
        "encoding": "mapping",
        "key": "t_uint256",
        "label": "mapping(uint256 => uint256)",
        "numberOfBytes": "32",
        "value": "t_uint256"
      },
      "t_string_memory_ptr": {
        "encoding": "bytes",
        "label": "string",
        "numberOfBytes": "32"
      },
      "t_string_storage": {
        "encoding": "bytes",
        "label": "string",
        "numberOfBytes": "32"
      },
      "t_struct(MintInfo)1223_storage": {
        "encoding": "inplace",
        "label": "struct NGP.MintInfo",
        "members": [
          {
            "astId": 1216,
            "contract": "contracts/NGP.sol:NGP",
            "label": "user",
            "offset": 0,
            "slot": "0",
            "type": "t_address"
          },
          {
            "astId": 1218,
            "contract": "contracts/NGP.sol:NGP",
            "label": "number",
            "offset": 0,
            "slot": "1",
            "type": "t_string_storage"
          },
          {
            "astId": 1220,
            "contract": "contracts/NGP.sol:NGP",
            "label": "updateTs",
            "offset": 0,
            "slot": "2",
            "type": "t_uint256"
          },
          {
            "astId": 1222,
            "contract": "contracts/NGP.sol:NGP",
            "label": "withdrawTs",
            "offset": 0,
            "slot": "3",
            "type": "t_uint256"
          }
        ],
        "numberOfBytes": "128"
      },
      "t_struct(StakeInfo)1294_storage": {
        "encoding": "inplace",
        "label": "struct NGP.StakeInfo",
        "members": [
          {
            "astId": 1289,
            "contract": "contracts/NGP.sol:NGP",
            "label": "term",
            "offset": 0,
            "slot": "0",
            "type": "t_uint256"
          },
          {
            "astId": 1291,
            "contract": "contracts/NGP.sol:NGP",
            "label": "maturityTs",
            "offset": 0,
            "slot": "1",
            "type": "t_uint256"
          },
          {
            "astId": 1293,
            "contract": "contracts/NGP.sol:NGP",
            "label": "amount",
            "offset": 0,
            "slot": "2",
            "type": "t_uint256"
          }
        ],
        "numberOfBytes": "96"
      },
      "t_uint256": {
        "encoding": "inplace",
        "label": "uint256",
        "numberOfBytes": "32"
      },
      "t_uint8": {
        "encoding": "inplace",
        "label": "uint8",
        "numberOfBytes": "1"
      }
    }
  }
}