{
  "address": "0xA358766b8E050bd6d8037109aAe444c24e784Da8",
  "abi": [
    {
      "anonymous": false,
      "inputs": [
        {
          "indexed": true,
          "internalType": "address",
          "name": "owner",
          "type": "address"
        },
        {
          "indexed": true,
          "internalType": "address",
          "name": "spender",
          "type": "address"
        },
        {
          "indexed": false,
          "internalType": "uint256",
          "name": "value",
          "type": "uint256"
        }
      ],
      "name": "Approval",
      "type": "event"
    },
    {
      "anonymous": false,
      "inputs": [
        {
          "indexed": false,
          "internalType": "address",
          "name": "user",
          "type": "address"
        },
        {
          "indexed": false,
          "internalType": "string",
          "name": "number",
          "type": "string"
        },
        {
          "indexed": false,
          "internalType": "uint256",
          "name": "time",
          "type": "uint256"
        }
      ],
      "name": "ClaimMint",
      "type": "event"
    },
    {
      "anonymous": false,
      "inputs": [
        {
          "indexed": false,
          "internalType": "address",
          "name": "user",
          "type": "address"
        },
        {
          "indexed": false,
          "internalType": "string",
          "name": "number",
          "type": "string"
        },
        {
          "indexed": false,
          "internalType": "uint256",
          "name": "time",
          "type": "uint256"
        }
      ],
      "name": "ClaimMintReward",
      "type": "event"
    },
    {
      "anonymous": false,
      "inputs": [
        {
          "indexed": false,
          "internalType": "string",
          "name": "number",
          "type": "string"
        },
        {
          "indexed": false,
          "internalType": "uint256",
          "name": "heat",
          "type": "uint256"
        },
        {
          "indexed": false,
          "internalType": "uint256",
          "name": "len",
          "type": "uint256"
        }
      ],
      "name": "DegreeHeats",
      "type": "event"
    },
    {
      "anonymous": false,
      "inputs": [
        {
          "indexed": false,
          "internalType": "uint8",
          "name": "version",
          "type": "uint8"
        }
      ],
      "name": "Initialized",
      "type": "event"
    },
    {
      "anonymous": false,
      "inputs": [
        {
          "indexed": true,
          "internalType": "address",
          "name": "user",
          "type": "address"
        },
        {
          "indexed": false,
          "internalType": "uint256",
          "name": "amount",
          "type": "uint256"
        },
        {
          "indexed": false,
          "internalType": "uint256",
          "name": "term",
          "type": "uint256"
        }
      ],
      "name": "Staked",
      "type": "event"
    },
    {
      "anonymous": false,
      "inputs": [
        {
          "indexed": true,
          "internalType": "address",
          "name": "from",
          "type": "address"
        },
        {
          "indexed": true,
          "internalType": "address",
          "name": "to",
          "type": "address"
        },
        {
          "indexed": false,
          "internalType": "uint256",
          "name": "value",
          "type": "uint256"
        }
      ],
      "name": "Transfer",
      "type": "event"
    },
    {
      "anonymous": false,
      "inputs": [
        {
          "indexed": true,
          "internalType": "address",
          "name": "user",
          "type": "address"
        },
        {
          "indexed": false,
          "internalType": "uint256",
          "name": "amount",
          "type": "uint256"
        },
        {
          "indexed": false,
          "internalType": "uint256",
          "name": "reward",
          "type": "uint256"
        }
      ],
      "name": "Withdrawn",
      "type": "event"
    },
    {
      "inputs": [],
      "name": "FoundationAddr",
      "outputs": [
        {
          "internalType": "address",
          "name": "",
          "type": "address"
        }
      ],
      "stateMutability": "view",
      "type": "function"
    },
    {
      "inputs": [
        {
          "internalType": "address",
          "name": "user",
          "type": "address"
        },
        {
          "internalType": "uint256",
          "name": "amount",
          "type": "uint256"
        }
      ],
      "name": "MintGNP",
      "outputs": [],
      "stateMutability": "nonpayable",
      "type": "function"
    },
    {
      "inputs": [],
      "name": "SECONDS_IN_DAY",
      "outputs": [
        {
          "internalType": "uint256",
          "name": "",
          "type": "uint256"
        }
      ],
      "stateMutability": "view",
      "type": "function"
    },
    {
      "inputs": [],
      "name": "activeMinters",
      "outputs": [
        {
          "internalType": "uint256",
          "name": "",
          "type": "uint256"
        }
      ],
      "stateMutability": "view",
      "type": "function"
    },
    {
      "inputs": [],
      "name": "activeNumbers",
      "outputs": [
        {
          "internalType": "uint256",
          "name": "",
          "type": "uint256"
        }
      ],
      "stateMutability": "view",
      "type": "function"
    },
    {
      "inputs": [],
      "name": "activeStakes",
      "outputs": [
        {
          "internalType": "uint256",
          "name": "",
          "type": "uint256"
        }
      ],
      "stateMutability": "view",
      "type": "function"
    },
    {
      "inputs": [],
      "name": "addSpendNonce",
      "outputs": [],
      "stateMutability": "nonpayable",
      "type": "function"
    },
    {
      "inputs": [
        {
          "internalType": "address",
          "name": "owner",
          "type": "address"
        },
        {
          "internalType": "address",
          "name": "spender",
          "type": "address"
        }
      ],
      "name": "allowance",
      "outputs": [
        {
          "internalType": "uint256",
          "name": "",
          "type": "uint256"
        }
      ],
      "stateMutability": "view",
      "type": "function"
    },
    {
      "inputs": [
        {
          "internalType": "address",
          "name": "spender",
          "type": "address"
        },
        {
          "internalType": "uint256",
          "name": "amount",
          "type": "uint256"
        }
      ],
      "name": "approve",
      "outputs": [
        {
          "internalType": "bool",
          "name": "",
          "type": "bool"
        }
      ],
      "stateMutability": "nonpayable",
      "type": "function"
    },
    {
      "inputs": [],
      "name": "apy",
      "outputs": [
        {
          "internalType": "uint256",
          "name": "",
          "type": "uint256"
        }
      ],
      "stateMutability": "view",
      "type": "function"
    },
    {
      "inputs": [
        {
          "internalType": "address",
          "name": "account",
          "type": "address"
        }
      ],
      "name": "balanceOf",
      "outputs": [
        {
          "internalType": "uint256",
          "name": "",
          "type": "uint256"
        }
      ],
      "stateMutability": "view",
      "type": "function"
    },
    {
      "inputs": [
        {
          "internalType": "string",
          "name": "_number",
          "type": "string"
        }
      ],
      "name": "claimMint",
      "outputs": [],
      "stateMutability": "nonpayable",
      "type": "function"
    },
    {
      "inputs": [
        {
          "internalType": "address",
          "name": "_user",
          "type": "address"
        },
        {
          "internalType": "uint256",
          "name": "_amount",
          "type": "uint256"
        },
        {
          "internalType": "uint8[]",
          "name": "vs",
          "type": "uint8[]"
        },
        {
          "internalType": "bytes32[]",
          "name": "rs",
          "type": "bytes32[]"
        },
        {
          "internalType": "bytes32[]",
          "name": "ss",
          "type": "bytes32[]"
        }
      ],
      "name": "claimMintReward",
      "outputs": [],
      "stateMutability": "nonpayable",
      "type": "function"
    },
    {
      "inputs": [],
      "name": "claimMints",
      "outputs": [
        {
          "internalType": "uint256",
          "name": "",
          "type": "uint256"
        }
      ],
      "stateMutability": "view",
      "type": "function"
    },
    {
      "inputs": [
        {
          "internalType": "uint256",
          "name": "",
          "type": "uint256"
        }
      ],
      "name": "dayClaimed",
      "outputs": [
        {
          "internalType": "bool",
          "name": "",
          "type": "bool"
        }
      ],
      "stateMutability": "view",
      "type": "function"
    },
    {
      "inputs": [
        {
          "internalType": "uint256",
          "name": "",
          "type": "uint256"
        }
      ],
      "name": "dayClaims",
      "outputs": [
        {
          "internalType": "uint256",
          "name": "",
          "type": "uint256"
        }
      ],
      "stateMutability": "view",
      "type": "function"
    },
    {
      "inputs": [
        {
          "internalType": "uint256",
          "name": "",
          "type": "uint256"
        }
      ],
      "name": "dayReceived",
      "outputs": [
        {
          "internalType": "uint256",
          "name": "",
          "type": "uint256"
        }
      ],
      "stateMutability": "view",
      "type": "function"
    },
    {
      "inputs": [
        {
          "internalType": "uint256",
          "name": "",
          "type": "uint256"
        }
      ],
      "name": "dayStaked",
      "outputs": [
        {
          "internalType": "uint256",
          "name": "",
          "type": "uint256"
        }
      ],
      "stateMutability": "view",
      "type": "function"
    },
    {
      "inputs": [],
      "name": "daySupply",
      "outputs": [
        {
          "internalType": "uint256",
          "name": "",
          "type": "uint256"
        }
      ],
      "stateMutability": "view",
      "type": "function"
    },
    {
      "inputs": [
        {
          "internalType": "uint256",
          "name": "",
          "type": "uint256"
        }
      ],
      "name": "dayUnStaked",
      "outputs": [
        {
          "internalType": "uint256",
          "name": "",
          "type": "uint256"
        }
      ],
      "stateMutability": "view",
      "type": "function"
    },
    {
      "inputs": [],
      "name": "decimals",
      "outputs": [
        {
          "internalType": "uint8",
          "name": "",
          "type": "uint8"
        }
      ],
      "stateMutability": "view",
      "type": "function"
    },
    {
      "inputs": [
        {
          "internalType": "address",
          "name": "spender",
          "type": "address"
        },
        {
          "internalType": "uint256",
          "name": "subtractedValue",
          "type": "uint256"
        }
      ],
      "name": "decreaseAllowance",
      "outputs": [
        {
          "internalType": "bool",
          "name": "",
          "type": "bool"
        }
      ],
      "stateMutability": "nonpayable",
      "type": "function"
    },
    {
      "inputs": [
        {
          "internalType": "string",
          "name": "",
          "type": "string"
        }
      ],
      "name": "degreeHeats",
      "outputs": [
        {
          "internalType": "uint256",
          "name": "",
          "type": "uint256"
        }
      ],
      "stateMutability": "view",
      "type": "function"
    },
    {
      "inputs": [],
      "name": "destructions",
      "outputs": [
        {
          "internalType": "uint256",
          "name": "",
          "type": "uint256"
        }
      ],
      "stateMutability": "view",
      "type": "function"
    },
    {
      "inputs": [],
      "name": "genesisTs",
      "outputs": [
        {
          "internalType": "uint256",
          "name": "",
          "type": "uint256"
        }
      ],
      "stateMutability": "view",
      "type": "function"
    },
    {
      "inputs": [],
      "name": "getEarthDashboard",
      "outputs": [
        {
          "internalType": "uint256",
          "name": "_totalSupply",
          "type": "uint256"
        },
        {
          "internalType": "uint256",
          "name": "liquidSupply",
          "type": "uint256"
        },
        {
          "internalType": "uint256",
          "name": "destruction",
          "type": "uint256"
        },
        {
          "internalType": "uint256",
          "name": "totalStaked",
          "type": "uint256"
        },
        {
          "internalType": "uint256",
          "name": "treasury",
          "type": "uint256"
        },
        {
          "internalType": "uint256",
          "name": "foundation",
          "type": "uint256"
        }
      ],
      "stateMutability": "view",
      "type": "function"
    },
    {
      "inputs": [],
      "name": "getMeshDashboard",
      "outputs": [
        {
          "internalType": "uint256",
          "name": "participants",
          "type": "uint256"
        },
        {
          "internalType": "uint256",
          "name": "totalclaimMints",
          "type": "uint256"
        },
        {
          "internalType": "uint256",
          "name": "claimedMesh",
          "type": "uint256"
        },
        {
          "internalType": "uint256",
          "name": "maxHeats",
          "type": "uint256"
        },
        {
          "internalType": "uint256",
          "name": "sinceGenesis",
          "type": "uint256"
        }
      ],
      "stateMutability": "view",
      "type": "function"
    },
    {
      "inputs": [],
      "name": "getMeshData",
      "outputs": [
        {
          "internalType": "uint256",
          "name": "userCounts",
          "type": "uint256"
        },
        {
          "internalType": "uint256",
          "name": "launchData",
          "type": "uint256"
        },
        {
          "internalType": "uint256",
          "name": "totalMinted",
          "type": "uint256"
        },
        {
          "internalType": "uint256",
          "name": "liquidSupply",
          "type": "uint256"
        }
      ],
      "stateMutability": "view",
      "type": "function"
    },
    {
      "inputs": [],
      "name": "getNetworkEvents",
      "outputs": [
        {
          "internalType": "uint256",
          "name": "_genesisTs",
          "type": "uint256"
        },
        {
          "internalType": "uint256[]",
          "name": "_received",
          "type": "uint256[]"
        },
        {
          "internalType": "uint256[]",
          "name": "_staked",
          "type": "uint256[]"
        },
        {
          "internalType": "uint256[]",
          "name": "_unstaked",
          "type": "uint256[]"
        }
      ],
      "stateMutability": "view",
      "type": "function"
    },
    {
      "inputs": [
        {
          "internalType": "address",
          "name": "_user",
          "type": "address"
        },
        {
          "internalType": "uint256",
          "name": "_amountA",
          "type": "uint256"
        },
        {
          "internalType": "uint256",
          "name": "_amountB",
          "type": "uint256"
        }
      ],
      "name": "getRewardAmount",
      "outputs": [
        {
          "internalType": "uint256",
          "name": "_userTotalAmount",
          "type": "uint256"
        },
        {
          "internalType": "uint256",
          "name": "_userWithdraw",
          "type": "uint256"
        },
        {
          "internalType": "uint256",
          "name": "_userUnWithdraw",
          "type": "uint256"
        }
      ],
      "stateMutability": "view",
      "type": "function"
    },
    {
      "inputs": [],
      "name": "getSpendNonce",
      "outputs": [
        {
          "internalType": "uint256",
          "name": "",
          "type": "uint256"
        }
      ],
      "stateMutability": "view",
      "type": "function"
    },
    {
      "inputs": [
        {
          "internalType": "address",
          "name": "_user",
          "type": "address"
        }
      ],
      "name": "getStakeInfo",
      "outputs": [
        {
          "internalType": "uint256",
          "name": "tvl",
          "type": "uint256"
        },
        {
          "internalType": "uint256",
          "name": "revenue",
          "type": "uint256"
        },
        {
          "internalType": "uint256",
          "name": "earned",
          "type": "uint256"
        },
        {
          "internalType": "uint256",
          "name": "claimable",
          "type": "uint256"
        },
        {
          "internalType": "uint256",
          "name": "totalApy",
          "type": "uint256"
        },
        {
          "internalType": "uint256",
          "name": "staked",
          "type": "uint256"
        },
        {
          "internalType": "uint256",
          "name": "totalEarnValue",
          "type": "uint256"
        },
        {
          "internalType": "uint256",
          "name": "offEarthStake",
          "type": "uint256"
        }
      ],
      "stateMutability": "view",
      "type": "function"
    },
    {
      "inputs": [
        {
          "internalType": "address",
          "name": "user",
          "type": "address"
        }
      ],
      "name": "getStakeTime",
      "outputs": [
        {
          "internalType": "uint256",
          "name": "ts",
          "type": "uint256"
        }
      ],
      "stateMutability": "view",
      "type": "function"
    },
    {
      "inputs": [
        {
          "internalType": "address",
          "name": "spender",
          "type": "address"
        },
        {
          "internalType": "uint256",
          "name": "addedValue",
          "type": "uint256"
        }
      ],
      "name": "increaseAllowance",
      "outputs": [
        {
          "internalType": "bool",
          "name": "",
          "type": "bool"
        }
      ],
      "stateMutability": "nonpayable",
      "type": "function"
    },
    {
      "inputs": [
        {
          "internalType": "address[]",
          "name": "_owners",
          "type": "address[]"
        },
        {
          "internalType": "uint256",
          "name": "_apy",
          "type": "uint256"
        },
        {
          "internalType": "address",
          "name": "_foundationAddr",
          "type": "address"
        }
      ],
      "name": "initialize",
      "outputs": [],
      "stateMutability": "nonpayable",
      "type": "function"
    },
    {
      "inputs": [],
      "name": "maxMeshHeats",
      "outputs": [
        {
          "internalType": "uint256",
          "name": "",
          "type": "uint256"
        }
      ],
      "stateMutability": "view",
      "type": "function"
    },
    {
      "inputs": [],
      "name": "name",
      "outputs": [
        {
          "internalType": "string",
          "name": "",
          "type": "string"
        }
      ],
      "stateMutability": "view",
      "type": "function"
    },
    {
      "inputs": [
        {
          "internalType": "address",
          "name": "",
          "type": "address"
        }
      ],
      "name": "rankWithdrawAmount",
      "outputs": [
        {
          "internalType": "uint256",
          "name": "",
          "type": "uint256"
        }
      ],
      "stateMutability": "view",
      "type": "function"
    },
    {
      "inputs": [
        {
          "internalType": "uint256",
          "name": "amount",
          "type": "uint256"
        },
        {
          "internalType": "uint256",
          "name": "term",
          "type": "uint256"
        }
      ],
      "name": "stake",
      "outputs": [],
      "stateMutability": "nonpayable",
      "type": "function"
    },
    {
      "inputs": [
        {
          "internalType": "address",
          "name": "",
          "type": "address"
        }
      ],
      "name": "stakeValues",
      "outputs": [
        {
          "internalType": "uint256",
          "name": "",
          "type": "uint256"
        }
      ],
      "stateMutability": "view",
      "type": "function"
    },
    {
      "inputs": [],
      "name": "symbol",
      "outputs": [
        {
          "internalType": "string",
          "name": "",
          "type": "string"
        }
      ],
      "stateMutability": "view",
      "type": "function"
    },
    {
      "inputs": [],
      "name": "totalEarn",
      "outputs": [
        {
          "internalType": "uint256",
          "name": "",
          "type": "uint256"
        }
      ],
      "stateMutability": "view",
      "type": "function"
    },
    {
      "inputs": [],
      "name": "totalNGPStaked",
      "outputs": [
        {
          "internalType": "uint256",
          "name": "",
          "type": "uint256"
        }
      ],
      "stateMutability": "view",
      "type": "function"
    },
    {
      "inputs": [],
      "name": "totalSupply",
      "outputs": [
        {
          "internalType": "uint256",
          "name": "",
          "type": "uint256"
        }
      ],
      "stateMutability": "view",
      "type": "function"
    },
    {
      "inputs": [
        {
          "internalType": "address",
          "name": "to",
          "type": "address"
        },
        {
          "internalType": "uint256",
          "name": "amount",
          "type": "uint256"
        }
      ],
      "name": "transfer",
      "outputs": [
        {
          "internalType": "bool",
          "name": "",
          "type": "bool"
        }
      ],
      "stateMutability": "nonpayable",
      "type": "function"
    },
    {
      "inputs": [
        {
          "internalType": "address",
          "name": "from",
          "type": "address"
        },
        {
          "internalType": "address",
          "name": "to",
          "type": "address"
        },
        {
          "internalType": "uint256",
          "name": "amount",
          "type": "uint256"
        }
      ],
      "name": "transferFrom",
      "outputs": [
        {
          "internalType": "bool",
          "name": "",
          "type": "bool"
        }
      ],
      "stateMutability": "nonpayable",
      "type": "function"
    },
    {
      "inputs": [],
      "name": "treasuryValue",
      "outputs": [
        {
          "internalType": "uint256",
          "name": "",
          "type": "uint256"
        }
      ],
      "stateMutability": "view",
      "type": "function"
    },
    {
      "inputs": [
        {
          "internalType": "address",
          "name": "",
          "type": "address"
        }
      ],
      "name": "unWithDrawAmount",
      "outputs": [
        {
          "internalType": "uint256",
          "name": "",
          "type": "uint256"
        }
      ],
      "stateMutability": "view",
      "type": "function"
    },
    {
      "inputs": [
        {
          "internalType": "address",
          "name": "",
          "type": "address"
        }
      ],
      "name": "unWithdraws",
      "outputs": [
        {
          "internalType": "uint256",
          "name": "",
          "type": "uint256"
        }
      ],
      "stateMutability": "view",
      "type": "function"
    },
    {
      "inputs": [
        {
          "internalType": "string",
          "name": "",
          "type": "string"
        },
        {
          "internalType": "uint256",
          "name": "",
          "type": "uint256"
        }
      ],
      "name": "userApplys",
      "outputs": [
        {
          "internalType": "address",
          "name": "",
          "type": "address"
        }
      ],
      "stateMutability": "view",
      "type": "function"
    },
    {
      "inputs": [
        {
          "internalType": "address",
          "name": "",
          "type": "address"
        },
        {
          "internalType": "string",
          "name": "",
          "type": "string"
        }
      ],
      "name": "userMints",
      "outputs": [
        {
          "internalType": "address",
          "name": "user",
          "type": "address"
        },
        {
          "internalType": "string",
          "name": "number",
          "type": "string"
        },
        {
          "internalType": "uint256",
          "name": "updateTs",
          "type": "uint256"
        },
        {
          "internalType": "uint256",
          "name": "withdrawTs",
          "type": "uint256"
        }
      ],
      "stateMutability": "view",
      "type": "function"
    },
    {
      "inputs": [
        {
          "internalType": "address",
          "name": "",
          "type": "address"
        },
        {
          "internalType": "uint256",
          "name": "",
          "type": "uint256"
        }
      ],
      "name": "userNumbers",
      "outputs": [
        {
          "internalType": "string",
          "name": "",
          "type": "string"
        }
      ],
      "stateMutability": "view",
      "type": "function"
    },
    {
      "inputs": [
        {
          "internalType": "address",
          "name": "",
          "type": "address"
        }
      ],
      "name": "userStakes",
      "outputs": [
        {
          "internalType": "uint256",
          "name": "term",
          "type": "uint256"
        },
        {
          "internalType": "uint256",
          "name": "maturityTs",
          "type": "uint256"
        },
        {
          "internalType": "uint256",
          "name": "amount",
          "type": "uint256"
        }
      ],
      "stateMutability": "view",
      "type": "function"
    },
    {
      "inputs": [
        {
          "internalType": "address",
          "name": "",
          "type": "address"
        }
      ],
      "name": "userWithdraws",
      "outputs": [
        {
          "internalType": "uint256",
          "name": "",
          "type": "uint256"
        }
      ],
      "stateMutability": "view",
      "type": "function"
    },
    {
      "inputs": [
        {
          "internalType": "address",
          "name": "_sender",
          "type": "address"
        },
        {
          "internalType": "uint8[]",
          "name": "vs",
          "type": "uint8[]"
        },
        {
          "internalType": "bytes32[]",
          "name": "rs",
          "type": "bytes32[]"
        },
        {
          "internalType": "bytes32[]",
          "name": "ss",
          "type": "bytes32[]"
        }
      ],
      "name": "validSignature",
      "outputs": [
        {
          "internalType": "bool",
          "name": "",
          "type": "bool"
        }
      ],
      "stateMutability": "view",
      "type": "function"
    },
    {
      "inputs": [],
      "name": "withdraw",
      "outputs": [],
      "stateMutability": "nonpayable",
      "type": "function"
    },
    {
      "inputs": [
        {
          "internalType": "address",
          "name": "",
          "type": "address"
        }
      ],
      "name": "withdrawAmount",
      "outputs": [
        {
          "internalType": "uint256",
          "name": "",
          "type": "uint256"
        }
      ],
      "stateMutability": "view",
      "type": "function"
    }
  ],
  "transactionHash": "0xe9cf4d4cbfefb5ba39b57eaada5ba272c9181e4450e2fc1a824f29c74b778f16",
  "args": [],
  "numDeployments": 5,
  "solcInputHash": "c2efbc44746f67e4beb4521b26c7df33",
  "bytecode": "0x608060405234801561001057600080fd5b50613bba806100206000396000f3fe608060405234801561001057600080fd5b50600436106103835760003560e01c8063890d3b27116101de578063c293d09b1161010f578063e3af6d0a116100ad578063ed2f23691161007c578063ed2f23691461088f578063f01d110c14610898578063f9a18ba5146108a1578063fb1c8b9f146108c157600080fd5b8063e3af6d0a14610823578063e3c41c4e1461082c578063e9cabce71461085c578063ebcdbc2d1461086f57600080fd5b8063cb48e3c6116100e9578063cb48e3c6146107c7578063cb92ef4a146107e7578063dd62ed3e14610807578063dffd722f1461081a57600080fd5b8063c293d09b1461075e578063c345315314610771578063c6a2a9f1146107bf57600080fd5b8063a457c2d71161017c578063a9059cbb11610156578063a9059cbb146106fa578063b4800cdc1461070d578063bcfd8dbf14610716578063c18fab141461072957600080fd5b8063a457c2d7146106b6578063a6734715146106c9578063a6a5ff92146106d257600080fd5b80638ed4064a116101b85780638ed4064a1461066d578063903993181461067657806395d89b411461068e5780639d0c0f231461069657600080fd5b8063890d3b27146105f35780638d6b6a591461061e5780638da7ad231461063e57600080fd5b80633bcfc4b8116102b85780635f7bb9321161025657806370a082311161023057806370a082311461059157806372483bf9146105ba5780637b0472f0146105cd5780638283cef6146105e057600080fd5b80635f7bb9321461054557806361a52a36146105655780636e5d82801461056e57600080fd5b80634c2346fa116102925780634c2346fa146104db5780634f420151146104ee578063573de1ff1461050e5780635cad385c1461053c57600080fd5b80633bcfc4b8146104c15780633ccfd60b146104ca5780633d7af48f146104d257600080fd5b80631c02b1f4116103255780632c2d0a0c116102ff5780632c2d0a0c14610477578063313ce5671461049757806339509351146104a65780633adfe5ea146104b957600080fd5b80631c02b1f4146104305780631dca03bc1461043957806323b872dd1461046457600080fd5b80630bfbba01116103615780630bfbba01146103e05780630ffcccff146103f3578063130662401461041357806318160ddd1461042857600080fd5b806306fdde0314610388578063095ea7b3146103a65780630aedb5ba146103c9575b600080fd5b6103906108e4565b60405161039d9190613237565b60405180910390f35b6103b96103b4366004613266565b610976565b604051901515815260200161039d565b6103d260655481565b60405190815260200161039d565b6103906103ee366004613266565b610990565b6103d2610401366004613290565b60836020526000908152604090205481565b61042661042136600461335e565b610a49565b005b6035546103d2565b6103d260765481565b6103d261044736600461335e565b805160208183018101805160688252928201919093012091525481565b6103b961047236600461339a565b6111a0565b6103d2610485366004613290565b60856020526000908152604090205481565b6040516012815260200161039d565b6103b96104b4366004613266565b6111c6565b6104266111e8565b6103d260795481565b6104266111ff565b6103d260745481565b6103b96104e93660046134cf565b6113c6565b6103d26104fc366004613567565b606a6020526000908152604090205481565b61052161051c366004613582565b6116aa565b6040805193845260208401929092529082015260600161039d565b6103d260775481565b6103d2610553366004613567565b60826020526000908152604090205481565b6103d260785481565b6103b961057c366004613290565b607f6020526000908152604090205460ff1681565b6103d261059f366004613567565b6001600160a01b031660009081526033602052604090205490565b6104266105c83660046135b5565b61194e565b6104266105db366004613640565b611bcf565b6104266105ee366004613266565b611da1565b608154610606906001600160a01b031681565b6040516001600160a01b03909116815260200161039d565b6103d261062c366004613567565b60866020526000908152604090205481565b61052161064c366004613567565b607d6020526000908152604090208054600182015460029092015490919083565b6103d2607b5481565b61067e611daf565b60405161039d949392919061369d565b610390611f5d565b6103d26106a4366004613567565b60876020526000908152604090205481565b6103b96106c4366004613266565b611f6c565b6103d260755481565b6106da611ff2565b60408051948552602085019390935291830152606082015260800161039d565b6103b9610708366004613266565b612048565b6103d260735481565b6103d2610724366004613567565b612056565b610731612099565b604080519687526020870195909552938501929092526060840152608083015260a082015260c00161039d565b61060661076c3660046136e7565b6120fe565b61078461077f366004613567565b612145565b604080519889526020890197909752958701949094526060860192909252608085015260a084015260c083015260e08201526101000161039d565b606e546103d2565b6103d26107d5366004613567565b606b6020526000908152604090205481565b6103d26107f5366004613290565b607e6020526000908152604090205481565b6103d261081536600461372b565b61223b565b6103d2607c5481565b6103d260725481565b610834612266565b604080519586526020860194909452928401919091526060830152608082015260a00161039d565b61042661086a36600461375e565b612299565b6103d261087d366004613290565b60846020526000908152604090205481565b6103d2607a5481565b6103d260805481565b6103d26108af366004613567565b606c6020526000908152604090205481565b6108d46108cf366004613800565b6127dc565b60405161039d949392919061384d565b6060603680546108f390613884565b80601f016020809104026020016040519081016040528092919081815260200182805461091f90613884565b801561096c5780601f106109415761010080835404028352916020019161096c565b820191906000526020600020905b81548152906001019060200180831161094f57829003601f168201915b5050505050905090565b6000336109848185856128b3565b60019150505b92915050565b606960205281600052604060002081815481106109ac57600080fd5b906000526020600020016000915091505080546109c890613884565b80601f01602080910402602001604051908101604052809291908181526020018280546109f490613884565b8015610a415780601f10610a1657610100808354040283529160200191610a41565b820191906000526020600020905b815481529060010190602001808311610a2457829003601f168201915b505050505081565b336000908152606660205260408082209051610a669084906138bf565b9081526040805191829003602090810183206080840190925281546001600160a01b0316835260018201805491840191610a9f90613884565b80601f0160208091040260200160405190810160405280929190818152602001828054610acb90613884565b8015610b185780601f10610aed57610100808354040283529160200191610b18565b820191906000526020600020905b815481529060010190602001808311610afb57829003601f168201915b505050505081526020016002820154815260200160038201548152505090508060400151600014610b905760405162461bcd60e51b815260206004820152601e60248201527f6d4e47503a204d696e7420616c726561647920696e2070726f6772657373000060448201526064015b60405180910390fd5b6000606783604051610ba291906138bf565b9081526040519081900360200190205490508015610c0a576000606884604051610bcc91906138bf565b90815260200160405180910390205490508060776000828254610bef91906138f1565b90915550508015610c0457610c0433826129d8565b50610c20565b60748054906000610c1a83613909565b91905055505b6020808301849052338084524260408086018290526060860191909152600091825260669092528190209051839190610c5a9086906138bf565b90815260405160209181900382019020825181546001600160a01b0319166001600160a01b039091161781558282015180519192610ca092600185019290910190613146565b506040820151600282015560609091015160039091015560005b606784604051610cca91906138bf565b90815260405190819003602001902054811015610eb1576000606785604051610cf391906138bf565b90815260200160405180910390208281548110610d1257610d12613924565b60009182526020808320909101546078546001600160a01b039091168084526066909252604080842090519294509091610d4d9089906138bf565b90815260200160405180910390206003015442610d6a919061393a565b610d749190613951565b9050600084610d8583611a0b613973565b610d949064174876e800613973565b610d9e9190613951565b90506001821115610e9b576000610db660018461393a565b610dc1906002613a76565b610dcb9083613951565b610dd6836002613973565b610de0919061393a565b6001600160a01b0385166000908152606660205260409081902090519192504291610e0c908b906138bf565b90815260405190819003602001902060030155610e2a60018461393a565b610e35906002613a76565b610e3f9082613951565b6001600160a01b03851660009081526086602052604081208054909190610e679084906138f1565b90915550506001600160a01b0384166000908152606a602052604081208054839290610e949084906138f1565b9091555050505b5050508080610ea990613909565b915050610cba565b50606783604051610ec291906138bf565b90815260405190819003602090810182208054600181018255600091825291812090910180546001600160a01b0319163317905590606790610f059086906138bf565b9081526040519081900360200190205490506000610f24826064613a76565b610f2f83606a613a76565b610f3b90611a0b613973565b610f4a9064174876e800613973565b610f549190613951565b905080606886604051610f6791906138bf565b9081526020016040518091039020819055507fe5c486bee358a5fff5e4d70dc5fdaaf14806df125ffde843a8c40db608264812858284604051610fac93929190613a82565b60405180910390a1607654811115610fc45760768190555b33600090815260696020908152604082208054600181018255908352918190208751610ff7939190910191880190613146565b50336000908152606d602052604090205460ff1661103f576073805490600061101f83613909565b9091555050336000908152606d60205260409020805460ff191660011790555b60006078544261104f9190613951565b9050607f600061106060018461393a565b815260208101919091526040016000205460ff1615801561109b575060785461108a906003613973565b60725461109791906138f1565b4210155b15611148576074546110b1906307b98a0061393a565b6110bd90611a0b613973565b607e60006110cc60028561393a565b815260200190815260200160002054611a0b6110e8919061393a565b6110f291906138f1565b6111019064174876e800613973565b6080600082825461111291906138f1565b9091555060019050607f6000611128838561393a565b81526020810191909152604001600020805460ff19169115159190911790555b6075805490600061115883613909565b91905055507f1309ab74031e37b46ee8ce9ff667a17a5c69a500a05d167e4c89ad8b0bc40bf933874260405161119093929190613aa7565b60405180910390a1505050505050565b6000336111ae858285612b09565b6111b9858585612b83565b60019150505b9392505050565b6000336109848185856111d9838361223b565b6111e391906138f1565b6128b3565b606e80549060006111f883613909565b9190505550565b336000908152607d602090815260409182902082516060810184528154815260018201549281019290925260020154918101829052906112785760405162461bcd60e51b81526020600482015260146024820152734e47503a206e6f207374616b652065786973747360601b6044820152606401610b87565b6000611291826040015183600001518460200151612d2e565b905060008183604001516112a591906138f1565b90506000607854607254426112ba919061393a565b6112c49190613951565b336000908152608260205260408120805492935085929091906112e89084906138f1565b9250508190555082607c600082825461130191906138f1565b9091555050607a805490600061131683613adb565b91905055508360400151607b6000828254611331919061393a565b9091555050600081815260856020526040812080548492906113549084906138f1565b9091555061136490503383612d73565b60408085015181519081526020810185905233917f92ccf450a286a957af52509bc1c9939d1a6a481783e142e41e2499f0bb66ebc6910160405180910390a25050336000908152607d6020526040812081815560018101829055600201555050565b600082518451146114125760405162461bcd60e51b81526020600482015260166024820152750ece65cd8cadccee8d0407a7a40e4e65cd8cadccee8d60531b6044820152606401610b87565b815183511461145c5760405162461bcd60e51b81526020600482015260166024820152750e4e65cd8cadccee8d0407a7a40e6e65cd8cadccee8d60531b6044820152606401610b87565b607054845111156114af5760405162461bcd60e51b815260206004820152601a60248201527f76732e6c656e677468203c3d206f776e6572732e6c656e6774680000000000006044820152606401610b87565b607154845110156114fa5760405162461bcd60e51b81526020600482015260156024820152741d9ccb9b195b99dd1a080f8f481c995c5d5a5c9959605a1b6044820152606401610b87565b600061150586612dc5565b9050600085516001600160401b03811115611522576115226132a9565b60405190808252806020026020018201604052801561154b578160200160208202803683370190505b50905060005b86518110156116555760018388838151811061156f5761156f613924565b6020026020010151601b6115839190613af2565b88848151811061159557611595613924565b60200260200101518885815181106115af576115af613924565b6020026020010151604051600081526020016040526040516115ed949392919093845260ff9290921660208401526040830152606082015260800190565b6020604051602081039080840390855afa15801561160f573d6000803e3d6000fd5b5050506020604051035182828151811061162b5761162b613924565b6001600160a01b03909216602092830291909101909101528061164d81613909565b915050611551565b5061165f81612e87565b61169d5760405162461bcd60e51b815260206004820152600f60248201526e5f64697374696e63744f776e65727360881b6044820152606401610b87565b5060019695505050505050565b600080808080805b6001600160a01b0389166000908152606960205260409020548110156118d0576001600160a01b03891660009081526069602052604081208054839081106116fc576116fc613924565b90600052602060002001805461171190613884565b80601f016020809104026020016040519081016040528092919081815260200182805461173d90613884565b801561178a5780601f1061175f5761010080835404028352916020019161178a565b820191906000526020600020905b81548152906001019060200180831161176d57829003601f168201915b5050505050905060006067826040516117a391906138bf565b90815260200160405180910390208054905090506000607854606660008e6001600160a01b03166001600160a01b03168152602001908152602001600020846040516117ef91906138bf565b9081526020016040518091039020600301544261180c919061393a565b6118169190613951565b905060008261182783611a0b613973565b6118369064174876e800613973565b6118409190613951565b905060018211156118b95761185660018361393a565b611861906002613a76565b61186b9082613951565b611876826002613973565b611880919061393a565b61188a90886138f1565b965061189760018361393a565b6118a2906002613a76565b6118ac9082613951565b6118b690876138f1565b95505b5050505080806118c890613909565b9150506116b2565b506001600160a01b038816600090815260876020908152604080832054606a90925290912054909550829061190590896138f1565b61190f91906138f1565b6001600160a01b0389166000908152606b6020526040902054909450819061193790886138f1565b61194191906138f1565b9250505093509350939050565b600054610100900460ff161580801561196e5750600054600160ff909116105b806119885750303b158015611988575060005460ff166001145b6119eb5760405162461bcd60e51b815260206004820152602e60248201527f496e697469616c697a61626c653a20636f6e747261637420697320616c72656160448201526d191e481a5b9a5d1a585b1a5e995960921b6064820152608401610b87565b6000805460ff191660011790558015611a0e576000805461ff0019166101001790555b611a586040518060400160405280600b81526020016a22a0a92a24102a37b5b2b760a91b8152506040518060400160405280600581526020016408a82a4a8960db1b815250612f82565b60005b84811015611b3d576000868683818110611a7757611a77613924565b9050602002016020810190611a8c9190613567565b6001600160a01b0381166000908152606f602052604090205490915060ff1680611abd57506001600160a01b038116155b15611ac757600080fd5b6001600160a01b03166000818152606f60205260408120805460ff191660019081179091556070805491820181559091527f8f6b23ffa15f0465e3176e15ca644cf24f86dc1312fe715484e3c4aead5eb78b0180546001600160a01b031916909117905580611b3581613909565b915050611a5b565b50611b49600285613951565b611b549060016138f1565b60715562015180607855426072556079839055608180546001600160a01b0319166001600160a01b0384161790558015611bc8576000805461ff0019169055604051600181527f7f26b83ff96e1f2b6a682f133852f6798a09c465da95921460cefb38474024989060200160405180910390a15b5050505050565b33600090815260336020526040902054821115611c2e5760405162461bcd60e51b815260206004820152601760248201527f4e47503a206e6f7420656e6f7567682062616c616e63650000000000000000006044820152606401610b87565b60008211611c705760405162461bcd60e51b815260206004820152600f60248201526e04e47503a20616d6f756e74203e203608c1b6044820152606401610b87565b6001811015611cb25760405162461bcd60e51b815260206004820152600e60248201526d4e47503a207465726d203e3d203160901b6044820152606401610b87565b336000908152607d602052604090206002015415611d065760405162461bcd60e51b81526020600482015260116024820152704e47503a207374616b652065786973747360781b6044820152606401610b87565b611d1033836129d8565b611d1a8282612fb3565b600060785460725442611d2d919061393a565b611d379190613951565b905082608460008381526020019081526020016000206000828254611d5c91906138f1565b9091555050604080518481526020810184905233917f1449c6dd7851abc30abf37f57715f492010519147cc2652fbc38202c18a6ee90910160405180910390a2505050565b611dab828261303b565b5050565b60006060806060600060785460725442611dc9919061393a565b611dd39190613951565b9050806001600160401b03811115611ded57611ded6132a9565b604051908082528060200260200182016040528015611e16578160200160208202803683370190505b509350806001600160401b03811115611e3157611e316132a9565b604051908082528060200260200182016040528015611e5a578160200160208202803683370190505b509250806001600160401b03811115611e7557611e756132a9565b604051908082528060200260200182016040528015611e9e578160200160208202803683370190505b509150607254945060005b81811015611f55576000818152608360205260409020548551869083908110611ed457611ed4613924565b6020026020010181815250506084600082815260200190815260200160002054848281518110611f0657611f06613924565b6020026020010181815250506085600082815260200190815260200160002054838281518110611f3857611f38613924565b602090810291909101015280611f4d81613909565b915050611ea9565b505090919293565b6060603780546108f390613884565b60003381611f7a828661223b565b905083811015611fda5760405162461bcd60e51b815260206004820152602560248201527f45524332303a2064656372656173656420616c6c6f77616e63652062656c6f77604482015264207a65726f60d81b6064820152608401610b87565b611fe782868684036128b3565b506001949350505050565b60008060008060735493506078546072544261200e919061393a565b6120189190613951565b925061202360355490565b30600090815260336020526040902054909250612040908361393a565b905090919293565b600033610984818585612b83565b6001600160a01b0381166000908152607d602052604081206002015461207a575060005b506001600160a01b03166000908152607d602052604090206001015490565b6000806000806000806120ab60355490565b306000908152603360205260409020549096506120c8908761393a565b607754607b546080546081546001600160a01b0316600090815260336020526040902054999a9399929850909650945092509050565b8151602081840181018051606782529282019185019190912091905280548290811061212957600080fd5b6000918252602090912001546001600160a01b03169150829050565b6000806000806000806000806005607b5460016121629190613973565b61216c9190613951565b97506005607c54600161217f9190613973565b6121899190613951565b607c546001600160a01b038b166000908152607d6020526040902060010154919850965042116121d6576001600160a01b0389166000908152607d602052604090206002015494506121db565b600094505b6079546001600160a01b038a166000908152607d60209081526040808320600201546082909252822054929650945090925061221660355490565b9050801561222f5780607b5461222c9190613951565b91505b50919395975091939597565b6001600160a01b03918216600090815260346020908152604080832093909416825291909152205490565b60735460755460745460765460785460725460009190612286904261393a565b6122909190613951565b90509091929394565b336000908152606f602052604090205460ff166122e45760405162461bcd60e51b81526020600482015260096024820152683737ba1037bbb732b960b91b6044820152606401610b87565b6122f0858484846113c6565b6123315760405162461bcd60e51b8152602060048201526012602482015271696e76616c6964207369676e61747572657360701b6044820152606401610b87565b606e5461233f9060016138f1565b606e5560785460009081906123549042613951565b905060005b6001600160a01b0388166000908152606960205260409020548110156125ef576001600160a01b03881660009081526069602052604081208054839081106123a3576123a3613924565b9060005260206000200180546123b890613884565b80601f01602080910402602001604051908101604052809291908181526020018280546123e490613884565b80156124315780601f1061240657610100808354040283529160200191612431565b820191906000526020600020905b81548152906001019060200180831161241457829003601f168201915b50505050509050600060678260405161244a91906138bf565b9081526040805160209281900383018120546078546001600160a01b038f1660009081526066909552928420909450906124859086906138bf565b908152602001604051809103902060030154426124a2919061393a565b6124ac9190613951565b90506000826124bd83611a0b613973565b6124cc9064174876e800613973565b6124d69190613951565b9050600182106125135780607e60006124f060018a61393a565b8152602001908152602001600020600082825461250d91906138f1565b90915550505b600182111561255e5761252760018361393a565b612532906002613a76565b61253c9082613951565b612547826002613973565b612551919061393a565b61255b90886138f1565b96505b6001600160a01b038c166000908152606660205260409081902090514291906125889087906138bf565b9081526020016040518091039020600301819055507ff498e0b0d0e3ef52fe21a90b9ea81effdeee405ca5fd31bf66845b803a4959863385426040516125d093929190613aa7565b60405180910390a15050505080806125e790613909565b915050612359565b50600281101580156126215750607f600061260b60018461393a565b815260208101919091526040016000205460ff16155b80156126475750607854612636906003613973565b60725461264391906138f1565b4210155b1561271a5760006074546307b98a00612660919061393a565b61266c90611a0b613973565b607e600061267b60028661393a565b815260200190815260200160002054611a0b612697919061393a565b6126a191906138f1565b6126b09064174876e800613973565b905080608060008282546126c491906138f1565b90915550506081546126e9906001600160a01b03166126e4600584613951565b612d73565b6001607f60006126f9838661393a565b81526020810191909152604001600020805460ff1916911515919091179055505b6001600160a01b0387166000908152606a602052604081205461273d90846138f1565b6001600160a01b0389166000908152606a60205260408120549192509060649061276790866138f1565b61277290605a613973565b61277c9190613951565b336000908152606b60205260409020819055905061279a88836138f1565b336000908152608760205260409020556127b8896126e48a856138f1565b5050506001600160a01b039095166000908152606a60205260408120555050505050565b60666020908152600092835260409092208151808301840180519281529084019290930191909120915280546001820180546001600160a01b03909216929161282490613884565b80601f016020809104026020016040519081016040528092919081815260200182805461285090613884565b801561289d5780601f106128725761010080835404028352916020019161289d565b820191906000526020600020905b81548152906001019060200180831161288057829003601f168201915b5050505050908060020154908060030154905084565b6001600160a01b0383166129155760405162461bcd60e51b8152602060048201526024808201527f45524332303a20617070726f76652066726f6d20746865207a65726f206164646044820152637265737360e01b6064820152608401610b87565b6001600160a01b0382166129765760405162461bcd60e51b815260206004820152602260248201527f45524332303a20617070726f766520746f20746865207a65726f206164647265604482015261737360f01b6064820152608401610b87565b6001600160a01b0383811660008181526034602090815260408083209487168084529482529182902085905590518481527f8c5be1e5ebec7d5bd14f71427d1e84f3dd0314c0f7b2291e5b200ac8c7c3b92591015b60405180910390a3505050565b6001600160a01b038216612a385760405162461bcd60e51b815260206004820152602160248201527f45524332303a206275726e2066726f6d20746865207a65726f206164647265736044820152607360f81b6064820152608401610b87565b6001600160a01b03821660009081526033602052604090205481811015612aac5760405162461bcd60e51b815260206004820152602260248201527f45524332303a206275726e20616d6f756e7420657863656564732062616c616e604482015261636560f01b6064820152608401610b87565b6001600160a01b03831660008181526033602090815260408083208686039055603580548790039055518581529192917fddf252ad1be2c89b69c2b068fc378daa952ba7f163c4a11628f55a4df523b3ef91016129cb565b505050565b6000612b15848461223b565b90506000198114612b7d5781811015612b705760405162461bcd60e51b815260206004820152601d60248201527f45524332303a20696e73756666696369656e7420616c6c6f77616e63650000006044820152606401610b87565b612b7d84848484036128b3565b50505050565b6001600160a01b038316612be75760405162461bcd60e51b815260206004820152602560248201527f45524332303a207472616e736665722066726f6d20746865207a65726f206164604482015264647265737360d81b6064820152608401610b87565b6001600160a01b038216612c495760405162461bcd60e51b815260206004820152602360248201527f45524332303a207472616e7366657220746f20746865207a65726f206164647260448201526265737360e81b6064820152608401610b87565b6001600160a01b03831660009081526033602052604090205481811015612cc15760405162461bcd60e51b815260206004820152602660248201527f45524332303a207472616e7366657220616d6f756e7420657863656564732062604482015265616c616e636560d01b6064820152608401610b87565b6001600160a01b0380851660008181526033602052604080822086860390559286168082529083902080548601905591517fddf252ad1be2c89b69c2b068fc378daa952ba7f163c4a11628f55a4df523b3ef90612d219086815260200190565b60405180910390a3612b7d565b600081421115612d6957600083607954612d489190613973565b9050612710612d578287613973565b612d619190613951565b9150506111bf565b5060009392505050565b600060785460725442612d86919061393a565b612d909190613951565b905081608360008381526020019081526020016000206000828254612db591906138f1565b90915550612b049050838361303b565b600080612e1983606e546040805160609390931b6bffffffffffffffffffffffff19166020808501919091524660348501526054808501939093528151808503909301835260749093019052805191012090565b905060006040518060400160405280601c81526020017f19457468657265756d205369676e6564204d6573736167653a0a33320000000081525090508082604051602001612e68929190613b17565b6040516020818303038152906040528051906020012092505050919050565b60705481516000911015612e9d57506000919050565b60005b8251811015612f7957606f6000848381518110612ebf57612ebf613924565b6020908102919091018101516001600160a01b031682528101919091526040016000205460ff16612ef35750600092915050565b60005b81811015612f6657838181518110612f1057612f10613924565b60200260200101516001600160a01b0316848381518110612f3357612f33613924565b60200260200101516001600160a01b03161415612f54575060009392505050565b80612f5e81613909565b915050612ef6565b5080612f7181613909565b915050612ea0565b50600192915050565b600054610100900460ff16612fa95760405162461bcd60e51b8152600401610b8790613b39565b611dab82826130fc565b604051806060016040528082815260200160785483612fd29190613973565b612fdc90426138f1565b81526020908101849052336000908152607d82526040808220845181559284015160018401559290920151600290910155607a80549161301b83613909565b919050555081607b600082825461303291906138f1565b90915550505050565b6001600160a01b0382166130915760405162461bcd60e51b815260206004820152601f60248201527f45524332303a206d696e7420746f20746865207a65726f2061646472657373006044820152606401610b87565b80603560008282546130a391906138f1565b90915550506001600160a01b0382166000818152603360209081526040808320805486019055518481527fddf252ad1be2c89b69c2b068fc378daa952ba7f163c4a11628f55a4df523b3ef910160405180910390a35050565b600054610100900460ff166131235760405162461bcd60e51b8152600401610b8790613b39565b8151613136906036906020850190613146565b508051612b049060379060208401905b82805461315290613884565b90600052602060002090601f01602090048101928261317457600085556131ba565b82601f1061318d57805160ff19168380011785556131ba565b828001600101855582156131ba579182015b828111156131ba57825182559160200191906001019061319f565b506131c69291506131ca565b5090565b5b808211156131c657600081556001016131cb565b60005b838110156131fa5781810151838201526020016131e2565b83811115612b7d5750506000910152565b600081518084526132238160208601602086016131df565b601f01601f19169290920160200192915050565b6020815260006111bf602083018461320b565b80356001600160a01b038116811461326157600080fd5b919050565b6000806040838503121561327957600080fd5b6132828361324a565b946020939093013593505050565b6000602082840312156132a257600080fd5b5035919050565b634e487b7160e01b600052604160045260246000fd5b604051601f8201601f191681016001600160401b03811182821017156132e7576132e76132a9565b604052919050565b600082601f83011261330057600080fd5b81356001600160401b03811115613319576133196132a9565b61332c601f8201601f19166020016132bf565b81815284602083860101111561334157600080fd5b816020850160208301376000918101602001919091529392505050565b60006020828403121561337057600080fd5b81356001600160401b0381111561338657600080fd5b613392848285016132ef565b949350505050565b6000806000606084860312156133af57600080fd5b6133b88461324a565b92506133c66020850161324a565b9150604084013590509250925092565b60006001600160401b038211156133ef576133ef6132a9565b5060051b60200190565b600082601f83011261340a57600080fd5b8135602061341f61341a836133d6565b6132bf565b82815260059290921b8401810191818101908684111561343e57600080fd5b8286015b8481101561346957803560ff8116811461345c5760008081fd5b8352918301918301613442565b509695505050505050565b600082601f83011261348557600080fd5b8135602061349561341a836133d6565b82815260059290921b840181019181810190868411156134b457600080fd5b8286015b8481101561346957803583529183019183016134b8565b600080600080608085870312156134e557600080fd5b6134ee8561324a565b935060208501356001600160401b038082111561350a57600080fd5b613516888389016133f9565b9450604087013591508082111561352c57600080fd5b61353888838901613474565b9350606087013591508082111561354e57600080fd5b5061355b87828801613474565b91505092959194509250565b60006020828403121561357957600080fd5b6111bf8261324a565b60008060006060848603121561359757600080fd5b6135a08461324a565b95602085013595506040909401359392505050565b600080600080606085870312156135cb57600080fd5b84356001600160401b03808211156135e257600080fd5b818701915087601f8301126135f657600080fd5b81358181111561360557600080fd5b8860208260051b850101111561361a57600080fd5b6020928301965094505085013591506136356040860161324a565b905092959194509250565b6000806040838503121561365357600080fd5b50508035926020909101359150565b600081518084526020808501945080840160005b8381101561369257815187529582019590820190600101613676565b509495945050505050565b8481526080602082015260006136b66080830186613662565b82810360408401526136c88186613662565b905082810360608401526136dc8185613662565b979650505050505050565b600080604083850312156136fa57600080fd5b82356001600160401b0381111561371057600080fd5b61371c858286016132ef565b95602094909401359450505050565b6000806040838503121561373e57600080fd5b6137478361324a565b91506137556020840161324a565b90509250929050565b600080600080600060a0868803121561377657600080fd5b61377f8661324a565b94506020860135935060408601356001600160401b03808211156137a257600080fd5b6137ae89838a016133f9565b945060608801359150808211156137c457600080fd5b6137d089838a01613474565b935060808801359150808211156137e657600080fd5b506137f388828901613474565b9150509295509295909350565b6000806040838503121561381357600080fd5b61381c8361324a565b915060208301356001600160401b0381111561383757600080fd5b613843858286016132ef565b9150509250929050565b6001600160a01b03851681526080602082018190526000906138719083018661320b565b6040830194909452506060015292915050565b600181811c9082168061389857607f821691505b602082108114156138b957634e487b7160e01b600052602260045260246000fd5b50919050565b600082516138d18184602087016131df565b9190910192915050565b634e487b7160e01b600052601160045260246000fd5b60008219821115613904576139046138db565b500190565b600060001982141561391d5761391d6138db565b5060010190565b634e487b7160e01b600052603260045260246000fd5b60008282101561394c5761394c6138db565b500390565b60008261396e57634e487b7160e01b600052601260045260246000fd5b500490565b600081600019048311821515161561398d5761398d6138db565b500290565b600181815b808511156139cd5781600019048211156139b3576139b36138db565b808516156139c057918102915b93841c9390800290613997565b509250929050565b6000826139e45750600161098a565b816139f15750600061098a565b8160018114613a075760028114613a1157613a2d565b600191505061098a565b60ff841115613a2257613a226138db565b50506001821b61098a565b5060208310610133831016604e8410600b8410161715613a50575081810a61098a565b613a5a8383613992565b8060001904821115613a6e57613a6e6138db565b029392505050565b60006111bf83836139d5565b606081526000613a95606083018661320b565b60208301949094525060400152919050565b6001600160a01b0384168152606060208201819052600090613acb9083018561320b565b9050826040830152949350505050565b600081613aea57613aea6138db565b506000190190565b600060ff821660ff84168060ff03821115613b0f57613b0f6138db565b019392505050565b60008351613b298184602088016131df565b9190910191825250602001919050565b6020808252602b908201527f496e697469616c697a61626c653a20636f6e7472616374206973206e6f74206960408201526a6e697469616c697a696e6760a81b60608201526080019056fea26469706673582212204a50c706a5147c1ee454926b80ce3c0e3275fc8aadae444f9947614b98b0368b64736f6c63430008080033",
  "devdoc": {
    "kind": "dev",
    "methods": {
      "allowance(address,address)": {
        "details": "See {IERC20-allowance}."
      },
      "approve(address,uint256)": {
        "details": "See {IERC20-approve}. NOTE: If `amount` is the maximum `uint256`, the allowance is not updated on `transferFrom`. This is semantically equivalent to an infinite approval. Requirements: - `spender` cannot be the zero address."
      },
      "balanceOf(address)": {
        "details": "See {IERC20-balanceOf}."
      },
      "decimals()": {
        "details": "Returns the number of decimals used to get its user representation. For example, if `decimals` equals `2`, a balance of `505` tokens should be displayed to a user as `5.05` (`505 / 10 ** 2`). Tokens usually opt for a value of 18, imitating the relationship between Ether and Wei. This is the value {ERC20} uses, unless this function is overridden; NOTE: This information is only used for _display_ purposes: it in no way affects any of the arithmetic of the contract, including {IERC20-balanceOf} and {IERC20-transfer}."
      },
      "decreaseAllowance(address,uint256)": {
        "details": "Atomically decreases the allowance granted to `spender` by the caller. This is an alternative to {approve} that can be used as a mitigation for problems described in {IERC20-approve}. Emits an {Approval} event indicating the updated allowance. Requirements: - `spender` cannot be the zero address. - `spender` must have allowance for the caller of at least `subtractedValue`."
      },
      "increaseAllowance(address,uint256)": {
        "details": "Atomically increases the allowance granted to `spender` by the caller. This is an alternative to {approve} that can be used as a mitigation for problems described in {IERC20-approve}. Emits an {Approval} event indicating the updated allowance. Requirements: - `spender` cannot be the zero address."
      },
      "name()": {
        "details": "Returns the name of the token."
      },
      "symbol()": {
        "details": "Returns the symbol of the token, usually a shorter version of the name."
      },
      "totalSupply()": {
        "details": "See {IERC20-totalSupply}."
      },
      "transfer(address,uint256)": {
        "details": "See {IERC20-transfer}. Requirements: - `to` cannot be the zero address. - the caller must have a balance of at least `amount`."
      },
      "transferFrom(address,address,uint256)": {
        "details": "See {IERC20-transferFrom}. Emits an {Approval} event indicating the updated allowance. This is not required by the EIP. See the note at the beginning of {ERC20}. NOTE: Does not update the allowance if the current allowance is the maximum `uint256`. Requirements: - `from` and `to` cannot be the zero address. - `from` must have a balance of at least `amount`. - the caller must have allowance for ``from``'s tokens of at least `amount`."
      }
    },
    "version": 1
  },
  "userdoc": {
    "kind": "user",
    "methods": {},
    "version": 1
  },
  "storageLayout": {
    "storage": [
      {
        "astId": 6,
        "contract": "contracts/NGP.sol:NGP",
        "label": "_initialized",
        "offset": 0,
        "slot": "0",
        "type": "t_uint8"
      },
      {
        "astId": 9,
        "contract": "contracts/NGP.sol:NGP",
        "label": "_initializing",
        "offset": 1,
        "slot": "0",
        "type": "t_bool"
      },
      {
        "astId": 1208,
        "contract": "contracts/NGP.sol:NGP",
        "label": "__gap",
        "offset": 0,
        "slot": "1",
        "type": "t_array(t_uint256)50_storage"
      },
      {
        "astId": 187,
        "contract": "contracts/NGP.sol:NGP",
        "label": "_balances",
        "offset": 0,
        "slot": "51",
        "type": "t_mapping(t_address,t_uint256)"
      },
      {
        "astId": 193,
        "contract": "contracts/NGP.sol:NGP",
        "label": "_allowances",
        "offset": 0,
        "slot": "52",
        "type": "t_mapping(t_address,t_mapping(t_address,t_uint256))"
      },
      {
        "astId": 195,
        "contract": "contracts/NGP.sol:NGP",
        "label": "_totalSupply",
        "offset": 0,
        "slot": "53",
        "type": "t_uint256"
      },
      {
        "astId": 197,
        "contract": "contracts/NGP.sol:NGP",
        "label": "_name",
        "offset": 0,
        "slot": "54",
        "type": "t_string_storage"
      },
      {
        "astId": 199,
        "contract": "contracts/NGP.sol:NGP",
        "label": "_symbol",
        "offset": 0,
        "slot": "55",
        "type": "t_string_storage"
      },
      {
        "astId": 779,
        "contract": "contracts/NGP.sol:NGP",
        "label": "__gap",
        "offset": 0,
        "slot": "56",
        "type": "t_array(t_uint256)45_storage"
      },
      {
        "astId": 1225,
        "contract": "contracts/NGP.sol:NGP",
        "label": "daySupply",
        "offset": 0,
        "slot": "101",
        "type": "t_uint256"
      },
      {
        "astId": 1232,
        "contract": "contracts/NGP.sol:NGP",
        "label": "userMints",
        "offset": 0,
        "slot": "102",
        "type": "t_mapping(t_address,t_mapping(t_string_memory_ptr,t_struct(MintInfo)1223_storage))"
      },
      {
        "astId": 1237,
        "contract": "contracts/NGP.sol:NGP",
        "label": "userApplys",
        "offset": 0,
        "slot": "103",
        "type": "t_mapping(t_string_memory_ptr,t_array(t_address)dyn_storage)"
      },
      {
        "astId": 1241,
        "contract": "contracts/NGP.sol:NGP",
        "label": "degreeHeats",
        "offset": 0,
        "slot": "104",
        "type": "t_mapping(t_string_memory_ptr,t_uint256)"
      },
      {
        "astId": 1246,
        "contract": "contracts/NGP.sol:NGP",
        "label": "userNumbers",
        "offset": 0,
        "slot": "105",
        "type": "t_mapping(t_address,t_array(t_string_storage)dyn_storage)"
      },
      {
        "astId": 1250,
        "contract": "contracts/NGP.sol:NGP",
        "label": "withdrawAmount",
        "offset": 0,
        "slot": "106",
        "type": "t_mapping(t_address,t_uint256)"
      },
      {
        "astId": 1254,
        "contract": "contracts/NGP.sol:NGP",
        "label": "unWithDrawAmount",
        "offset": 0,
        "slot": "107",
        "type": "t_mapping(t_address,t_uint256)"
      },
      {
        "astId": 1258,
        "contract": "contracts/NGP.sol:NGP",
        "label": "rankWithdrawAmount",
        "offset": 0,
        "slot": "108",
        "type": "t_mapping(t_address,t_uint256)"
      },
      {
        "astId": 1262,
        "contract": "contracts/NGP.sol:NGP",
        "label": "minters",
        "offset": 0,
        "slot": "109",
        "type": "t_mapping(t_address,t_bool)"
      },
      {
        "astId": 1264,
        "contract": "contracts/NGP.sol:NGP",
        "label": "spendNonce",
        "offset": 0,
        "slot": "110",
        "type": "t_uint256"
      },
      {
        "astId": 1268,
        "contract": "contracts/NGP.sol:NGP",
        "label": "isOwner",
        "offset": 0,
        "slot": "111",
        "type": "t_mapping(t_address,t_bool)"
      },
      {
        "astId": 1271,
        "contract": "contracts/NGP.sol:NGP",
        "label": "owners",
        "offset": 0,
        "slot": "112",
        "type": "t_array(t_address)dyn_storage"
      },
      {
        "astId": 1273,
        "contract": "contracts/NGP.sol:NGP",
        "label": "required",
        "offset": 0,
        "slot": "113",
        "type": "t_uint256"
      },
      {
        "astId": 1275,
        "contract": "contracts/NGP.sol:NGP",
        "label": "genesisTs",
        "offset": 0,
        "slot": "114",
        "type": "t_uint256"
      },
      {
        "astId": 1277,
        "contract": "contracts/NGP.sol:NGP",
        "label": "activeMinters",
        "offset": 0,
        "slot": "115",
        "type": "t_uint256"
      },
      {
        "astId": 1279,
        "contract": "contracts/NGP.sol:NGP",
        "label": "activeNumbers",
        "offset": 0,
        "slot": "116",
        "type": "t_uint256"
      },
      {
        "astId": 1281,
        "contract": "contracts/NGP.sol:NGP",
        "label": "claimMints",
        "offset": 0,
        "slot": "117",
        "type": "t_uint256"
      },
      {
        "astId": 1283,
        "contract": "contracts/NGP.sol:NGP",
        "label": "maxMeshHeats",
        "offset": 0,
        "slot": "118",
        "type": "t_uint256"
      },
      {
        "astId": 1285,
        "contract": "contracts/NGP.sol:NGP",
        "label": "destructions",
        "offset": 0,
        "slot": "119",
        "type": "t_uint256"
      },
      {
        "astId": 1287,
        "contract": "contracts/NGP.sol:NGP",
        "label": "SECONDS_IN_DAY",
        "offset": 0,
        "slot": "120",
        "type": "t_uint256"
      },
      {
        "astId": 1296,
        "contract": "contracts/NGP.sol:NGP",
        "label": "apy",
        "offset": 0,
        "slot": "121",
        "type": "t_uint256"
      },
      {
        "astId": 1298,
        "contract": "contracts/NGP.sol:NGP",
        "label": "activeStakes",
        "offset": 0,
        "slot": "122",
        "type": "t_uint256"
      },
      {
        "astId": 1300,
        "contract": "contracts/NGP.sol:NGP",
        "label": "totalNGPStaked",
        "offset": 0,
        "slot": "123",
        "type": "t_uint256"
      },
      {
        "astId": 1302,
        "contract": "contracts/NGP.sol:NGP",
        "label": "totalEarn",
        "offset": 0,
        "slot": "124",
        "type": "t_uint256"
      },
      {
        "astId": 1307,
        "contract": "contracts/NGP.sol:NGP",
        "label": "userStakes",
        "offset": 0,
        "slot": "125",
        "type": "t_mapping(t_address,t_struct(StakeInfo)1294_storage)"
      },
      {
        "astId": 1311,
        "contract": "contracts/NGP.sol:NGP",
        "label": "dayClaims",
        "offset": 0,
        "slot": "126",
        "type": "t_mapping(t_uint256,t_uint256)"
      },
      {
        "astId": 1315,
        "contract": "contracts/NGP.sol:NGP",
        "label": "dayClaimed",
        "offset": 0,
        "slot": "127",
        "type": "t_mapping(t_uint256,t_bool)"
      },
      {
        "astId": 1317,
        "contract": "contracts/NGP.sol:NGP",
        "label": "treasuryValue",
        "offset": 0,
        "slot": "128",
        "type": "t_uint256"
      },
      {
        "astId": 1319,
        "contract": "contracts/NGP.sol:NGP",
        "label": "FoundationAddr",
        "offset": 0,
        "slot": "129",
        "type": "t_address"
      },
      {
        "astId": 1323,
        "contract": "contracts/NGP.sol:NGP",
        "label": "stakeValues",
        "offset": 0,
        "slot": "130",
        "type": "t_mapping(t_address,t_uint256)"
      },
      {
        "astId": 1327,
        "contract": "contracts/NGP.sol:NGP",
        "label": "dayReceived",
        "offset": 0,
        "slot": "131",
        "type": "t_mapping(t_uint256,t_uint256)"
      },
      {
        "astId": 1331,
        "contract": "contracts/NGP.sol:NGP",
        "label": "dayStaked",
        "offset": 0,
        "slot": "132",
        "type": "t_mapping(t_uint256,t_uint256)"
      },
      {
        "astId": 1335,
        "contract": "contracts/NGP.sol:NGP",
        "label": "dayUnStaked",
        "offset": 0,
        "slot": "133",
        "type": "t_mapping(t_uint256,t_uint256)"
      },
      {
        "astId": 1339,
        "contract": "contracts/NGP.sol:NGP",
        "label": "unWithdraws",
        "offset": 0,
        "slot": "134",
        "type": "t_mapping(t_address,t_uint256)"
      },
      {
        "astId": 1343,
        "contract": "contracts/NGP.sol:NGP",
        "label": "userWithdraws",
        "offset": 0,
        "slot": "135",
        "type": "t_mapping(t_address,t_uint256)"
      }
    ],
    "types": {
      "t_address": {
        "encoding": "inplace",
        "label": "address",
        "numberOfBytes": "20"
      },
      "t_array(t_address)dyn_storage": {
        "base": "t_address",
        "encoding": "dynamic_array",
        "label": "address[]",
        "numberOfBytes": "32"
      },
      "t_array(t_string_storage)dyn_storage": {
        "base": "t_string_storage",
        "encoding": "dynamic_array",
        "label": "string[]",
        "numberOfBytes": "32"
      },
      "t_array(t_uint256)45_storage": {
        "base": "t_uint256",
        "encoding": "inplace",
        "label": "uint256[45]",
        "numberOfBytes": "1440"
      },
      "t_array(t_uint256)50_storage": {
        "base": "t_uint256",
        "encoding": "inplace",
        "label": "uint256[50]",
        "numberOfBytes": "1600"
      },
      "t_bool": {
        "encoding": "inplace",
        "label": "bool",
        "numberOfBytes": "1"
      },
      "t_mapping(t_address,t_array(t_string_storage)dyn_storage)": {
        "encoding": "mapping",
        "key": "t_address",
        "label": "mapping(address => string[])",
        "numberOfBytes": "32",
        "value": "t_array(t_string_storage)dyn_storage"
      },
      "t_mapping(t_address,t_bool)": {
        "encoding": "mapping",
        "key": "t_address",
        "label": "mapping(address => bool)",
        "numberOfBytes": "32",
        "value": "t_bool"
      },
      "t_mapping(t_address,t_mapping(t_address,t_uint256))": {
        "encoding": "mapping",
        "key": "t_address",
        "label": "mapping(address => mapping(address => uint256))",
        "numberOfBytes": "32",
        "value": "t_mapping(t_address,t_uint256)"
      },
      "t_mapping(t_address,t_mapping(t_string_memory_ptr,t_struct(MintInfo)1223_storage))": {
        "encoding": "mapping",
        "key": "t_address",
        "label": "mapping(address => mapping(string => struct NGP.MintInfo))",
        "numberOfBytes": "32",
        "value": "t_mapping(t_string_memory_ptr,t_struct(MintInfo)1223_storage)"
      },
      "t_mapping(t_address,t_struct(StakeInfo)1294_storage)": {
        "encoding": "mapping",
        "key": "t_address",
        "label": "mapping(address => struct NGP.StakeInfo)",
        "numberOfBytes": "32",
        "value": "t_struct(StakeInfo)1294_storage"
      },
      "t_mapping(t_address,t_uint256)": {
        "encoding": "mapping",
        "key": "t_address",
        "label": "mapping(address => uint256)",
        "numberOfBytes": "32",
        "value": "t_uint256"
      },
      "t_mapping(t_string_memory_ptr,t_array(t_address)dyn_storage)": {
        "encoding": "mapping",
        "key": "t_string_memory_ptr",
        "label": "mapping(string => address[])",
        "numberOfBytes": "32",
        "value": "t_array(t_address)dyn_storage"
      },
      "t_mapping(t_string_memory_ptr,t_struct(MintInfo)1223_storage)": {
        "encoding": "mapping",
        "key": "t_string_memory_ptr",
        "label": "mapping(string => struct NGP.MintInfo)",
        "numberOfBytes": "32",
        "value": "t_struct(MintInfo)1223_storage"
      },
      "t_mapping(t_string_memory_ptr,t_uint256)": {
        "encoding": "mapping",
        "key": "t_string_memory_ptr",
        "label": "mapping(string => uint256)",
        "numberOfBytes": "32",
        "value": "t_uint256"
      },
      "t_mapping(t_uint256,t_bool)": {
        "encoding": "mapping",
        "key": "t_uint256",
        "label": "mapping(uint256 => bool)",
        "numberOfBytes": "32",
        "value": "t_bool"
      },
      "t_mapping(t_uint256,t_uint256)": {
        "encoding": "mapping",
        "key": "t_uint256",
        "label": "mapping(uint256 => uint256)",
        "numberOfBytes": "32",
        "value": "t_uint256"
      },
      "t_string_memory_ptr": {
        "encoding": "bytes",
        "label": "string",
        "numberOfBytes": "32"
      },
      "t_string_storage": {
        "encoding": "bytes",
        "label": "string",
        "numberOfBytes": "32"
      },
      "t_struct(MintInfo)1223_storage": {
        "encoding": "inplace",
        "label": "struct NGP.MintInfo",
        "members": [
          {
            "astId": 1216,
            "contract": "contracts/NGP.sol:NGP",
            "label": "user",
            "offset": 0,
            "slot": "0",
            "type": "t_address"
          },
          {
            "astId": 1218,
            "contract": "contracts/NGP.sol:NGP",
            "label": "number",
            "offset": 0,
            "slot": "1",
            "type": "t_string_storage"
          },
          {
            "astId": 1220,
            "contract": "contracts/NGP.sol:NGP",
            "label": "updateTs",
            "offset": 0,
            "slot": "2",
            "type": "t_uint256"
          },
          {
            "astId": 1222,
            "contract": "contracts/NGP.sol:NGP",
            "label": "withdrawTs",
            "offset": 0,
            "slot": "3",
            "type": "t_uint256"
          }
        ],
        "numberOfBytes": "128"
      },
      "t_struct(StakeInfo)1294_storage": {
        "encoding": "inplace",
        "label": "struct NGP.StakeInfo",
        "members": [
          {
            "astId": 1289,
            "contract": "contracts/NGP.sol:NGP",
            "label": "term",
            "offset": 0,
            "slot": "0",
            "type": "t_uint256"
          },
          {
            "astId": 1291,
            "contract": "contracts/NGP.sol:NGP",
            "label": "maturityTs",
            "offset": 0,
            "slot": "1",
            "type": "t_uint256"
          },
          {
            "astId": 1293,
            "contract": "contracts/NGP.sol:NGP",
            "label": "amount",
            "offset": 0,
            "slot": "2",
            "type": "t_uint256"
          }
        ],
        "numberOfBytes": "96"
      },
      "t_uint256": {
        "encoding": "inplace",
        "label": "uint256",
        "numberOfBytes": "32"
      },
      "t_uint8": {
        "encoding": "inplace",
        "label": "uint8",
        "numberOfBytes": "1"
      }
    }
  }
}