{
  "address": "0x5fEfb39aB71C19DfD6fFD38fea50aEB9EE5D7bcb",
  "abi": [
    {
      "anonymous": false,
      "inputs": [
        {
          "indexed": true,
          "internalType": "address",
          "name": "owner",
          "type": "address"
        },
        {
          "indexed": true,
          "internalType": "address",
          "name": "spender",
          "type": "address"
        },
        {
          "indexed": false,
          "internalType": "uint256",
          "name": "value",
          "type": "uint256"
        }
      ],
      "name": "Approval",
      "type": "event"
    },
    {
      "anonymous": false,
      "inputs": [
        {
          "indexed": false,
          "internalType": "address",
          "name": "user",
          "type": "address"
        },
        {
          "indexed": false,
          "internalType": "string",
          "name": "number",
          "type": "string"
        },
        {
          "indexed": false,
          "internalType": "uint256",
          "name": "time",
          "type": "uint256"
        }
      ],
      "name": "ClaimMint",
      "type": "event"
    },
    {
      "anonymous": false,
      "inputs": [
        {
          "indexed": false,
          "internalType": "address",
          "name": "user",
          "type": "address"
        },
        {
          "indexed": false,
          "internalType": "string",
          "name": "number",
          "type": "string"
        },
        {
          "indexed": false,
          "internalType": "uint256",
          "name": "time",
          "type": "uint256"
        }
      ],
      "name": "ClaimMintReward",
      "type": "event"
    },
    {
      "anonymous": false,
      "inputs": [
        {
          "indexed": false,
          "internalType": "string",
          "name": "number",
          "type": "string"
        },
        {
          "indexed": false,
          "internalType": "uint256",
          "name": "heat",
          "type": "uint256"
        }
      ],
      "name": "DegreeHeats",
      "type": "event"
    },
    {
      "anonymous": false,
      "inputs": [
        {
          "indexed": false,
          "internalType": "uint8",
          "name": "version",
          "type": "uint8"
        }
      ],
      "name": "Initialized",
      "type": "event"
    },
    {
      "anonymous": false,
      "inputs": [
        {
          "indexed": true,
          "internalType": "address",
          "name": "user",
          "type": "address"
        },
        {
          "indexed": false,
          "internalType": "uint256",
          "name": "amount",
          "type": "uint256"
        },
        {
          "indexed": false,
          "internalType": "uint256",
          "name": "term",
          "type": "uint256"
        }
      ],
      "name": "Staked",
      "type": "event"
    },
    {
      "anonymous": false,
      "inputs": [
        {
          "indexed": true,
          "internalType": "address",
          "name": "from",
          "type": "address"
        },
        {
          "indexed": true,
          "internalType": "address",
          "name": "to",
          "type": "address"
        },
        {
          "indexed": false,
          "internalType": "uint256",
          "name": "value",
          "type": "uint256"
        }
      ],
      "name": "Transfer",
      "type": "event"
    },
    {
      "anonymous": false,
      "inputs": [
        {
          "indexed": true,
          "internalType": "address",
          "name": "user",
          "type": "address"
        },
        {
          "indexed": false,
          "internalType": "uint256",
          "name": "amount",
          "type": "uint256"
        },
        {
          "indexed": false,
          "internalType": "uint256",
          "name": "reward",
          "type": "uint256"
        }
      ],
      "name": "Withdrawn",
      "type": "event"
    },
    {
      "inputs": [],
      "name": "FoundationAddr",
      "outputs": [
        {
          "internalType": "address",
          "name": "",
          "type": "address"
        }
      ],
      "stateMutability": "view",
      "type": "function"
    },
    {
      "inputs": [
        {
          "internalType": "address",
          "name": "user",
          "type": "address"
        },
        {
          "internalType": "uint256",
          "name": "amount",
          "type": "uint256"
        }
      ],
      "name": "MintGNP",
      "outputs": [],
      "stateMutability": "nonpayable",
      "type": "function"
    },
    {
      "inputs": [],
      "name": "SECONDS_IN_DAY",
      "outputs": [
        {
          "internalType": "uint256",
          "name": "",
          "type": "uint256"
        }
      ],
      "stateMutability": "view",
      "type": "function"
    },
    {
      "inputs": [],
      "name": "activeMinters",
      "outputs": [
        {
          "internalType": "uint256",
          "name": "",
          "type": "uint256"
        }
      ],
      "stateMutability": "view",
      "type": "function"
    },
    {
      "inputs": [],
      "name": "activeNumbers",
      "outputs": [
        {
          "internalType": "uint256",
          "name": "",
          "type": "uint256"
        }
      ],
      "stateMutability": "view",
      "type": "function"
    },
    {
      "inputs": [],
      "name": "activeStakes",
      "outputs": [
        {
          "internalType": "uint256",
          "name": "",
          "type": "uint256"
        }
      ],
      "stateMutability": "view",
      "type": "function"
    },
    {
      "inputs": [],
      "name": "addSpendNonce",
      "outputs": [],
      "stateMutability": "nonpayable",
      "type": "function"
    },
    {
      "inputs": [
        {
          "internalType": "address",
          "name": "owner",
          "type": "address"
        },
        {
          "internalType": "address",
          "name": "spender",
          "type": "address"
        }
      ],
      "name": "allowance",
      "outputs": [
        {
          "internalType": "uint256",
          "name": "",
          "type": "uint256"
        }
      ],
      "stateMutability": "view",
      "type": "function"
    },
    {
      "inputs": [
        {
          "internalType": "address",
          "name": "spender",
          "type": "address"
        },
        {
          "internalType": "uint256",
          "name": "amount",
          "type": "uint256"
        }
      ],
      "name": "approve",
      "outputs": [
        {
          "internalType": "bool",
          "name": "",
          "type": "bool"
        }
      ],
      "stateMutability": "nonpayable",
      "type": "function"
    },
    {
      "inputs": [],
      "name": "apy",
      "outputs": [
        {
          "internalType": "uint256",
          "name": "",
          "type": "uint256"
        }
      ],
      "stateMutability": "view",
      "type": "function"
    },
    {
      "inputs": [
        {
          "internalType": "address",
          "name": "account",
          "type": "address"
        }
      ],
      "name": "balanceOf",
      "outputs": [
        {
          "internalType": "uint256",
          "name": "",
          "type": "uint256"
        }
      ],
      "stateMutability": "view",
      "type": "function"
    },
    {
      "inputs": [
        {
          "internalType": "string",
          "name": "_number",
          "type": "string"
        }
      ],
      "name": "claimMint",
      "outputs": [],
      "stateMutability": "nonpayable",
      "type": "function"
    },
    {
      "inputs": [
        {
          "internalType": "address",
          "name": "_user",
          "type": "address"
        },
        {
          "internalType": "uint256",
          "name": "_amount",
          "type": "uint256"
        },
        {
          "internalType": "uint8[]",
          "name": "vs",
          "type": "uint8[]"
        },
        {
          "internalType": "bytes32[]",
          "name": "rs",
          "type": "bytes32[]"
        },
        {
          "internalType": "bytes32[]",
          "name": "ss",
          "type": "bytes32[]"
        }
      ],
      "name": "claimMintReward",
      "outputs": [],
      "stateMutability": "nonpayable",
      "type": "function"
    },
    {
      "inputs": [],
      "name": "claimMints",
      "outputs": [
        {
          "internalType": "uint256",
          "name": "",
          "type": "uint256"
        }
      ],
      "stateMutability": "view",
      "type": "function"
    },
    {
      "inputs": [
        {
          "internalType": "uint256",
          "name": "",
          "type": "uint256"
        }
      ],
      "name": "dayClaimed",
      "outputs": [
        {
          "internalType": "bool",
          "name": "",
          "type": "bool"
        }
      ],
      "stateMutability": "view",
      "type": "function"
    },
    {
      "inputs": [
        {
          "internalType": "uint256",
          "name": "",
          "type": "uint256"
        }
      ],
      "name": "dayClaims",
      "outputs": [
        {
          "internalType": "uint256",
          "name": "",
          "type": "uint256"
        }
      ],
      "stateMutability": "view",
      "type": "function"
    },
    {
      "inputs": [
        {
          "internalType": "uint256",
          "name": "",
          "type": "uint256"
        }
      ],
      "name": "dayReceived",
      "outputs": [
        {
          "internalType": "uint256",
          "name": "",
          "type": "uint256"
        }
      ],
      "stateMutability": "view",
      "type": "function"
    },
    {
      "inputs": [
        {
          "internalType": "uint256",
          "name": "",
          "type": "uint256"
        }
      ],
      "name": "dayStaked",
      "outputs": [
        {
          "internalType": "uint256",
          "name": "",
          "type": "uint256"
        }
      ],
      "stateMutability": "view",
      "type": "function"
    },
    {
      "inputs": [],
      "name": "daySupply",
      "outputs": [
        {
          "internalType": "uint256",
          "name": "",
          "type": "uint256"
        }
      ],
      "stateMutability": "view",
      "type": "function"
    },
    {
      "inputs": [
        {
          "internalType": "uint256",
          "name": "",
          "type": "uint256"
        }
      ],
      "name": "dayUnStaked",
      "outputs": [
        {
          "internalType": "uint256",
          "name": "",
          "type": "uint256"
        }
      ],
      "stateMutability": "view",
      "type": "function"
    },
    {
      "inputs": [],
      "name": "decimals",
      "outputs": [
        {
          "internalType": "uint8",
          "name": "",
          "type": "uint8"
        }
      ],
      "stateMutability": "view",
      "type": "function"
    },
    {
      "inputs": [
        {
          "internalType": "address",
          "name": "spender",
          "type": "address"
        },
        {
          "internalType": "uint256",
          "name": "subtractedValue",
          "type": "uint256"
        }
      ],
      "name": "decreaseAllowance",
      "outputs": [
        {
          "internalType": "bool",
          "name": "",
          "type": "bool"
        }
      ],
      "stateMutability": "nonpayable",
      "type": "function"
    },
    {
      "inputs": [
        {
          "internalType": "string",
          "name": "",
          "type": "string"
        }
      ],
      "name": "degreeHeats",
      "outputs": [
        {
          "internalType": "uint256",
          "name": "",
          "type": "uint256"
        }
      ],
      "stateMutability": "view",
      "type": "function"
    },
    {
      "inputs": [],
      "name": "destructions",
      "outputs": [
        {
          "internalType": "uint256",
          "name": "",
          "type": "uint256"
        }
      ],
      "stateMutability": "view",
      "type": "function"
    },
    {
      "inputs": [],
      "name": "genesisTs",
      "outputs": [
        {
          "internalType": "uint256",
          "name": "",
          "type": "uint256"
        }
      ],
      "stateMutability": "view",
      "type": "function"
    },
    {
      "inputs": [],
      "name": "getEarthDashboard",
      "outputs": [
        {
          "internalType": "uint256",
          "name": "_totalSupply",
          "type": "uint256"
        },
        {
          "internalType": "uint256",
          "name": "liquidSupply",
          "type": "uint256"
        },
        {
          "internalType": "uint256",
          "name": "destruction",
          "type": "uint256"
        },
        {
          "internalType": "uint256",
          "name": "totalStaked",
          "type": "uint256"
        },
        {
          "internalType": "uint256",
          "name": "treasury",
          "type": "uint256"
        },
        {
          "internalType": "uint256",
          "name": "foundation",
          "type": "uint256"
        }
      ],
      "stateMutability": "view",
      "type": "function"
    },
    {
      "inputs": [],
      "name": "getMeshDashboard",
      "outputs": [
        {
          "internalType": "uint256",
          "name": "participants",
          "type": "uint256"
        },
        {
          "internalType": "uint256",
          "name": "totalclaimMints",
          "type": "uint256"
        },
        {
          "internalType": "uint256",
          "name": "claimedMesh",
          "type": "uint256"
        },
        {
          "internalType": "uint256",
          "name": "maxHeats",
          "type": "uint256"
        },
        {
          "internalType": "uint256",
          "name": "sinceGenesis",
          "type": "uint256"
        }
      ],
      "stateMutability": "view",
      "type": "function"
    },
    {
      "inputs": [],
      "name": "getMeshData",
      "outputs": [
        {
          "internalType": "uint256",
          "name": "userCounts",
          "type": "uint256"
        },
        {
          "internalType": "uint256",
          "name": "launchData",
          "type": "uint256"
        },
        {
          "internalType": "uint256",
          "name": "totalMinted",
          "type": "uint256"
        },
        {
          "internalType": "uint256",
          "name": "liquidSupply",
          "type": "uint256"
        }
      ],
      "stateMutability": "view",
      "type": "function"
    },
    {
      "inputs": [],
      "name": "getNetworkEvents",
      "outputs": [
        {
          "internalType": "uint256",
          "name": "_genesisTs",
          "type": "uint256"
        },
        {
          "internalType": "uint256[]",
          "name": "_received",
          "type": "uint256[]"
        },
        {
          "internalType": "uint256[]",
          "name": "_staked",
          "type": "uint256[]"
        },
        {
          "internalType": "uint256[]",
          "name": "_unstaked",
          "type": "uint256[]"
        }
      ],
      "stateMutability": "view",
      "type": "function"
    },
    {
      "inputs": [],
      "name": "getSpendNonce",
      "outputs": [
        {
          "internalType": "uint256",
          "name": "",
          "type": "uint256"
        }
      ],
      "stateMutability": "view",
      "type": "function"
    },
    {
      "inputs": [
        {
          "internalType": "address",
          "name": "_user",
          "type": "address"
        }
      ],
      "name": "getStakeInfo",
      "outputs": [
        {
          "internalType": "uint256",
          "name": "tvl",
          "type": "uint256"
        },
        {
          "internalType": "uint256",
          "name": "revenue",
          "type": "uint256"
        },
        {
          "internalType": "uint256",
          "name": "earned",
          "type": "uint256"
        },
        {
          "internalType": "uint256",
          "name": "claimable",
          "type": "uint256"
        },
        {
          "internalType": "uint256",
          "name": "totalApy",
          "type": "uint256"
        },
        {
          "internalType": "uint256",
          "name": "staked",
          "type": "uint256"
        },
        {
          "internalType": "uint256",
          "name": "totalEarnValue",
          "type": "uint256"
        }
      ],
      "stateMutability": "view",
      "type": "function"
    },
    {
      "inputs": [
        {
          "internalType": "address",
          "name": "user",
          "type": "address"
        }
      ],
      "name": "getStakeTime",
      "outputs": [
        {
          "internalType": "uint256",
          "name": "ts",
          "type": "uint256"
        }
      ],
      "stateMutability": "view",
      "type": "function"
    },
    {
      "inputs": [
        {
          "internalType": "address",
          "name": "spender",
          "type": "address"
        },
        {
          "internalType": "uint256",
          "name": "addedValue",
          "type": "uint256"
        }
      ],
      "name": "increaseAllowance",
      "outputs": [
        {
          "internalType": "bool",
          "name": "",
          "type": "bool"
        }
      ],
      "stateMutability": "nonpayable",
      "type": "function"
    },
    {
      "inputs": [
        {
          "internalType": "address[]",
          "name": "_owners",
          "type": "address[]"
        },
        {
          "internalType": "uint256",
          "name": "_apy",
          "type": "uint256"
        },
        {
          "internalType": "address",
          "name": "_foundationAddr",
          "type": "address"
        }
      ],
      "name": "initialize",
      "outputs": [],
      "stateMutability": "nonpayable",
      "type": "function"
    },
    {
      "inputs": [],
      "name": "maxMeshHeats",
      "outputs": [
        {
          "internalType": "uint256",
          "name": "",
          "type": "uint256"
        }
      ],
      "stateMutability": "view",
      "type": "function"
    },
    {
      "inputs": [],
      "name": "name",
      "outputs": [
        {
          "internalType": "string",
          "name": "",
          "type": "string"
        }
      ],
      "stateMutability": "view",
      "type": "function"
    },
    {
      "inputs": [
        {
          "internalType": "address",
          "name": "",
          "type": "address"
        }
      ],
      "name": "rankWithdrawAmount",
      "outputs": [
        {
          "internalType": "uint256",
          "name": "",
          "type": "uint256"
        }
      ],
      "stateMutability": "view",
      "type": "function"
    },
    {
      "inputs": [
        {
          "internalType": "uint256",
          "name": "amount",
          "type": "uint256"
        },
        {
          "internalType": "uint256",
          "name": "term",
          "type": "uint256"
        }
      ],
      "name": "stake",
      "outputs": [],
      "stateMutability": "nonpayable",
      "type": "function"
    },
    {
      "inputs": [
        {
          "internalType": "address",
          "name": "",
          "type": "address"
        }
      ],
      "name": "stakeValues",
      "outputs": [
        {
          "internalType": "uint256",
          "name": "",
          "type": "uint256"
        }
      ],
      "stateMutability": "view",
      "type": "function"
    },
    {
      "inputs": [],
      "name": "symbol",
      "outputs": [
        {
          "internalType": "string",
          "name": "",
          "type": "string"
        }
      ],
      "stateMutability": "view",
      "type": "function"
    },
    {
      "inputs": [],
      "name": "totalEarn",
      "outputs": [
        {
          "internalType": "uint256",
          "name": "",
          "type": "uint256"
        }
      ],
      "stateMutability": "view",
      "type": "function"
    },
    {
      "inputs": [],
      "name": "totalNGPStaked",
      "outputs": [
        {
          "internalType": "uint256",
          "name": "",
          "type": "uint256"
        }
      ],
      "stateMutability": "view",
      "type": "function"
    },
    {
      "inputs": [],
      "name": "totalSupply",
      "outputs": [
        {
          "internalType": "uint256",
          "name": "",
          "type": "uint256"
        }
      ],
      "stateMutability": "view",
      "type": "function"
    },
    {
      "inputs": [
        {
          "internalType": "address",
          "name": "to",
          "type": "address"
        },
        {
          "internalType": "uint256",
          "name": "amount",
          "type": "uint256"
        }
      ],
      "name": "transfer",
      "outputs": [
        {
          "internalType": "bool",
          "name": "",
          "type": "bool"
        }
      ],
      "stateMutability": "nonpayable",
      "type": "function"
    },
    {
      "inputs": [
        {
          "internalType": "address",
          "name": "from",
          "type": "address"
        },
        {
          "internalType": "address",
          "name": "to",
          "type": "address"
        },
        {
          "internalType": "uint256",
          "name": "amount",
          "type": "uint256"
        }
      ],
      "name": "transferFrom",
      "outputs": [
        {
          "internalType": "bool",
          "name": "",
          "type": "bool"
        }
      ],
      "stateMutability": "nonpayable",
      "type": "function"
    },
    {
      "inputs": [],
      "name": "treasuryValue",
      "outputs": [
        {
          "internalType": "uint256",
          "name": "",
          "type": "uint256"
        }
      ],
      "stateMutability": "view",
      "type": "function"
    },
    {
      "inputs": [
        {
          "internalType": "address",
          "name": "",
          "type": "address"
        }
      ],
      "name": "unWithDrawAmount",
      "outputs": [
        {
          "internalType": "uint256",
          "name": "",
          "type": "uint256"
        }
      ],
      "stateMutability": "view",
      "type": "function"
    },
    {
      "inputs": [
        {
          "internalType": "string",
          "name": "",
          "type": "string"
        },
        {
          "internalType": "uint256",
          "name": "",
          "type": "uint256"
        }
      ],
      "name": "userApplys",
      "outputs": [
        {
          "internalType": "address",
          "name": "",
          "type": "address"
        }
      ],
      "stateMutability": "view",
      "type": "function"
    },
    {
      "inputs": [
        {
          "internalType": "address",
          "name": "",
          "type": "address"
        },
        {
          "internalType": "string",
          "name": "",
          "type": "string"
        }
      ],
      "name": "userMints",
      "outputs": [
        {
          "internalType": "address",
          "name": "user",
          "type": "address"
        },
        {
          "internalType": "string",
          "name": "number",
          "type": "string"
        },
        {
          "internalType": "uint256",
          "name": "updateTs",
          "type": "uint256"
        },
        {
          "internalType": "uint256",
          "name": "withdrawTs",
          "type": "uint256"
        }
      ],
      "stateMutability": "view",
      "type": "function"
    },
    {
      "inputs": [
        {
          "internalType": "address",
          "name": "",
          "type": "address"
        },
        {
          "internalType": "uint256",
          "name": "",
          "type": "uint256"
        }
      ],
      "name": "userNumbers",
      "outputs": [
        {
          "internalType": "string",
          "name": "",
          "type": "string"
        }
      ],
      "stateMutability": "view",
      "type": "function"
    },
    {
      "inputs": [
        {
          "internalType": "address",
          "name": "",
          "type": "address"
        }
      ],
      "name": "userStakes",
      "outputs": [
        {
          "internalType": "uint256",
          "name": "term",
          "type": "uint256"
        },
        {
          "internalType": "uint256",
          "name": "maturityTs",
          "type": "uint256"
        },
        {
          "internalType": "uint256",
          "name": "amount",
          "type": "uint256"
        }
      ],
      "stateMutability": "view",
      "type": "function"
    },
    {
      "inputs": [
        {
          "internalType": "address",
          "name": "_sender",
          "type": "address"
        },
        {
          "internalType": "uint8[]",
          "name": "vs",
          "type": "uint8[]"
        },
        {
          "internalType": "bytes32[]",
          "name": "rs",
          "type": "bytes32[]"
        },
        {
          "internalType": "bytes32[]",
          "name": "ss",
          "type": "bytes32[]"
        }
      ],
      "name": "validSignature",
      "outputs": [
        {
          "internalType": "bool",
          "name": "",
          "type": "bool"
        }
      ],
      "stateMutability": "view",
      "type": "function"
    },
    {
      "inputs": [],
      "name": "withdraw",
      "outputs": [],
      "stateMutability": "nonpayable",
      "type": "function"
    },
    {
      "inputs": [
        {
          "internalType": "address",
          "name": "",
          "type": "address"
        }
      ],
      "name": "withdrawAmount",
      "outputs": [
        {
          "internalType": "uint256",
          "name": "",
          "type": "uint256"
        }
      ],
      "stateMutability": "view",
      "type": "function"
    }
  ],
  "transactionHash": "0xf09dd49093f6b7bca7727c319dd2865be9ba0ece40f33e8577d040e5de9977e7",
  "args": [],
  "numDeployments": 6,
  "solcInputHash": "8256064d916378bc9cfe180e2283bce7",
  "bytecode": "0x608060405234801561001057600080fd5b50613795806100206000396000f3fe608060405234801561001057600080fd5b50600436106103425760003560e01c8063890d3b27116101b8578063c345315311610104578063e3c41c4e116100a2578063ed2f23691161007c578063ed2f2369146107f5578063f01d110c146107fe578063f9a18ba514610807578063fb1c8b9f1461082757600080fd5b8063e3c41c4e14610792578063e9cabce7146107c2578063ebcdbc2d146107d557600080fd5b8063cb92ef4a116100de578063cb92ef4a1461074d578063dd62ed3e1461076d578063dffd722f14610780578063e3af6d0a1461078957600080fd5b8063c3453153146106dd578063c6a2a9f114610725578063cb48e3c61461072d57600080fd5b8063a673471511610171578063b4800cdc1161014b578063b4800cdc14610679578063bcfd8dbf14610682578063c18fab1414610695578063c293d09b146106ca57600080fd5b8063a673471514610635578063a6a5ff921461063e578063a9059cbb1461066657600080fd5b8063890d3b27146105845780638da7ad23146105af5780638ed4064a146105f9578063903993181461060257806395d89b411461061a578063a457c2d71461062257600080fd5b80633adfe5ea116102925780635f7bb9321161023057806370a082311161020a57806370a082311461052257806372483bf91461054b5780637b0472f01461055e5780638283cef61461057157600080fd5b80635f7bb932146104d657806361a52a36146104f65780636e5d8280146104ff57600080fd5b80633d7af48f1161026c5780633d7af48f146104915780634c2346fa1461049a5780634f420151146104ad5780635cad385c146104cd57600080fd5b80633adfe5ea146104785780633bcfc4b8146104805780633ccfd60b1461048957600080fd5b806318160ddd116102ff57806323b872dd116102d957806323b872dd146104235780632c2d0a0c14610436578063313ce56714610456578063395093511461046557600080fd5b806318160ddd146103e75780631c02b1f4146103ef5780631dca03bc146103f857600080fd5b806306fdde0314610347578063095ea7b3146103655780630aedb5ba146103885780630bfbba011461039f5780630ffcccff146103b257806313066240146103d2575b600080fd5b61034f61084a565b60405161035c9190612e48565b60405180910390f35b610378610373366004612e77565b6108dc565b604051901515815260200161035c565b61039160655481565b60405190815260200161035c565b61034f6103ad366004612e77565b6108f6565b6103916103c0366004612ea1565b60836020526000908152604090205481565b6103e56103e0366004612f6f565b6109af565b005b603554610391565b61039160765481565b610391610406366004612f6f565b805160208183018101805160688252928201919093012091525481565b610378610431366004612fab565b6110a5565b610391610444366004612ea1565b60856020526000908152604090205481565b6040516012815260200161035c565b610378610473366004612e77565b6110cb565b6103e56110ed565b61039160795481565b6103e5611104565b61039160745481565b6103786104a83660046130e0565b6112cb565b6103916104bb366004613178565b606a6020526000908152604090205481565b61039160775481565b6103916104e4366004613178565b60826020526000908152604090205481565b61039160785481565b61037861050d366004612ea1565b607f6020526000908152604090205460ff1681565b610391610530366004613178565b6001600160a01b031660009081526033602052604090205490565b6103e5610559366004613193565b6115af565b6103e561056c36600461321e565b611830565b6103e561057f366004612e77565b611a02565b608154610597906001600160a01b031681565b6040516001600160a01b03909116815260200161035c565b6105de6105bd366004613178565b607d6020526000908152604090208054600182015460029092015490919083565b6040805193845260208401929092529082015260600161035c565b610391607b5481565b61060a611a10565b60405161035c949392919061327b565b61034f611bbe565b610378610630366004612e77565b611bcd565b61039160755481565b610646611c53565b60408051948552602085019390935291830152606082015260800161035c565b610378610674366004612e77565b611ca9565b61039160735481565b610391610690366004613178565b611cb7565b61069d611cfa565b604080519687526020870195909552938501929092526060840152608083015260a082015260c00161035c565b6105976106d83660046132c5565b611d4c565b6106f06106eb366004613178565b611d93565b604080519788526020880196909652948601939093526060850191909152608084015260a083015260c082015260e00161035c565b606e54610391565b61039161073b366004613178565b606b6020526000908152604090205481565b61039161075b366004612ea1565b607e6020526000908152604090205481565b61039161077b366004613309565b611e64565b610391607c5481565b61039160725481565b61079a611e8f565b604080519586526020860194909452928401919091526060830152608082015260a00161035c565b6103e56107d036600461333c565b611ec2565b6103916107e3366004612ea1565b60846020526000908152604090205481565b610391607a5481565b61039160805481565b610391610815366004613178565b606c6020526000908152604090205481565b61083a6108353660046133de565b6123ed565b60405161035c949392919061342b565b60606036805461085990613462565b80601f016020809104026020016040519081016040528092919081815260200182805461088590613462565b80156108d25780601f106108a7576101008083540402835291602001916108d2565b820191906000526020600020905b8154815290600101906020018083116108b557829003601f168201915b5050505050905090565b6000336108ea8185856124c4565b60019150505b92915050565b6069602052816000526040600020818154811061091257600080fd5b9060005260206000200160009150915050805461092e90613462565b80601f016020809104026020016040519081016040528092919081815260200182805461095a90613462565b80156109a75780601f1061097c576101008083540402835291602001916109a7565b820191906000526020600020905b81548152906001019060200180831161098a57829003601f168201915b505050505081565b3360009081526066602052604080822090516109cc90849061349d565b9081526040805191829003602090810183206080840190925281546001600160a01b0316835260018201805491840191610a0590613462565b80601f0160208091040260200160405190810160405280929190818152602001828054610a3190613462565b8015610a7e5780601f10610a5357610100808354040283529160200191610a7e565b820191906000526020600020905b815481529060010190602001808311610a6157829003601f168201915b505050505081526020016002820154815260200160038201548152505090508060400151600014610af65760405162461bcd60e51b815260206004820152601e60248201527f6d4e47503a204d696e7420616c726561647920696e2070726f6772657373000060448201526064015b60405180910390fd5b6000606783604051610b08919061349d565b9081526040519081900360200190205490508015610b77576000600a606885604051610b34919061349d565b908152602001604051809103902054610b4d91906134cf565b90508060776000828254610b6191906134f1565b90915550610b71905033826125e9565b50610b8d565b60748054906000610b8783613509565b91905055505b6020808301849052338084524260408086018290526060860191909152600091825260669092528190209051839190610bc790869061349d565b90815260405160209181900382019020825181546001600160a01b0319166001600160a01b039091161781558282015180519192610c0d92600185019290910190612d57565b506040820151600282015560609091015160039091015560005b606784604051610c37919061349d565b90815260405190819003602001902054811015610dc7576000606785604051610c60919061349d565b90815260200160405180910390208281548110610c7f57610c7f613524565b60009182526020808320909101546078546001600160a01b039091168084526066909252604080842090519294509091610cba90899061349d565b90815260200160405180910390206003015442610cd7919061353a565b610ce191906134cf565b9050600084610cf283611a0b613551565b610cfc91906134cf565b9050610d0960018361353a565b610d14906002613654565b610d1f9060016134cf565b610d2a90600261353a565b610d349082613551565b6001600160a01b0384166000908152606660205260409081902090519192504291610d60908a9061349d565b90815260200160405180910390206003018190555080606a6000856001600160a01b03166001600160a01b031681526020019081526020016000206000828254610daa91906134f1565b925050819055505050508080610dbf90613509565b915050610c27565b50606783604051610dd8919061349d565b90815260405190819003602090810182208054600181018255600091825291812090910180546001600160a01b0319163317905590606790610e1b90869061349d565b9081526040519081900360200190205490506000610e3a826064613654565b610e4583606a613654565b610e4f91906134cf565b610e5b90611a0b613551565b905080606886604051610e6e919061349d565b9081526020016040518091039020819055507f59e5850dcc95c661724724551ae5a3867d66304146b1b789a8224315330a798f8582604051610eb1929190613660565b60405180910390a1607654811115610ec95760768190555b33600090815260696020908152604082208054600181018255908352918190208751610efc939190910191880190612d57565b50336000908152606d602052604090205460ff16610f445760738054906000610f2483613509565b9091555050336000908152606d60205260409020805460ff191660011790555b600060785442610f5491906134cf565b9050607f6000610f6560018461353a565b815260208101919091526040016000205460ff16158015610fa05750607854610f8f906003613551565b607254610f9c91906134f1565b4210155b1561104d57607454610fb6906307b98a0061353a565b610fc290611a0b613551565b607e6000610fd160028561353a565b815260200190815260200160002054611a0b610fed919061353a565b610ff791906134f1565b6110069064174876e800613551565b6080600082825461101791906134f1565b9091555060019050607f600061102d838561353a565b81526020810191909152604001600020805460ff19169115159190911790555b6075805490600061105d83613509565b91905055507f1309ab74031e37b46ee8ce9ff667a17a5c69a500a05d167e4c89ad8b0bc40bf933874260405161109593929190613682565b60405180910390a1505050505050565b6000336110b385828561271a565b6110be858585612794565b60019150505b9392505050565b6000336108ea8185856110de8383611e64565b6110e891906134f1565b6124c4565b606e80549060006110fd83613509565b9190505550565b336000908152607d6020908152604091829020825160608101845281548152600182015492810192909252600201549181018290529061117d5760405162461bcd60e51b81526020600482015260146024820152734e47503a206e6f207374616b652065786973747360601b6044820152606401610aed565b600061119682604001518360000151846020015161293f565b905060008183604001516111aa91906134f1565b90506000607854607254426111bf919061353a565b6111c991906134cf565b336000908152608260205260408120805492935085929091906111ed9084906134f1565b9250508190555082607c600082825461120691906134f1565b9091555050607a805490600061121b836136b6565b91905055508360400151607b6000828254611236919061353a565b9091555050600081815260856020526040812080548492906112599084906134f1565b9091555061126990503383612984565b60408085015181519081526020810185905233917f92ccf450a286a957af52509bc1c9939d1a6a481783e142e41e2499f0bb66ebc6910160405180910390a25050336000908152607d6020526040812081815560018101829055600201555050565b600082518451146113175760405162461bcd60e51b81526020600482015260166024820152750ece65cd8cadccee8d0407a7a40e4e65cd8cadccee8d60531b6044820152606401610aed565b81518351146113615760405162461bcd60e51b81526020600482015260166024820152750e4e65cd8cadccee8d0407a7a40e6e65cd8cadccee8d60531b6044820152606401610aed565b607054845111156113b45760405162461bcd60e51b815260206004820152601a60248201527f76732e6c656e677468203c3d206f776e6572732e6c656e6774680000000000006044820152606401610aed565b607154845110156113ff5760405162461bcd60e51b81526020600482015260156024820152741d9ccb9b195b99dd1a080f8f481c995c5d5a5c9959605a1b6044820152606401610aed565b600061140a866129d6565b9050600085516001600160401b0381111561142757611427612eba565b604051908082528060200260200182016040528015611450578160200160208202803683370190505b50905060005b865181101561155a5760018388838151811061147457611474613524565b6020026020010151601b61148891906136cd565b88848151811061149a5761149a613524565b60200260200101518885815181106114b4576114b4613524565b6020026020010151604051600081526020016040526040516114f2949392919093845260ff9290921660208401526040830152606082015260800190565b6020604051602081039080840390855afa158015611514573d6000803e3d6000fd5b5050506020604051035182828151811061153057611530613524565b6001600160a01b03909216602092830291909101909101528061155281613509565b915050611456565b5061156481612a98565b6115a25760405162461bcd60e51b815260206004820152600f60248201526e5f64697374696e63744f776e65727360881b6044820152606401610aed565b5060019695505050505050565b600054610100900460ff16158080156115cf5750600054600160ff909116105b806115e95750303b1580156115e9575060005460ff166001145b61164c5760405162461bcd60e51b815260206004820152602e60248201527f496e697469616c697a61626c653a20636f6e747261637420697320616c72656160448201526d191e481a5b9a5d1a585b1a5e995960921b6064820152608401610aed565b6000805460ff19166001179055801561166f576000805461ff0019166101001790555b6116b96040518060400160405280600b81526020016a22a0a92a24102a37b5b2b760a91b8152506040518060400160405280600581526020016408a82a4a8960db1b815250612b93565b60005b8481101561179e5760008686838181106116d8576116d8613524565b90506020020160208101906116ed9190613178565b6001600160a01b0381166000908152606f602052604090205490915060ff168061171e57506001600160a01b038116155b1561172857600080fd5b6001600160a01b03166000818152606f60205260408120805460ff191660019081179091556070805491820181559091527f8f6b23ffa15f0465e3176e15ca644cf24f86dc1312fe715484e3c4aead5eb78b0180546001600160a01b03191690911790558061179681613509565b9150506116bc565b506117aa6002856134cf565b6117b59060016134f1565b60715562015180607855426072556079839055608180546001600160a01b0319166001600160a01b0384161790558015611829576000805461ff0019169055604051600181527f7f26b83ff96e1f2b6a682f133852f6798a09c465da95921460cefb38474024989060200160405180910390a15b5050505050565b3360009081526033602052604090205482111561188f5760405162461bcd60e51b815260206004820152601760248201527f4e47503a206e6f7420656e6f7567682062616c616e63650000000000000000006044820152606401610aed565b600082116118d15760405162461bcd60e51b815260206004820152600f60248201526e04e47503a20616d6f756e74203e203608c1b6044820152606401610aed565b60018110156119135760405162461bcd60e51b815260206004820152600e60248201526d4e47503a207465726d203e3d203160901b6044820152606401610aed565b336000908152607d6020526040902060020154156119675760405162461bcd60e51b81526020600482015260116024820152704e47503a207374616b652065786973747360781b6044820152606401610aed565b61197133836125e9565b61197b8282612bc4565b60006078546072544261198e919061353a565b61199891906134cf565b9050826084600083815260200190815260200160002060008282546119bd91906134f1565b9091555050604080518481526020810184905233917f1449c6dd7851abc30abf37f57715f492010519147cc2652fbc38202c18a6ee90910160405180910390a2505050565b611a0c8282612c4c565b5050565b60006060806060600060785460725442611a2a919061353a565b611a3491906134cf565b9050806001600160401b03811115611a4e57611a4e612eba565b604051908082528060200260200182016040528015611a77578160200160208202803683370190505b509350806001600160401b03811115611a9257611a92612eba565b604051908082528060200260200182016040528015611abb578160200160208202803683370190505b509250806001600160401b03811115611ad657611ad6612eba565b604051908082528060200260200182016040528015611aff578160200160208202803683370190505b509150607254945060005b81811015611bb6576000818152608360205260409020548551869083908110611b3557611b35613524565b6020026020010181815250506084600082815260200190815260200160002054848281518110611b6757611b67613524565b6020026020010181815250506085600082815260200190815260200160002054838281518110611b9957611b99613524565b602090810291909101015280611bae81613509565b915050611b0a565b505090919293565b60606037805461085990613462565b60003381611bdb8286611e64565b905083811015611c3b5760405162461bcd60e51b815260206004820152602560248201527f45524332303a2064656372656173656420616c6c6f77616e63652062656c6f77604482015264207a65726f60d81b6064820152608401610aed565b611c4882868684036124c4565b506001949350505050565b600080600080607354935060785460725442611c6f919061353a565b611c7991906134cf565b9250611c8460355490565b30600090815260336020526040902054909250611ca1908361353a565b905090919293565b6000336108ea818585612794565b6001600160a01b0381166000908152607d6020526040812060020154611cdb575060005b506001600160a01b03166000908152607d602052604090206001015490565b600080600080600080611d0c60355490565b3060009081526033602052604080822054607754607b546080546081546001600160a01b031686529390942054949b919a50985091965094509092509050565b81516020818401810180516067825292820191850191909120919052805482908110611d7757600080fd5b6000918252602090912001546001600160a01b03169150829050565b60008060008060008060006005607b546001611daf9190613551565b611db991906134cf565b96506005607c546001611dcc9190613551565b611dd691906134cf565b607c546001600160a01b038a166000908152607d602052604090206001015491975095504211611e23576001600160a01b0388166000908152607d60205260409020600201549350611e28565b600093505b50506079546001600160a01b039096166000908152607d6020908152604080832060020154608290925290912054959794969395929490929150565b6001600160a01b03918216600090815260346020908152604080832093909416825291909152205490565b60735460755460745460765460785460725460009190611eaf904261353a565b611eb991906134cf565b90509091929394565b336000908152606f602052604090205460ff16611f0d5760405162461bcd60e51b81526020600482015260096024820152683737ba1037bbb732b960b91b6044820152606401610aed565b611f19858484846112cb565b611f5a5760405162461bcd60e51b8152602060048201526012602482015271696e76616c6964207369676e61747572657360701b6044820152606401610aed565b606e54611f689060016134f1565b606e556078546000908190611f7d90426134cf565b905060005b6001600160a01b038816600090815260696020526040902054811015612200576001600160a01b0388166000908152606960205260408120805483908110611fcc57611fcc613524565b906000526020600020018054611fe190613462565b80601f016020809104026020016040519081016040528092919081815260200182805461200d90613462565b801561205a5780601f1061202f5761010080835404028352916020019161205a565b820191906000526020600020905b81548152906001019060200180831161203d57829003601f168201915b505050505090506000606782604051612073919061349d565b9081526040805160209281900383018120546078546001600160a01b038f1660009081526066909552928420909450906120ae90869061349d565b908152602001604051809103902060030154426120cb919061353a565b6120d591906134cf565b90506000826120e683611a0b613551565b6120f091906134cf565b90506001821061212d5780607e600061210a60018a61353a565b8152602001908152602001600020600082825461212791906134f1565b90915550505b61213860018361353a565b612143906002613654565b61214e9060016134cf565b61215990600261353a565b6121639082613551565b61216d90886134f1565b6001600160a01b038d16600090815260666020526040908190209051919850429161219990879061349d565b9081526020016040518091039020600301819055507ff498e0b0d0e3ef52fe21a90b9ea81effdeee405ca5fd31bf66845b803a4959863385426040516121e193929190613682565b60405180910390a15050505080806121f890613509565b915050611f82565b50607f600061221060018461353a565b815260208101919091526040016000205460ff1615801561224b575060785461223a906003613551565b60725461224791906134f1565b4210155b1561231e5760006074546307b98a00612264919061353a565b61227090611a0b613551565b607e600061227f60028661353a565b815260200190815260200160002054611a0b61229b919061353a565b6122a591906134f1565b6122b49064174876e800613551565b905080608060008282546122c891906134f1565b90915550506081546122ed906001600160a01b03166122e86005846134cf565b612984565b6001607f60006122fd838661353a565b81526020810191909152604001600020805460ff1916911515919091179055505b6001600160a01b0387166000908152606a602052604081205460649061234490856134f1565b61234f90600a613551565b61235991906134cf565b6123689064174876e800613551565b6001600160a01b0389166000908152606a60205260408120549192509060649061239290866134f1565b61239d90605a613551565b6123a791906134cf565b336000908152606b6020526040902081905590506123c9896122e88a856134f1565b5050506001600160a01b039095166000908152606a60205260408120555050505050565b60666020908152600092835260409092208151808301840180519281529084019290930191909120915280546001820180546001600160a01b03909216929161243590613462565b80601f016020809104026020016040519081016040528092919081815260200182805461246190613462565b80156124ae5780601f10612483576101008083540402835291602001916124ae565b820191906000526020600020905b81548152906001019060200180831161249157829003601f168201915b5050505050908060020154908060030154905084565b6001600160a01b0383166125265760405162461bcd60e51b8152602060048201526024808201527f45524332303a20617070726f76652066726f6d20746865207a65726f206164646044820152637265737360e01b6064820152608401610aed565b6001600160a01b0382166125875760405162461bcd60e51b815260206004820152602260248201527f45524332303a20617070726f766520746f20746865207a65726f206164647265604482015261737360f01b6064820152608401610aed565b6001600160a01b0383811660008181526034602090815260408083209487168084529482529182902085905590518481527f8c5be1e5ebec7d5bd14f71427d1e84f3dd0314c0f7b2291e5b200ac8c7c3b92591015b60405180910390a3505050565b6001600160a01b0382166126495760405162461bcd60e51b815260206004820152602160248201527f45524332303a206275726e2066726f6d20746865207a65726f206164647265736044820152607360f81b6064820152608401610aed565b6001600160a01b038216600090815260336020526040902054818110156126bd5760405162461bcd60e51b815260206004820152602260248201527f45524332303a206275726e20616d6f756e7420657863656564732062616c616e604482015261636560f01b6064820152608401610aed565b6001600160a01b03831660008181526033602090815260408083208686039055603580548790039055518581529192917fddf252ad1be2c89b69c2b068fc378daa952ba7f163c4a11628f55a4df523b3ef91016125dc565b505050565b60006127268484611e64565b9050600019811461278e57818110156127815760405162461bcd60e51b815260206004820152601d60248201527f45524332303a20696e73756666696369656e7420616c6c6f77616e63650000006044820152606401610aed565b61278e84848484036124c4565b50505050565b6001600160a01b0383166127f85760405162461bcd60e51b815260206004820152602560248201527f45524332303a207472616e736665722066726f6d20746865207a65726f206164604482015264647265737360d81b6064820152608401610aed565b6001600160a01b03821661285a5760405162461bcd60e51b815260206004820152602360248201527f45524332303a207472616e7366657220746f20746865207a65726f206164647260448201526265737360e81b6064820152608401610aed565b6001600160a01b038316600090815260336020526040902054818110156128d25760405162461bcd60e51b815260206004820152602660248201527f45524332303a207472616e7366657220616d6f756e7420657863656564732062604482015265616c616e636560d01b6064820152608401610aed565b6001600160a01b0380851660008181526033602052604080822086860390559286168082529083902080548601905591517fddf252ad1be2c89b69c2b068fc378daa952ba7f163c4a11628f55a4df523b3ef906129329086815260200190565b60405180910390a361278e565b60008142111561297a576000836079546129599190613551565b90506127106129688287613551565b61297291906134cf565b9150506110c4565b5060009392505050565b600060785460725442612997919061353a565b6129a191906134cf565b9050816083600083815260200190815260200160002060008282546129c691906134f1565b9091555061271590508383612c4c565b600080612a2a83606e546040805160609390931b6bffffffffffffffffffffffff19166020808501919091524660348501526054808501939093528151808503909301835260749093019052805191012090565b905060006040518060400160405280601c81526020017f19457468657265756d205369676e6564204d6573736167653a0a33320000000081525090508082604051602001612a799291906136f2565b6040516020818303038152906040528051906020012092505050919050565b60705481516000911015612aae57506000919050565b60005b8251811015612b8a57606f6000848381518110612ad057612ad0613524565b6020908102919091018101516001600160a01b031682528101919091526040016000205460ff16612b045750600092915050565b60005b81811015612b7757838181518110612b2157612b21613524565b60200260200101516001600160a01b0316848381518110612b4457612b44613524565b60200260200101516001600160a01b03161415612b65575060009392505050565b80612b6f81613509565b915050612b07565b5080612b8281613509565b915050612ab1565b50600192915050565b600054610100900460ff16612bba5760405162461bcd60e51b8152600401610aed90613714565b611a0c8282612d0d565b604051806060016040528082815260200160785483612be39190613551565b612bed90426134f1565b81526020908101849052336000908152607d82526040808220845181559284015160018401559290920151600290910155607a805491612c2c83613509565b919050555081607b6000828254612c4391906134f1565b90915550505050565b6001600160a01b038216612ca25760405162461bcd60e51b815260206004820152601f60248201527f45524332303a206d696e7420746f20746865207a65726f2061646472657373006044820152606401610aed565b8060356000828254612cb491906134f1565b90915550506001600160a01b0382166000818152603360209081526040808320805486019055518481527fddf252ad1be2c89b69c2b068fc378daa952ba7f163c4a11628f55a4df523b3ef910160405180910390a35050565b600054610100900460ff16612d345760405162461bcd60e51b8152600401610aed90613714565b8151612d47906036906020850190612d57565b5080516127159060379060208401905b828054612d6390613462565b90600052602060002090601f016020900481019282612d855760008555612dcb565b82601f10612d9e57805160ff1916838001178555612dcb565b82800160010185558215612dcb579182015b82811115612dcb578251825591602001919060010190612db0565b50612dd7929150612ddb565b5090565b5b80821115612dd75760008155600101612ddc565b60005b83811015612e0b578181015183820152602001612df3565b8381111561278e5750506000910152565b60008151808452612e34816020860160208601612df0565b601f01601f19169290920160200192915050565b6020815260006110c46020830184612e1c565b80356001600160a01b0381168114612e7257600080fd5b919050565b60008060408385031215612e8a57600080fd5b612e9383612e5b565b946020939093013593505050565b600060208284031215612eb357600080fd5b5035919050565b634e487b7160e01b600052604160045260246000fd5b604051601f8201601f191681016001600160401b0381118282101715612ef857612ef8612eba565b604052919050565b600082601f830112612f1157600080fd5b81356001600160401b03811115612f2a57612f2a612eba565b612f3d601f8201601f1916602001612ed0565b818152846020838601011115612f5257600080fd5b816020850160208301376000918101602001919091529392505050565b600060208284031215612f8157600080fd5b81356001600160401b03811115612f9757600080fd5b612fa384828501612f00565b949350505050565b600080600060608486031215612fc057600080fd5b612fc984612e5b565b9250612fd760208501612e5b565b9150604084013590509250925092565b60006001600160401b0382111561300057613000612eba565b5060051b60200190565b600082601f83011261301b57600080fd5b8135602061303061302b83612fe7565b612ed0565b82815260059290921b8401810191818101908684111561304f57600080fd5b8286015b8481101561307a57803560ff8116811461306d5760008081fd5b8352918301918301613053565b509695505050505050565b600082601f83011261309657600080fd5b813560206130a661302b83612fe7565b82815260059290921b840181019181810190868411156130c557600080fd5b8286015b8481101561307a57803583529183019183016130c9565b600080600080608085870312156130f657600080fd5b6130ff85612e5b565b935060208501356001600160401b038082111561311b57600080fd5b6131278883890161300a565b9450604087013591508082111561313d57600080fd5b61314988838901613085565b9350606087013591508082111561315f57600080fd5b5061316c87828801613085565b91505092959194509250565b60006020828403121561318a57600080fd5b6110c482612e5b565b600080600080606085870312156131a957600080fd5b84356001600160401b03808211156131c057600080fd5b818701915087601f8301126131d457600080fd5b8135818111156131e357600080fd5b8860208260051b85010111156131f857600080fd5b60209283019650945050850135915061321360408601612e5b565b905092959194509250565b6000806040838503121561323157600080fd5b50508035926020909101359150565b600081518084526020808501945080840160005b8381101561327057815187529582019590820190600101613254565b509495945050505050565b8481526080602082015260006132946080830186613240565b82810360408401526132a68186613240565b905082810360608401526132ba8185613240565b979650505050505050565b600080604083850312156132d857600080fd5b82356001600160401b038111156132ee57600080fd5b6132fa85828601612f00565b95602094909401359450505050565b6000806040838503121561331c57600080fd5b61332583612e5b565b915061333360208401612e5b565b90509250929050565b600080600080600060a0868803121561335457600080fd5b61335d86612e5b565b94506020860135935060408601356001600160401b038082111561338057600080fd5b61338c89838a0161300a565b945060608801359150808211156133a257600080fd5b6133ae89838a01613085565b935060808801359150808211156133c457600080fd5b506133d188828901613085565b9150509295509295909350565b600080604083850312156133f157600080fd5b6133fa83612e5b565b915060208301356001600160401b0381111561341557600080fd5b61342185828601612f00565b9150509250929050565b6001600160a01b038516815260806020820181905260009061344f90830186612e1c565b6040830194909452506060015292915050565b600181811c9082168061347657607f821691505b6020821081141561349757634e487b7160e01b600052602260045260246000fd5b50919050565b600082516134af818460208701612df0565b9190910192915050565b634e487b7160e01b600052601160045260246000fd5b6000826134ec57634e487b7160e01b600052601260045260246000fd5b500490565b60008219821115613504576135046134b9565b500190565b600060001982141561351d5761351d6134b9565b5060010190565b634e487b7160e01b600052603260045260246000fd5b60008282101561354c5761354c6134b9565b500390565b600081600019048311821515161561356b5761356b6134b9565b500290565b600181815b808511156135ab578160001904821115613591576135916134b9565b8085161561359e57918102915b93841c9390800290613575565b509250929050565b6000826135c2575060016108f0565b816135cf575060006108f0565b81600181146135e557600281146135ef5761360b565b60019150506108f0565b60ff841115613600576136006134b9565b50506001821b6108f0565b5060208310610133831016604e8410600b841016171561362e575081810a6108f0565b6136388383613570565b806000190482111561364c5761364c6134b9565b029392505050565b60006110c483836135b3565b6040815260006136736040830185612e1c565b90508260208301529392505050565b6001600160a01b03841681526060602082018190526000906136a690830185612e1c565b9050826040830152949350505050565b6000816136c5576136c56134b9565b506000190190565b600060ff821660ff84168060ff038211156136ea576136ea6134b9565b019392505050565b60008351613704818460208801612df0565b9190910191825250602001919050565b6020808252602b908201527f496e697469616c697a61626c653a20636f6e7472616374206973206e6f74206960408201526a6e697469616c697a696e6760a81b60608201526080019056fea2646970667358221220f6adf8eed4f5e574aa710d650474540d05b2772adb6f9e962bd4d21d2e7ca6ef64736f6c63430008080033",
  "devdoc": {
    "kind": "dev",
    "methods": {
      "allowance(address,address)": {
        "details": "See {IERC20-allowance}."
      },
      "approve(address,uint256)": {
        "details": "See {IERC20-approve}. NOTE: If `amount` is the maximum `uint256`, the allowance is not updated on `transferFrom`. This is semantically equivalent to an infinite approval. Requirements: - `spender` cannot be the zero address."
      },
      "balanceOf(address)": {
        "details": "See {IERC20-balanceOf}."
      },
      "decimals()": {
        "details": "Returns the number of decimals used to get its user representation. For example, if `decimals` equals `2`, a balance of `505` tokens should be displayed to a user as `5.05` (`505 / 10 ** 2`). Tokens usually opt for a value of 18, imitating the relationship between Ether and Wei. This is the value {ERC20} uses, unless this function is overridden; NOTE: This information is only used for _display_ purposes: it in no way affects any of the arithmetic of the contract, including {IERC20-balanceOf} and {IERC20-transfer}."
      },
      "decreaseAllowance(address,uint256)": {
        "details": "Atomically decreases the allowance granted to `spender` by the caller. This is an alternative to {approve} that can be used as a mitigation for problems described in {IERC20-approve}. Emits an {Approval} event indicating the updated allowance. Requirements: - `spender` cannot be the zero address. - `spender` must have allowance for the caller of at least `subtractedValue`."
      },
      "increaseAllowance(address,uint256)": {
        "details": "Atomically increases the allowance granted to `spender` by the caller. This is an alternative to {approve} that can be used as a mitigation for problems described in {IERC20-approve}. Emits an {Approval} event indicating the updated allowance. Requirements: - `spender` cannot be the zero address."
      },
      "name()": {
        "details": "Returns the name of the token."
      },
      "symbol()": {
        "details": "Returns the symbol of the token, usually a shorter version of the name."
      },
      "totalSupply()": {
        "details": "See {IERC20-totalSupply}."
      },
      "transfer(address,uint256)": {
        "details": "See {IERC20-transfer}. Requirements: - `to` cannot be the zero address. - the caller must have a balance of at least `amount`."
      },
      "transferFrom(address,address,uint256)": {
        "details": "See {IERC20-transferFrom}. Emits an {Approval} event indicating the updated allowance. This is not required by the EIP. See the note at the beginning of {ERC20}. NOTE: Does not update the allowance if the current allowance is the maximum `uint256`. Requirements: - `from` and `to` cannot be the zero address. - `from` must have a balance of at least `amount`. - the caller must have allowance for ``from``'s tokens of at least `amount`."
      }
    },
    "version": 1
  },
  "userdoc": {
    "kind": "user",
    "methods": {},
    "version": 1
  },
  "storageLayout": {
    "storage": [
      {
        "astId": 6,
        "contract": "contracts/NGP.sol:NGP",
        "label": "_initialized",
        "offset": 0,
        "slot": "0",
        "type": "t_uint8"
      },
      {
        "astId": 9,
        "contract": "contracts/NGP.sol:NGP",
        "label": "_initializing",
        "offset": 1,
        "slot": "0",
        "type": "t_bool"
      },
      {
        "astId": 1208,
        "contract": "contracts/NGP.sol:NGP",
        "label": "__gap",
        "offset": 0,
        "slot": "1",
        "type": "t_array(t_uint256)50_storage"
      },
      {
        "astId": 187,
        "contract": "contracts/NGP.sol:NGP",
        "label": "_balances",
        "offset": 0,
        "slot": "51",
        "type": "t_mapping(t_address,t_uint256)"
      },
      {
        "astId": 193,
        "contract": "contracts/NGP.sol:NGP",
        "label": "_allowances",
        "offset": 0,
        "slot": "52",
        "type": "t_mapping(t_address,t_mapping(t_address,t_uint256))"
      },
      {
        "astId": 195,
        "contract": "contracts/NGP.sol:NGP",
        "label": "_totalSupply",
        "offset": 0,
        "slot": "53",
        "type": "t_uint256"
      },
      {
        "astId": 197,
        "contract": "contracts/NGP.sol:NGP",
        "label": "_name",
        "offset": 0,
        "slot": "54",
        "type": "t_string_storage"
      },
      {
        "astId": 199,
        "contract": "contracts/NGP.sol:NGP",
        "label": "_symbol",
        "offset": 0,
        "slot": "55",
        "type": "t_string_storage"
      },
      {
        "astId": 779,
        "contract": "contracts/NGP.sol:NGP",
        "label": "__gap",
        "offset": 0,
        "slot": "56",
        "type": "t_array(t_uint256)45_storage"
      },
      {
        "astId": 1225,
        "contract": "contracts/NGP.sol:NGP",
        "label": "daySupply",
        "offset": 0,
        "slot": "101",
        "type": "t_uint256"
      },
      {
        "astId": 1232,
        "contract": "contracts/NGP.sol:NGP",
        "label": "userMints",
        "offset": 0,
        "slot": "102",
        "type": "t_mapping(t_address,t_mapping(t_string_memory_ptr,t_struct(MintInfo)1223_storage))"
      },
      {
        "astId": 1237,
        "contract": "contracts/NGP.sol:NGP",
        "label": "userApplys",
        "offset": 0,
        "slot": "103",
        "type": "t_mapping(t_string_memory_ptr,t_array(t_address)dyn_storage)"
      },
      {
        "astId": 1241,
        "contract": "contracts/NGP.sol:NGP",
        "label": "degreeHeats",
        "offset": 0,
        "slot": "104",
        "type": "t_mapping(t_string_memory_ptr,t_uint256)"
      },
      {
        "astId": 1246,
        "contract": "contracts/NGP.sol:NGP",
        "label": "userNumbers",
        "offset": 0,
        "slot": "105",
        "type": "t_mapping(t_address,t_array(t_string_storage)dyn_storage)"
      },
      {
        "astId": 1250,
        "contract": "contracts/NGP.sol:NGP",
        "label": "withdrawAmount",
        "offset": 0,
        "slot": "106",
        "type": "t_mapping(t_address,t_uint256)"
      },
      {
        "astId": 1254,
        "contract": "contracts/NGP.sol:NGP",
        "label": "unWithDrawAmount",
        "offset": 0,
        "slot": "107",
        "type": "t_mapping(t_address,t_uint256)"
      },
      {
        "astId": 1258,
        "contract": "contracts/NGP.sol:NGP",
        "label": "rankWithdrawAmount",
        "offset": 0,
        "slot": "108",
        "type": "t_mapping(t_address,t_uint256)"
      },
      {
        "astId": 1262,
        "contract": "contracts/NGP.sol:NGP",
        "label": "minters",
        "offset": 0,
        "slot": "109",
        "type": "t_mapping(t_address,t_bool)"
      },
      {
        "astId": 1264,
        "contract": "contracts/NGP.sol:NGP",
        "label": "spendNonce",
        "offset": 0,
        "slot": "110",
        "type": "t_uint256"
      },
      {
        "astId": 1268,
        "contract": "contracts/NGP.sol:NGP",
        "label": "isOwner",
        "offset": 0,
        "slot": "111",
        "type": "t_mapping(t_address,t_bool)"
      },
      {
        "astId": 1271,
        "contract": "contracts/NGP.sol:NGP",
        "label": "owners",
        "offset": 0,
        "slot": "112",
        "type": "t_array(t_address)dyn_storage"
      },
      {
        "astId": 1273,
        "contract": "contracts/NGP.sol:NGP",
        "label": "required",
        "offset": 0,
        "slot": "113",
        "type": "t_uint256"
      },
      {
        "astId": 1275,
        "contract": "contracts/NGP.sol:NGP",
        "label": "genesisTs",
        "offset": 0,
        "slot": "114",
        "type": "t_uint256"
      },
      {
        "astId": 1277,
        "contract": "contracts/NGP.sol:NGP",
        "label": "activeMinters",
        "offset": 0,
        "slot": "115",
        "type": "t_uint256"
      },
      {
        "astId": 1279,
        "contract": "contracts/NGP.sol:NGP",
        "label": "activeNumbers",
        "offset": 0,
        "slot": "116",
        "type": "t_uint256"
      },
      {
        "astId": 1281,
        "contract": "contracts/NGP.sol:NGP",
        "label": "claimMints",
        "offset": 0,
        "slot": "117",
        "type": "t_uint256"
      },
      {
        "astId": 1283,
        "contract": "contracts/NGP.sol:NGP",
        "label": "maxMeshHeats",
        "offset": 0,
        "slot": "118",
        "type": "t_uint256"
      },
      {
        "astId": 1285,
        "contract": "contracts/NGP.sol:NGP",
        "label": "destructions",
        "offset": 0,
        "slot": "119",
        "type": "t_uint256"
      },
      {
        "astId": 1287,
        "contract": "contracts/NGP.sol:NGP",
        "label": "SECONDS_IN_DAY",
        "offset": 0,
        "slot": "120",
        "type": "t_uint256"
      },
      {
        "astId": 1296,
        "contract": "contracts/NGP.sol:NGP",
        "label": "apy",
        "offset": 0,
        "slot": "121",
        "type": "t_uint256"
      },
      {
        "astId": 1298,
        "contract": "contracts/NGP.sol:NGP",
        "label": "activeStakes",
        "offset": 0,
        "slot": "122",
        "type": "t_uint256"
      },
      {
        "astId": 1300,
        "contract": "contracts/NGP.sol:NGP",
        "label": "totalNGPStaked",
        "offset": 0,
        "slot": "123",
        "type": "t_uint256"
      },
      {
        "astId": 1302,
        "contract": "contracts/NGP.sol:NGP",
        "label": "totalEarn",
        "offset": 0,
        "slot": "124",
        "type": "t_uint256"
      },
      {
        "astId": 1307,
        "contract": "contracts/NGP.sol:NGP",
        "label": "userStakes",
        "offset": 0,
        "slot": "125",
        "type": "t_mapping(t_address,t_struct(StakeInfo)1294_storage)"
      },
      {
        "astId": 1311,
        "contract": "contracts/NGP.sol:NGP",
        "label": "dayClaims",
        "offset": 0,
        "slot": "126",
        "type": "t_mapping(t_uint256,t_uint256)"
      },
      {
        "astId": 1315,
        "contract": "contracts/NGP.sol:NGP",
        "label": "dayClaimed",
        "offset": 0,
        "slot": "127",
        "type": "t_mapping(t_uint256,t_bool)"
      },
      {
        "astId": 1317,
        "contract": "contracts/NGP.sol:NGP",
        "label": "treasuryValue",
        "offset": 0,
        "slot": "128",
        "type": "t_uint256"
      },
      {
        "astId": 1319,
        "contract": "contracts/NGP.sol:NGP",
        "label": "FoundationAddr",
        "offset": 0,
        "slot": "129",
        "type": "t_address"
      },
      {
        "astId": 1323,
        "contract": "contracts/NGP.sol:NGP",
        "label": "stakeValues",
        "offset": 0,
        "slot": "130",
        "type": "t_mapping(t_address,t_uint256)"
      },
      {
        "astId": 1327,
        "contract": "contracts/NGP.sol:NGP",
        "label": "dayReceived",
        "offset": 0,
        "slot": "131",
        "type": "t_mapping(t_uint256,t_uint256)"
      },
      {
        "astId": 1331,
        "contract": "contracts/NGP.sol:NGP",
        "label": "dayStaked",
        "offset": 0,
        "slot": "132",
        "type": "t_mapping(t_uint256,t_uint256)"
      },
      {
        "astId": 1335,
        "contract": "contracts/NGP.sol:NGP",
        "label": "dayUnStaked",
        "offset": 0,
        "slot": "133",
        "type": "t_mapping(t_uint256,t_uint256)"
      }
    ],
    "types": {
      "t_address": {
        "encoding": "inplace",
        "label": "address",
        "numberOfBytes": "20"
      },
      "t_array(t_address)dyn_storage": {
        "base": "t_address",
        "encoding": "dynamic_array",
        "label": "address[]",
        "numberOfBytes": "32"
      },
      "t_array(t_string_storage)dyn_storage": {
        "base": "t_string_storage",
        "encoding": "dynamic_array",
        "label": "string[]",
        "numberOfBytes": "32"
      },
      "t_array(t_uint256)45_storage": {
        "base": "t_uint256",
        "encoding": "inplace",
        "label": "uint256[45]",
        "numberOfBytes": "1440"
      },
      "t_array(t_uint256)50_storage": {
        "base": "t_uint256",
        "encoding": "inplace",
        "label": "uint256[50]",
        "numberOfBytes": "1600"
      },
      "t_bool": {
        "encoding": "inplace",
        "label": "bool",
        "numberOfBytes": "1"
      },
      "t_mapping(t_address,t_array(t_string_storage)dyn_storage)": {
        "encoding": "mapping",
        "key": "t_address",
        "label": "mapping(address => string[])",
        "numberOfBytes": "32",
        "value": "t_array(t_string_storage)dyn_storage"
      },
      "t_mapping(t_address,t_bool)": {
        "encoding": "mapping",
        "key": "t_address",
        "label": "mapping(address => bool)",
        "numberOfBytes": "32",
        "value": "t_bool"
      },
      "t_mapping(t_address,t_mapping(t_address,t_uint256))": {
        "encoding": "mapping",
        "key": "t_address",
        "label": "mapping(address => mapping(address => uint256))",
        "numberOfBytes": "32",
        "value": "t_mapping(t_address,t_uint256)"
      },
      "t_mapping(t_address,t_mapping(t_string_memory_ptr,t_struct(MintInfo)1223_storage))": {
        "encoding": "mapping",
        "key": "t_address",
        "label": "mapping(address => mapping(string => struct NGP.MintInfo))",
        "numberOfBytes": "32",
        "value": "t_mapping(t_string_memory_ptr,t_struct(MintInfo)1223_storage)"
      },
      "t_mapping(t_address,t_struct(StakeInfo)1294_storage)": {
        "encoding": "mapping",
        "key": "t_address",
        "label": "mapping(address => struct NGP.StakeInfo)",
        "numberOfBytes": "32",
        "value": "t_struct(StakeInfo)1294_storage"
      },
      "t_mapping(t_address,t_uint256)": {
        "encoding": "mapping",
        "key": "t_address",
        "label": "mapping(address => uint256)",
        "numberOfBytes": "32",
        "value": "t_uint256"
      },
      "t_mapping(t_string_memory_ptr,t_array(t_address)dyn_storage)": {
        "encoding": "mapping",
        "key": "t_string_memory_ptr",
        "label": "mapping(string => address[])",
        "numberOfBytes": "32",
        "value": "t_array(t_address)dyn_storage"
      },
      "t_mapping(t_string_memory_ptr,t_struct(MintInfo)1223_storage)": {
        "encoding": "mapping",
        "key": "t_string_memory_ptr",
        "label": "mapping(string => struct NGP.MintInfo)",
        "numberOfBytes": "32",
        "value": "t_struct(MintInfo)1223_storage"
      },
      "t_mapping(t_string_memory_ptr,t_uint256)": {
        "encoding": "mapping",
        "key": "t_string_memory_ptr",
        "label": "mapping(string => uint256)",
        "numberOfBytes": "32",
        "value": "t_uint256"
      },
      "t_mapping(t_uint256,t_bool)": {
        "encoding": "mapping",
        "key": "t_uint256",
        "label": "mapping(uint256 => bool)",
        "numberOfBytes": "32",
        "value": "t_bool"
      },
      "t_mapping(t_uint256,t_uint256)": {
        "encoding": "mapping",
        "key": "t_uint256",
        "label": "mapping(uint256 => uint256)",
        "numberOfBytes": "32",
        "value": "t_uint256"
      },
      "t_string_memory_ptr": {
        "encoding": "bytes",
        "label": "string",
        "numberOfBytes": "32"
      },
      "t_string_storage": {
        "encoding": "bytes",
        "label": "string",
        "numberOfBytes": "32"
      },
      "t_struct(MintInfo)1223_storage": {
        "encoding": "inplace",
        "label": "struct NGP.MintInfo",
        "members": [
          {
            "astId": 1216,
            "contract": "contracts/NGP.sol:NGP",
            "label": "user",
            "offset": 0,
            "slot": "0",
            "type": "t_address"
          },
          {
            "astId": 1218,
            "contract": "contracts/NGP.sol:NGP",
            "label": "number",
            "offset": 0,
            "slot": "1",
            "type": "t_string_storage"
          },
          {
            "astId": 1220,
            "contract": "contracts/NGP.sol:NGP",
            "label": "updateTs",
            "offset": 0,
            "slot": "2",
            "type": "t_uint256"
          },
          {
            "astId": 1222,
            "contract": "contracts/NGP.sol:NGP",
            "label": "withdrawTs",
            "offset": 0,
            "slot": "3",
            "type": "t_uint256"
          }
        ],
        "numberOfBytes": "128"
      },
      "t_struct(StakeInfo)1294_storage": {
        "encoding": "inplace",
        "label": "struct NGP.StakeInfo",
        "members": [
          {
            "astId": 1289,
            "contract": "contracts/NGP.sol:NGP",
            "label": "term",
            "offset": 0,
            "slot": "0",
            "type": "t_uint256"
          },
          {
            "astId": 1291,
            "contract": "contracts/NGP.sol:NGP",
            "label": "maturityTs",
            "offset": 0,
            "slot": "1",
            "type": "t_uint256"
          },
          {
            "astId": 1293,
            "contract": "contracts/NGP.sol:NGP",
            "label": "amount",
            "offset": 0,
            "slot": "2",
            "type": "t_uint256"
          }
        ],
        "numberOfBytes": "96"
      },
      "t_uint256": {
        "encoding": "inplace",
        "label": "uint256",
        "numberOfBytes": "32"
      },
      "t_uint8": {
        "encoding": "inplace",
        "label": "uint8",
        "numberOfBytes": "1"
      }
    }
  }
}