{
  "address": "0x96F3f38F3bA3A7566325D58aa64526cF143B52aB",
  "abi": [
    {
      "anonymous": false,
      "inputs": [
        {
          "indexed": true,
          "internalType": "address",
          "name": "owner",
          "type": "address"
        },
        {
          "indexed": true,
          "internalType": "address",
          "name": "spender",
          "type": "address"
        },
        {
          "indexed": false,
          "internalType": "uint256",
          "name": "value",
          "type": "uint256"
        }
      ],
      "name": "Approval",
      "type": "event"
    },
    {
      "anonymous": false,
      "inputs": [
        {
          "indexed": false,
          "internalType": "address",
          "name": "user",
          "type": "address"
        },
        {
          "indexed": false,
          "internalType": "string",
          "name": "number",
          "type": "string"
        },
        {
          "indexed": false,
          "internalType": "uint256",
          "name": "time",
          "type": "uint256"
        }
      ],
      "name": "ClaimMint",
      "type": "event"
    },
    {
      "anonymous": false,
      "inputs": [
        {
          "indexed": false,
          "internalType": "address",
          "name": "user",
          "type": "address"
        },
        {
          "indexed": false,
          "internalType": "string",
          "name": "number",
          "type": "string"
        },
        {
          "indexed": false,
          "internalType": "uint256",
          "name": "time",
          "type": "uint256"
        }
      ],
      "name": "ClaimMintReward",
      "type": "event"
    },
    {
      "anonymous": false,
      "inputs": [
        {
          "indexed": false,
          "internalType": "string",
          "name": "number",
          "type": "string"
        },
        {
          "indexed": false,
          "internalType": "uint256",
          "name": "heat",
          "type": "uint256"
        },
        {
          "indexed": false,
          "internalType": "uint256",
          "name": "len",
          "type": "uint256"
        }
      ],
      "name": "DegreeHeats",
      "type": "event"
    },
    {
      "anonymous": false,
      "inputs": [
        {
          "indexed": false,
          "internalType": "uint8",
          "name": "version",
          "type": "uint8"
        }
      ],
      "name": "Initialized",
      "type": "event"
    },
    {
      "anonymous": false,
      "inputs": [
        {
          "indexed": true,
          "internalType": "address",
          "name": "user",
          "type": "address"
        },
        {
          "indexed": false,
          "internalType": "uint256",
          "name": "amount",
          "type": "uint256"
        },
        {
          "indexed": false,
          "internalType": "uint256",
          "name": "term",
          "type": "uint256"
        }
      ],
      "name": "Staked",
      "type": "event"
    },
    {
      "anonymous": false,
      "inputs": [
        {
          "indexed": true,
          "internalType": "address",
          "name": "from",
          "type": "address"
        },
        {
          "indexed": true,
          "internalType": "address",
          "name": "to",
          "type": "address"
        },
        {
          "indexed": false,
          "internalType": "uint256",
          "name": "value",
          "type": "uint256"
        }
      ],
      "name": "Transfer",
      "type": "event"
    },
    {
      "anonymous": false,
      "inputs": [
        {
          "indexed": false,
          "internalType": "string",
          "name": "number",
          "type": "string"
        },
        {
          "indexed": false,
          "internalType": "uint256",
          "name": "amount",
          "type": "uint256"
        }
      ],
      "name": "UserUnWithDrawEvent",
      "type": "event"
    },
    {
      "anonymous": false,
      "inputs": [
        {
          "indexed": false,
          "internalType": "string",
          "name": "number",
          "type": "string"
        },
        {
          "indexed": false,
          "internalType": "uint256",
          "name": "amount",
          "type": "uint256"
        }
      ],
      "name": "UserWithDrawEvent",
      "type": "event"
    },
    {
      "anonymous": false,
      "inputs": [
        {
          "indexed": true,
          "internalType": "address",
          "name": "user",
          "type": "address"
        },
        {
          "indexed": false,
          "internalType": "uint256",
          "name": "amount",
          "type": "uint256"
        },
        {
          "indexed": false,
          "internalType": "uint256",
          "name": "reward",
          "type": "uint256"
        }
      ],
      "name": "Withdrawn",
      "type": "event"
    },
    {
      "inputs": [],
      "name": "FoundationAddr",
      "outputs": [
        {
          "internalType": "address",
          "name": "",
          "type": "address"
        }
      ],
      "stateMutability": "view",
      "type": "function"
    },
    {
      "inputs": [
        {
          "internalType": "address",
          "name": "user",
          "type": "address"
        },
        {
          "internalType": "uint256",
          "name": "amount",
          "type": "uint256"
        }
      ],
      "name": "MintGNP",
      "outputs": [],
      "stateMutability": "nonpayable",
      "type": "function"
    },
    {
      "inputs": [],
      "name": "SECONDS_IN_DAY",
      "outputs": [
        {
          "internalType": "uint256",
          "name": "",
          "type": "uint256"
        }
      ],
      "stateMutability": "view",
      "type": "function"
    },
    {
      "inputs": [],
      "name": "activeMinters",
      "outputs": [
        {
          "internalType": "uint256",
          "name": "",
          "type": "uint256"
        }
      ],
      "stateMutability": "view",
      "type": "function"
    },
    {
      "inputs": [],
      "name": "activeNumbers",
      "outputs": [
        {
          "internalType": "uint256",
          "name": "",
          "type": "uint256"
        }
      ],
      "stateMutability": "view",
      "type": "function"
    },
    {
      "inputs": [],
      "name": "activeStakes",
      "outputs": [
        {
          "internalType": "uint256",
          "name": "",
          "type": "uint256"
        }
      ],
      "stateMutability": "view",
      "type": "function"
    },
    {
      "inputs": [],
      "name": "addSpendNonce",
      "outputs": [],
      "stateMutability": "nonpayable",
      "type": "function"
    },
    {
      "inputs": [
        {
          "internalType": "address",
          "name": "owner",
          "type": "address"
        },
        {
          "internalType": "address",
          "name": "spender",
          "type": "address"
        }
      ],
      "name": "allowance",
      "outputs": [
        {
          "internalType": "uint256",
          "name": "",
          "type": "uint256"
        }
      ],
      "stateMutability": "view",
      "type": "function"
    },
    {
      "inputs": [
        {
          "internalType": "address",
          "name": "spender",
          "type": "address"
        },
        {
          "internalType": "uint256",
          "name": "amount",
          "type": "uint256"
        }
      ],
      "name": "approve",
      "outputs": [
        {
          "internalType": "bool",
          "name": "",
          "type": "bool"
        }
      ],
      "stateMutability": "nonpayable",
      "type": "function"
    },
    {
      "inputs": [],
      "name": "apy",
      "outputs": [
        {
          "internalType": "uint256",
          "name": "",
          "type": "uint256"
        }
      ],
      "stateMutability": "view",
      "type": "function"
    },
    {
      "inputs": [
        {
          "internalType": "address",
          "name": "account",
          "type": "address"
        }
      ],
      "name": "balanceOf",
      "outputs": [
        {
          "internalType": "uint256",
          "name": "",
          "type": "uint256"
        }
      ],
      "stateMutability": "view",
      "type": "function"
    },
    {
      "inputs": [
        {
          "internalType": "string",
          "name": "_number",
          "type": "string"
        }
      ],
      "name": "claimMint",
      "outputs": [],
      "stateMutability": "nonpayable",
      "type": "function"
    },
    {
      "inputs": [
        {
          "internalType": "address",
          "name": "_user",
          "type": "address"
        },
        {
          "internalType": "uint256",
          "name": "_amount",
          "type": "uint256"
        },
        {
          "internalType": "uint8[]",
          "name": "vs",
          "type": "uint8[]"
        },
        {
          "internalType": "bytes32[]",
          "name": "rs",
          "type": "bytes32[]"
        },
        {
          "internalType": "bytes32[]",
          "name": "ss",
          "type": "bytes32[]"
        }
      ],
      "name": "claimMintReward",
      "outputs": [],
      "stateMutability": "nonpayable",
      "type": "function"
    },
    {
      "inputs": [],
      "name": "claimMints",
      "outputs": [
        {
          "internalType": "uint256",
          "name": "",
          "type": "uint256"
        }
      ],
      "stateMutability": "view",
      "type": "function"
    },
    {
      "inputs": [
        {
          "internalType": "uint256",
          "name": "",
          "type": "uint256"
        }
      ],
      "name": "dayClaimed",
      "outputs": [
        {
          "internalType": "bool",
          "name": "",
          "type": "bool"
        }
      ],
      "stateMutability": "view",
      "type": "function"
    },
    {
      "inputs": [
        {
          "internalType": "uint256",
          "name": "",
          "type": "uint256"
        }
      ],
      "name": "dayClaims",
      "outputs": [
        {
          "internalType": "uint256",
          "name": "",
          "type": "uint256"
        }
      ],
      "stateMutability": "view",
      "type": "function"
    },
    {
      "inputs": [
        {
          "internalType": "uint256",
          "name": "",
          "type": "uint256"
        }
      ],
      "name": "dayReceived",
      "outputs": [
        {
          "internalType": "uint256",
          "name": "",
          "type": "uint256"
        }
      ],
      "stateMutability": "view",
      "type": "function"
    },
    {
      "inputs": [
        {
          "internalType": "uint256",
          "name": "",
          "type": "uint256"
        }
      ],
      "name": "dayStaked",
      "outputs": [
        {
          "internalType": "uint256",
          "name": "",
          "type": "uint256"
        }
      ],
      "stateMutability": "view",
      "type": "function"
    },
    {
      "inputs": [],
      "name": "daySupply",
      "outputs": [
        {
          "internalType": "uint256",
          "name": "",
          "type": "uint256"
        }
      ],
      "stateMutability": "view",
      "type": "function"
    },
    {
      "inputs": [
        {
          "internalType": "uint256",
          "name": "",
          "type": "uint256"
        }
      ],
      "name": "dayUnStaked",
      "outputs": [
        {
          "internalType": "uint256",
          "name": "",
          "type": "uint256"
        }
      ],
      "stateMutability": "view",
      "type": "function"
    },
    {
      "inputs": [],
      "name": "decimals",
      "outputs": [
        {
          "internalType": "uint8",
          "name": "",
          "type": "uint8"
        }
      ],
      "stateMutability": "view",
      "type": "function"
    },
    {
      "inputs": [
        {
          "internalType": "address",
          "name": "spender",
          "type": "address"
        },
        {
          "internalType": "uint256",
          "name": "subtractedValue",
          "type": "uint256"
        }
      ],
      "name": "decreaseAllowance",
      "outputs": [
        {
          "internalType": "bool",
          "name": "",
          "type": "bool"
        }
      ],
      "stateMutability": "nonpayable",
      "type": "function"
    },
    {
      "inputs": [
        {
          "internalType": "string",
          "name": "",
          "type": "string"
        }
      ],
      "name": "degreeHeats",
      "outputs": [
        {
          "internalType": "uint256",
          "name": "",
          "type": "uint256"
        }
      ],
      "stateMutability": "view",
      "type": "function"
    },
    {
      "inputs": [],
      "name": "destructions",
      "outputs": [
        {
          "internalType": "uint256",
          "name": "",
          "type": "uint256"
        }
      ],
      "stateMutability": "view",
      "type": "function"
    },
    {
      "inputs": [],
      "name": "genesisTs",
      "outputs": [
        {
          "internalType": "uint256",
          "name": "",
          "type": "uint256"
        }
      ],
      "stateMutability": "view",
      "type": "function"
    },
    {
      "inputs": [
        {
          "internalType": "address",
          "name": "_user",
          "type": "address"
        },
        {
          "internalType": "string",
          "name": "_number",
          "type": "string"
        }
      ],
      "name": "getClaimTsAmount",
      "outputs": [
        {
          "internalType": "int256",
          "name": "count",
          "type": "int256"
        },
        {
          "internalType": "uint256",
          "name": "_amount",
          "type": "uint256"
        }
      ],
      "stateMutability": "view",
      "type": "function"
    },
    {
      "inputs": [],
      "name": "getEarthDashboard",
      "outputs": [
        {
          "internalType": "uint256",
          "name": "_totalSupply",
          "type": "uint256"
        },
        {
          "internalType": "uint256",
          "name": "liquidSupply",
          "type": "uint256"
        },
        {
          "internalType": "uint256",
          "name": "destruction",
          "type": "uint256"
        },
        {
          "internalType": "uint256",
          "name": "totalStaked",
          "type": "uint256"
        },
        {
          "internalType": "uint256",
          "name": "treasury",
          "type": "uint256"
        },
        {
          "internalType": "uint256",
          "name": "foundation",
          "type": "uint256"
        }
      ],
      "stateMutability": "view",
      "type": "function"
    },
    {
      "inputs": [],
      "name": "getMeshDashboard",
      "outputs": [
        {
          "internalType": "uint256",
          "name": "participants",
          "type": "uint256"
        },
        {
          "internalType": "uint256",
          "name": "totalclaimMints",
          "type": "uint256"
        },
        {
          "internalType": "uint256",
          "name": "claimedMesh",
          "type": "uint256"
        },
        {
          "internalType": "uint256",
          "name": "maxHeats",
          "type": "uint256"
        },
        {
          "internalType": "uint256",
          "name": "sinceGenesis",
          "type": "uint256"
        }
      ],
      "stateMutability": "view",
      "type": "function"
    },
    {
      "inputs": [],
      "name": "getMeshData",
      "outputs": [
        {
          "internalType": "uint256",
          "name": "userCounts",
          "type": "uint256"
        },
        {
          "internalType": "uint256",
          "name": "launchData",
          "type": "uint256"
        },
        {
          "internalType": "uint256",
          "name": "totalMinted",
          "type": "uint256"
        },
        {
          "internalType": "uint256",
          "name": "liquidSupply",
          "type": "uint256"
        }
      ],
      "stateMutability": "view",
      "type": "function"
    },
    {
      "inputs": [],
      "name": "getNetworkEvents",
      "outputs": [
        {
          "internalType": "uint256",
          "name": "_genesisTs",
          "type": "uint256"
        },
        {
          "internalType": "uint256[]",
          "name": "_received",
          "type": "uint256[]"
        },
        {
          "internalType": "uint256[]",
          "name": "_staked",
          "type": "uint256[]"
        },
        {
          "internalType": "uint256[]",
          "name": "_unstaked",
          "type": "uint256[]"
        }
      ],
      "stateMutability": "view",
      "type": "function"
    },
    {
      "inputs": [
        {
          "internalType": "address",
          "name": "_user",
          "type": "address"
        },
        {
          "internalType": "uint256",
          "name": "_amountA",
          "type": "uint256"
        },
        {
          "internalType": "uint256",
          "name": "_amountB",
          "type": "uint256"
        }
      ],
      "name": "getRewardAmount",
      "outputs": [
        {
          "internalType": "uint256",
          "name": "_userTotalAmount",
          "type": "uint256"
        },
        {
          "internalType": "uint256",
          "name": "_userWithdraw",
          "type": "uint256"
        },
        {
          "internalType": "uint256",
          "name": "_userUnWithdraw",
          "type": "uint256"
        }
      ],
      "stateMutability": "view",
      "type": "function"
    },
    {
      "inputs": [],
      "name": "getSpendNonce",
      "outputs": [
        {
          "internalType": "uint256",
          "name": "",
          "type": "uint256"
        }
      ],
      "stateMutability": "view",
      "type": "function"
    },
    {
      "inputs": [
        {
          "internalType": "address",
          "name": "_user",
          "type": "address"
        }
      ],
      "name": "getStakeInfo",
      "outputs": [
        {
          "internalType": "uint256",
          "name": "tvl",
          "type": "uint256"
        },
        {
          "internalType": "uint256",
          "name": "revenue",
          "type": "uint256"
        },
        {
          "internalType": "uint256",
          "name": "earned",
          "type": "uint256"
        },
        {
          "internalType": "uint256",
          "name": "claimable",
          "type": "uint256"
        },
        {
          "internalType": "uint256",
          "name": "totalApy",
          "type": "uint256"
        },
        {
          "internalType": "uint256",
          "name": "staked",
          "type": "uint256"
        },
        {
          "internalType": "uint256",
          "name": "totalEarnValue",
          "type": "uint256"
        },
        {
          "internalType": "uint256",
          "name": "offEarthStake",
          "type": "uint256"
        }
      ],
      "stateMutability": "view",
      "type": "function"
    },
    {
      "inputs": [
        {
          "internalType": "address",
          "name": "user",
          "type": "address"
        }
      ],
      "name": "getStakeTime",
      "outputs": [
        {
          "internalType": "uint256",
          "name": "ts",
          "type": "uint256"
        }
      ],
      "stateMutability": "view",
      "type": "function"
    },
    {
      "inputs": [
        {
          "internalType": "address",
          "name": "spender",
          "type": "address"
        },
        {
          "internalType": "uint256",
          "name": "addedValue",
          "type": "uint256"
        }
      ],
      "name": "increaseAllowance",
      "outputs": [
        {
          "internalType": "bool",
          "name": "",
          "type": "bool"
        }
      ],
      "stateMutability": "nonpayable",
      "type": "function"
    },
    {
      "inputs": [
        {
          "internalType": "address[]",
          "name": "_owners",
          "type": "address[]"
        },
        {
          "internalType": "uint256",
          "name": "_apy",
          "type": "uint256"
        },
        {
          "internalType": "address",
          "name": "_foundationAddr",
          "type": "address"
        }
      ],
      "name": "initialize",
      "outputs": [],
      "stateMutability": "nonpayable",
      "type": "function"
    },
    {
      "inputs": [],
      "name": "maxMeshHeats",
      "outputs": [
        {
          "internalType": "uint256",
          "name": "",
          "type": "uint256"
        }
      ],
      "stateMutability": "view",
      "type": "function"
    },
    {
      "inputs": [],
      "name": "name",
      "outputs": [
        {
          "internalType": "string",
          "name": "",
          "type": "string"
        }
      ],
      "stateMutability": "view",
      "type": "function"
    },
    {
      "inputs": [
        {
          "internalType": "address",
          "name": "",
          "type": "address"
        }
      ],
      "name": "rankWithdrawAmount",
      "outputs": [
        {
          "internalType": "uint256",
          "name": "",
          "type": "uint256"
        }
      ],
      "stateMutability": "view",
      "type": "function"
    },
    {
      "inputs": [
        {
          "internalType": "uint256",
          "name": "amount",
          "type": "uint256"
        },
        {
          "internalType": "uint256",
          "name": "term",
          "type": "uint256"
        }
      ],
      "name": "stake",
      "outputs": [],
      "stateMutability": "nonpayable",
      "type": "function"
    },
    {
      "inputs": [
        {
          "internalType": "address",
          "name": "",
          "type": "address"
        }
      ],
      "name": "stakeValues",
      "outputs": [
        {
          "internalType": "uint256",
          "name": "",
          "type": "uint256"
        }
      ],
      "stateMutability": "view",
      "type": "function"
    },
    {
      "inputs": [],
      "name": "symbol",
      "outputs": [
        {
          "internalType": "string",
          "name": "",
          "type": "string"
        }
      ],
      "stateMutability": "view",
      "type": "function"
    },
    {
      "inputs": [],
      "name": "totalEarn",
      "outputs": [
        {
          "internalType": "uint256",
          "name": "",
          "type": "uint256"
        }
      ],
      "stateMutability": "view",
      "type": "function"
    },
    {
      "inputs": [],
      "name": "totalNGPStaked",
      "outputs": [
        {
          "internalType": "uint256",
          "name": "",
          "type": "uint256"
        }
      ],
      "stateMutability": "view",
      "type": "function"
    },
    {
      "inputs": [],
      "name": "totalSupply",
      "outputs": [
        {
          "internalType": "uint256",
          "name": "",
          "type": "uint256"
        }
      ],
      "stateMutability": "view",
      "type": "function"
    },
    {
      "inputs": [
        {
          "internalType": "string",
          "name": "",
          "type": "string"
        },
        {
          "internalType": "address",
          "name": "",
          "type": "address"
        }
      ],
      "name": "totalUnWithDraws",
      "outputs": [
        {
          "internalType": "uint256",
          "name": "",
          "type": "uint256"
        }
      ],
      "stateMutability": "view",
      "type": "function"
    },
    {
      "inputs": [
        {
          "internalType": "string",
          "name": "",
          "type": "string"
        },
        {
          "internalType": "address",
          "name": "",
          "type": "address"
        }
      ],
      "name": "totalWithDraws",
      "outputs": [
        {
          "internalType": "uint256",
          "name": "",
          "type": "uint256"
        }
      ],
      "stateMutability": "view",
      "type": "function"
    },
    {
      "inputs": [
        {
          "internalType": "address",
          "name": "to",
          "type": "address"
        },
        {
          "internalType": "uint256",
          "name": "amount",
          "type": "uint256"
        }
      ],
      "name": "transfer",
      "outputs": [
        {
          "internalType": "bool",
          "name": "",
          "type": "bool"
        }
      ],
      "stateMutability": "nonpayable",
      "type": "function"
    },
    {
      "inputs": [
        {
          "internalType": "address",
          "name": "from",
          "type": "address"
        },
        {
          "internalType": "address",
          "name": "to",
          "type": "address"
        },
        {
          "internalType": "uint256",
          "name": "amount",
          "type": "uint256"
        }
      ],
      "name": "transferFrom",
      "outputs": [
        {
          "internalType": "bool",
          "name": "",
          "type": "bool"
        }
      ],
      "stateMutability": "nonpayable",
      "type": "function"
    },
    {
      "inputs": [],
      "name": "treasuryValue",
      "outputs": [
        {
          "internalType": "uint256",
          "name": "",
          "type": "uint256"
        }
      ],
      "stateMutability": "view",
      "type": "function"
    },
    {
      "inputs": [
        {
          "internalType": "address",
          "name": "",
          "type": "address"
        }
      ],
      "name": "unWithDrawAmount",
      "outputs": [
        {
          "internalType": "uint256",
          "name": "",
          "type": "uint256"
        }
      ],
      "stateMutability": "view",
      "type": "function"
    },
    {
      "inputs": [
        {
          "internalType": "address",
          "name": "",
          "type": "address"
        }
      ],
      "name": "unWithdraws",
      "outputs": [
        {
          "internalType": "uint256",
          "name": "",
          "type": "uint256"
        }
      ],
      "stateMutability": "view",
      "type": "function"
    },
    {
      "inputs": [
        {
          "internalType": "string",
          "name": "",
          "type": "string"
        },
        {
          "internalType": "uint256",
          "name": "",
          "type": "uint256"
        }
      ],
      "name": "userApplys",
      "outputs": [
        {
          "internalType": "address",
          "name": "",
          "type": "address"
        }
      ],
      "stateMutability": "view",
      "type": "function"
    },
    {
      "inputs": [
        {
          "internalType": "address",
          "name": "",
          "type": "address"
        },
        {
          "internalType": "string",
          "name": "",
          "type": "string"
        }
      ],
      "name": "userMints",
      "outputs": [
        {
          "internalType": "address",
          "name": "user",
          "type": "address"
        },
        {
          "internalType": "string",
          "name": "number",
          "type": "string"
        },
        {
          "internalType": "uint256",
          "name": "updateTs",
          "type": "uint256"
        },
        {
          "internalType": "uint256",
          "name": "withdrawTs",
          "type": "uint256"
        }
      ],
      "stateMutability": "view",
      "type": "function"
    },
    {
      "inputs": [
        {
          "internalType": "address",
          "name": "",
          "type": "address"
        },
        {
          "internalType": "uint256",
          "name": "",
          "type": "uint256"
        }
      ],
      "name": "userNumbers",
      "outputs": [
        {
          "internalType": "string",
          "name": "",
          "type": "string"
        }
      ],
      "stateMutability": "view",
      "type": "function"
    },
    {
      "inputs": [
        {
          "internalType": "address",
          "name": "",
          "type": "address"
        }
      ],
      "name": "userStakes",
      "outputs": [
        {
          "internalType": "uint256",
          "name": "term",
          "type": "uint256"
        },
        {
          "internalType": "uint256",
          "name": "maturityTs",
          "type": "uint256"
        },
        {
          "internalType": "uint256",
          "name": "amount",
          "type": "uint256"
        }
      ],
      "stateMutability": "view",
      "type": "function"
    },
    {
      "inputs": [
        {
          "internalType": "address",
          "name": "",
          "type": "address"
        }
      ],
      "name": "userWithdraws",
      "outputs": [
        {
          "internalType": "uint256",
          "name": "",
          "type": "uint256"
        }
      ],
      "stateMutability": "view",
      "type": "function"
    },
    {
      "inputs": [
        {
          "internalType": "address",
          "name": "_sender",
          "type": "address"
        },
        {
          "internalType": "uint8[]",
          "name": "vs",
          "type": "uint8[]"
        },
        {
          "internalType": "bytes32[]",
          "name": "rs",
          "type": "bytes32[]"
        },
        {
          "internalType": "bytes32[]",
          "name": "ss",
          "type": "bytes32[]"
        }
      ],
      "name": "validSignature",
      "outputs": [
        {
          "internalType": "bool",
          "name": "",
          "type": "bool"
        }
      ],
      "stateMutability": "view",
      "type": "function"
    },
    {
      "inputs": [],
      "name": "withdraw",
      "outputs": [],
      "stateMutability": "nonpayable",
      "type": "function"
    },
    {
      "inputs": [
        {
          "internalType": "address",
          "name": "",
          "type": "address"
        }
      ],
      "name": "withdrawAmount",
      "outputs": [
        {
          "internalType": "uint256",
          "name": "",
          "type": "uint256"
        }
      ],
      "stateMutability": "view",
      "type": "function"
    }
  ],
  "transactionHash": "0x5c6aaa30a095a3ee5309ef4b9e175c9eef27aca011c9a6764b4491abefc02f8e",
  "args": [],
  "numDeployments": 10,
  "solcInputHash": "f822914902729ceb10e5a36b2d138885",
  "bytecode": "0x608060405234801561001057600080fd5b50613fa2806100206000396000f3fe608060405234801561001057600080fd5b50600436106103a45760003560e01c8063890d3b27116101e9578063c34531531161010f578063e3c41c4e116100ad578063ed2f23691161007c578063ed2f23691461094e578063f01d110c14610957578063f9a18ba514610960578063fb1c8b9f1461098057600080fd5b8063e3c41c4e146108c3578063e8ca8da3146108f3578063e9cabce71461091b578063ebcdbc2d1461092e57600080fd5b8063cb92ef4a116100e9578063cb92ef4a1461087e578063dd62ed3e1461089e578063dffd722f146108b1578063e3af6d0a146108ba57600080fd5b8063c345315314610808578063c6a2a9f114610856578063cb48e3c61461085e57600080fd5b8063a457c2d711610187578063b4800cdc11610156578063b4800cdc146107a4578063bcfd8dbf146107ad578063c18fab14146107c0578063c293d09b146107f557600080fd5b8063a457c2d71461074d578063a673471514610760578063a6a5ff9214610769578063a9059cbb1461079157600080fd5b80638ed4064a116101c35780638ed4064a14610704578063903993181461070d57806395d89b41146107255780639d0c0f231461072d57600080fd5b8063890d3b271461068a5780638d6b6a59146106b55780638da7ad23146106d557600080fd5b80633adfe5ea116102ce5780635cad385c1161026c57806370a082311161023b57806370a082311461062857806372483bf9146106515780637b0472f0146106645780638283cef61461067757600080fd5b80635cad385c146105d35780635f7bb932146105dc57806361a52a36146105fc5780636e5d82801461060557600080fd5b80633d7af48f116102a85780633d7af48f146105695780634c2346fa146105725780634f42015114610585578063573de1ff146105a557600080fd5b80633adfe5ea146105505780633bcfc4b8146105585780633ccfd60b1461056157600080fd5b806318160ddd1161034657806323b872dd1161031557806323b872dd146104fb5780632c2d0a0c1461050e578063313ce5671461052e578063395093511461053d57600080fd5b806318160ddd146104845780631c02b1f41461048c5780631dca03bc146104955780631ea13164146104c057600080fd5b80630bfbba01116103825780630bfbba01146104015780630ffcccff1461041457806313066240146104345780631442156f1461044957600080fd5b806306fdde03146103a9578063095ea7b3146103c75780630aedb5ba146103ea575b600080fd5b6103b16109a3565b6040516103be9190613549565b60405180910390f35b6103da6103d5366004613578565b610a35565b60405190151581526020016103be565b6103f360655481565b6040519081526020016103be565b6103b161040f366004613578565b610a4f565b6103f36104223660046135a2565b60836020526000908152604090205481565b610447610442366004613670565b610b08565b005b6103f36104573660046136ac565b81516020818401810180516089825292820194820194909420919093529091526000908152604090205481565b6035546103f3565b6103f360765481565b6103f36104a3366004613670565b805160208183018101805160688252928201919093012091525481565b6103f36104ce3660046136ac565b81516020818401810180516088825292820194820194909420919093529091526000908152604090205481565b6103da6105093660046136f9565b61130e565b6103f361051c3660046135a2565b60856020526000908152604090205481565b604051601281526020016103be565b6103da61054b366004613578565b611334565b610447611356565b6103f360795481565b61044761136d565b6103f360745481565b6103da61058036600461382e565b611534565b6103f36105933660046138c6565b606a6020526000908152604090205481565b6105b86105b33660046138e1565b611818565b604080519384526020840192909252908201526060016103be565b6103f360775481565b6103f36105ea3660046138c6565b60826020526000908152604090205481565b6103f360785481565b6103da6106133660046135a2565b607f6020526000908152604090205460ff1681565b6103f36106363660046138c6565b6001600160a01b031660009081526033602052604090205490565b61044761065f366004613914565b611acd565b61044761067236600461399f565b611d4e565b610447610685366004613578565b611f21565b60815461069d906001600160a01b031681565b6040516001600160a01b0390911681526020016103be565b6103f36106c33660046138c6565b60866020526000908152604090205481565b6105b86106e33660046138c6565b607d6020526000908152604090208054600182015460029092015490919083565b6103f3607b5481565b610715611f2f565b6040516103be94939291906139fc565b6103b16120dd565b6103f361073b3660046138c6565b60876020526000908152604090205481565b6103da61075b366004613578565b6120ec565b6103f360755481565b610771612172565b6040805194855260208501939093529183015260608201526080016103be565b6103da61079f366004613578565b6121c8565b6103f360735481565b6103f36107bb3660046138c6565b6121d6565b6107c8612219565b604080519687526020870195909552938501929092526060840152608083015260a082015260c0016103be565b61069d610803366004613a46565b61227e565b61081b6108163660046138c6565b6122c5565b604080519889526020890197909752958701949094526060860192909252608085015260a084015260c083015260e0820152610100016103be565b606e546103f3565b6103f361086c3660046138c6565b606b6020526000908152604090205481565b6103f361088c3660046135a2565b607e6020526000908152604090205481565b6103f36108ac366004613a8a565b6123bb565b6103f3607c5481565b6103f360725481565b6108cb6123e6565b604080519586526020860194909452928401919091526060830152608082015260a0016103be565b610906610901366004613ab4565b612419565b604080519283526020830191909152016103be565b610447610929366004613b36565b6124b5565b6103f361093c3660046135a2565b60846020526000908152604090205481565b6103f3607a5481565b6103f360805481565b6103f361096e3660046138c6565b606c6020526000908152604090205481565b61099361098e366004613bd8565b612aee565b6040516103be9493929190613c25565b6060603680546109b290613c5c565b80601f01602080910402602001604051908101604052809291908181526020018280546109de90613c5c565b8015610a2b5780601f10610a0057610100808354040283529160200191610a2b565b820191906000526020600020905b815481529060010190602001808311610a0e57829003601f168201915b5050505050905090565b600033610a43818585612bc5565b60019150505b92915050565b60696020528160005260406000208181548110610a6b57600080fd5b90600052602060002001600091509150508054610a8790613c5c565b80601f0160208091040260200160405190810160405280929190818152602001828054610ab390613c5c565b8015610b005780601f10610ad557610100808354040283529160200191610b00565b820191906000526020600020905b815481529060010190602001808311610ae357829003601f168201915b505050505081565b336000908152606660205260408082209051610b25908490613c97565b9081526040805191829003602090810183206080840190925281546001600160a01b0316835260018201805491840191610b5e90613c5c565b80601f0160208091040260200160405190810160405280929190818152602001828054610b8a90613c5c565b8015610bd75780601f10610bac57610100808354040283529160200191610bd7565b820191906000526020600020905b815481529060010190602001808311610bba57829003601f168201915b505050505081526020016002820154815260200160038201548152505090508060400151600014610c4f5760405162461bcd60e51b815260206004820152601e60248201527f6d4e47503a204d696e7420616c726561647920696e2070726f6772657373000060448201526064015b60405180910390fd5b6000606783604051610c619190613c97565b9081526040519081900360200190205490508015610cc9576000606884604051610c8b9190613c97565b90815260200160405180910390205490508060776000828254610cae9190613cc9565b90915550508015610cc357610cc33382612cea565b50610cdf565b60748054906000610cd983613ce1565b91905055505b6020808301849052338084524260408086018290526060860191909152600091825260669092528190209051839190610d19908690613c97565b90815260405160209181900382019020825181546001600160a01b0319166001600160a01b039091161781558282015180519192610d5f92600185019290910190613458565b506040820151600282015560609091015160039091015560005b606784604051610d899190613c97565b9081526040519081900360200190205481101561101f576000606785604051610db29190613c97565b90815260200160405180910390208281548110610dd157610dd1613cfc565b60009182526020808320909101546078546001600160a01b039091168084526066909252604080842090519294509091610e0c908990613c97565b90815260200160405180910390206003015442610e299190613d12565b610e339190613d29565b9050600084610e4483611a0b613d4b565b610e539064174876e800613d4b565b610e5d9190613d29565b90506000806001841115610f2457610e76600185613d12565b610e81906002613e4e565b610e8b9084613d29565b905080610e99846002613d4b565b610ea39190613d12565b6001600160a01b0386166000908152606660205260409081902090519193504291610ecf908c90613c97565b9081526020016040518091039020600301819055508060866000876001600160a01b03166001600160a01b031681526020019081526020016000206000828254610f199190613cc9565b90915550610f289050565b8291505b6001600160a01b0385166000908152606a602052604081208054849290610f50908490613cc9565b925050819055508160888a604051610f689190613c97565b90815260200160405180910390206000876001600160a01b03166001600160a01b031681526020019081526020016000206000828254610fa89190613cc9565b925050819055508060898a604051610fc09190613c97565b90815260200160405180910390206000876001600160a01b03166001600160a01b0316815260200190815260200160002060008282546110009190613cc9565b925050819055505050505050808061101790613ce1565b915050610d79565b506067836040516110309190613c97565b90815260405190819003602090810182208054600181018255600091825291812090910180546001600160a01b0319163317905590606790611073908690613c97565b9081526040519081900360200190205490506000611092826064613e4e565b61109d83606a613e4e565b6110a990611a0b613d4b565b6110b89064174876e800613d4b565b6110c29190613d29565b9050806068866040516110d59190613c97565b9081526020016040518091039020819055507fe5c486bee358a5fff5e4d70dc5fdaaf14806df125ffde843a8c40db60826481285828460405161111a93929190613e5a565b60405180910390a16076548111156111325760768190555b33600090815260696020908152604082208054600181018255908352918190208751611165939190910191880190613458565b50336000908152606d602052604090205460ff166111ad576073805490600061118d83613ce1565b9091555050336000908152606d60205260409020805460ff191660011790555b6000607854426111bd9190613d29565b9050607f60006111ce600184613d12565b815260208101919091526040016000205460ff1615801561120957506078546111f8906003613d4b565b6072546112059190613cc9565b4210155b156112b65760745461121f906307b98a00613d12565b61122b90611a0b613d4b565b607e600061123a600285613d12565b815260200190815260200160002054611a0b6112569190613d12565b6112609190613cc9565b61126f9064174876e800613d4b565b608060008282546112809190613cc9565b9091555060019050607f60006112968385613d12565b81526020810191909152604001600020805460ff19169115159190911790555b607580549060006112c683613ce1565b91905055507f1309ab74031e37b46ee8ce9ff667a17a5c69a500a05d167e4c89ad8b0bc40bf93387426040516112fe93929190613e7f565b60405180910390a1505050505050565b60003361131c858285612e1b565b611327858585612e95565b60019150505b9392505050565b600033610a4381858561134783836123bb565b6113519190613cc9565b612bc5565b606e805490600061136683613ce1565b9190505550565b336000908152607d602090815260409182902082516060810184528154815260018201549281019290925260020154918101829052906113e65760405162461bcd60e51b81526020600482015260146024820152734e47503a206e6f207374616b652065786973747360601b6044820152606401610c46565b60006113ff826040015183600001518460200151613040565b905060008183604001516114139190613cc9565b90506000607854607254426114289190613d12565b6114329190613d29565b33600090815260826020526040812080549293508592909190611456908490613cc9565b9250508190555082607c600082825461146f9190613cc9565b9091555050607a805490600061148483613eb3565b91905055508360400151607b600082825461149f9190613d12565b9091555050600081815260856020526040812080548492906114c2908490613cc9565b909155506114d290503383613085565b60408085015181519081526020810185905233917f92ccf450a286a957af52509bc1c9939d1a6a481783e142e41e2499f0bb66ebc6910160405180910390a25050336000908152607d6020526040812081815560018101829055600201555050565b600082518451146115805760405162461bcd60e51b81526020600482015260166024820152750ece65cd8cadccee8d0407a7a40e4e65cd8cadccee8d60531b6044820152606401610c46565b81518351146115ca5760405162461bcd60e51b81526020600482015260166024820152750e4e65cd8cadccee8d0407a7a40e6e65cd8cadccee8d60531b6044820152606401610c46565b6070548451111561161d5760405162461bcd60e51b815260206004820152601a60248201527f76732e6c656e677468203c3d206f776e6572732e6c656e6774680000000000006044820152606401610c46565b607154845110156116685760405162461bcd60e51b81526020600482015260156024820152741d9ccb9b195b99dd1a080f8f481c995c5d5a5c9959605a1b6044820152606401610c46565b6000611673866130d7565b9050600085516001600160401b03811115611690576116906135bb565b6040519080825280602002602001820160405280156116b9578160200160208202803683370190505b50905060005b86518110156117c3576001838883815181106116dd576116dd613cfc565b6020026020010151601b6116f19190613eca565b88848151811061170357611703613cfc565b602002602001015188858151811061171d5761171d613cfc565b60200260200101516040516000815260200160405260405161175b949392919093845260ff9290921660208401526040830152606082015260800190565b6020604051602081039080840390855afa15801561177d573d6000803e3d6000fd5b5050506020604051035182828151811061179957611799613cfc565b6001600160a01b0390921660209283029190910190910152806117bb81613ce1565b9150506116bf565b506117cd81613199565b61180b5760405162461bcd60e51b815260206004820152600f60248201526e5f64697374696e63744f776e65727360881b6044820152606401610c46565b5060019695505050505050565b600080808080805b6001600160a01b038916600090815260696020526040902054811015611a4f576001600160a01b038916600090815260696020526040812080548390811061186a5761186a613cfc565b90600052602060002001805461187f90613c5c565b80601f01602080910402602001604051908101604052809291908181526020018280546118ab90613c5c565b80156118f85780601f106118cd576101008083540402835291602001916118f8565b820191906000526020600020905b8154815290600101906020018083116118db57829003601f168201915b5050505050905060006067826040516119119190613c97565b90815260200160405180910390208054905090506000607854606660008e6001600160a01b03166001600160a01b031681526020019081526020016000208460405161195d9190613c97565b9081526020016040518091039020600301544261197a9190613d12565b6119849190613d29565b905060008261199583611a0b613d4b565b6119a49064174876e800613d4b565b6119ae9190613d29565b90506001821115611a2b576119c4600183613d12565b6119cf906002613e4e565b6119d99082613d29565b6119e4826002613d4b565b6119ee9190613d12565b6119f89088613cc9565b9650611a05600183613d12565b611a10906002613e4e565b611a1a9082613d29565b611a249087613cc9565b9550611a38565b611a358188613cc9565b96505b505050508080611a4790613ce1565b915050611820565b506001600160a01b038816600090815260876020908152604080832054606a909252909120549095508290611a849089613cc9565b611a8e9190613cc9565b6001600160a01b0389166000908152606b60205260409020549094508190611ab69088613cc9565b611ac09190613cc9565b9250505093509350939050565b600054610100900460ff1615808015611aed5750600054600160ff909116105b80611b075750303b158015611b07575060005460ff166001145b611b6a5760405162461bcd60e51b815260206004820152602e60248201527f496e697469616c697a61626c653a20636f6e747261637420697320616c72656160448201526d191e481a5b9a5d1a585b1a5e995960921b6064820152608401610c46565b6000805460ff191660011790558015611b8d576000805461ff0019166101001790555b611bd76040518060400160405280600b81526020016a22a0a92a24102a37b5b2b760a91b8152506040518060400160405280600581526020016408a82a4a8960db1b815250613294565b60005b84811015611cbc576000868683818110611bf657611bf6613cfc565b9050602002016020810190611c0b91906138c6565b6001600160a01b0381166000908152606f602052604090205490915060ff1680611c3c57506001600160a01b038116155b15611c4657600080fd5b6001600160a01b03166000818152606f60205260408120805460ff191660019081179091556070805491820181559091527f8f6b23ffa15f0465e3176e15ca644cf24f86dc1312fe715484e3c4aead5eb78b0180546001600160a01b031916909117905580611cb481613ce1565b915050611bda565b50611cc8600285613d29565b611cd3906001613cc9565b60715562015180607855426072556079839055608180546001600160a01b0319166001600160a01b0384161790558015611d47576000805461ff0019169055604051600181527f7f26b83ff96e1f2b6a682f133852f6798a09c465da95921460cefb38474024989060200160405180910390a15b5050505050565b33600090815260336020526040902054821115611dad5760405162461bcd60e51b815260206004820152601760248201527f4e47503a206e6f7420656e6f7567682062616c616e63650000000000000000006044820152606401610c46565b60008211611def5760405162461bcd60e51b815260206004820152600f60248201526e04e47503a20616d6f756e74203e203608c1b6044820152606401610c46565b6001811015611e315760405162461bcd60e51b815260206004820152600e60248201526d4e47503a207465726d203e3d203160901b6044820152606401610c46565b336000908152607d602052604090206002015415611e855760405162461bcd60e51b81526020600482015260116024820152704e47503a207374616b652065786973747360781b6044820152606401610c46565b611e8f30836121c8565b50611e9a82826132c5565b600060785460725442611ead9190613d12565b611eb79190613d29565b905082608460008381526020019081526020016000206000828254611edc9190613cc9565b9091555050604080518481526020810184905233917f1449c6dd7851abc30abf37f57715f492010519147cc2652fbc38202c18a6ee90910160405180910390a2505050565b611f2b828261334d565b5050565b60006060806060600060785460725442611f499190613d12565b611f539190613d29565b9050806001600160401b03811115611f6d57611f6d6135bb565b604051908082528060200260200182016040528015611f96578160200160208202803683370190505b509350806001600160401b03811115611fb157611fb16135bb565b604051908082528060200260200182016040528015611fda578160200160208202803683370190505b509250806001600160401b03811115611ff557611ff56135bb565b60405190808252806020026020018201604052801561201e578160200160208202803683370190505b509150607254945060005b818110156120d557600081815260836020526040902054855186908390811061205457612054613cfc565b602002602001018181525050608460008281526020019081526020016000205484828151811061208657612086613cfc565b60200260200101818152505060856000828152602001908152602001600020548382815181106120b8576120b8613cfc565b6020908102919091010152806120cd81613ce1565b915050612029565b505090919293565b6060603780546109b290613c5c565b600033816120fa82866123bb565b90508381101561215a5760405162461bcd60e51b815260206004820152602560248201527f45524332303a2064656372656173656420616c6c6f77616e63652062656c6f77604482015264207a65726f60d81b6064820152608401610c46565b6121678286868403612bc5565b506001949350505050565b60008060008060735493506078546072544261218e9190613d12565b6121989190613d29565b92506121a360355490565b306000908152603360205260409020549092506121c09083613d12565b905090919293565b600033610a43818585612e95565b6001600160a01b0381166000908152607d60205260408120600201546121fa575060005b506001600160a01b03166000908152607d602052604090206001015490565b60008060008060008061222b60355490565b306000908152603360205260409020549096506122489087613d12565b607754607b546080546081546001600160a01b0316600090815260336020526040902054999a9399929850909650945092509050565b815160208184018101805160678252928201918501919091209190528054829081106122a957600080fd5b6000918252602090912001546001600160a01b03169150829050565b6000806000806000806000806005607b5460016122e29190613d4b565b6122ec9190613d29565b97506005607c5460016122ff9190613d4b565b6123099190613d29565b607c546001600160a01b038b166000908152607d602052604090206001015491985096504211612356576001600160a01b0389166000908152607d6020526040902060020154945061235b565b600094505b6079546001600160a01b038a166000908152607d60209081526040808320600201546082909252822054929650945090925061239660355490565b905080156123af5780607b546123ac9190613d29565b91505b50919395975091939597565b6001600160a01b03918216600090815260346020908152604080832093909416825291909152205490565b607354607554607454607654607854607254600091906124069042613d12565b6124109190613d29565b90509091929394565b6001600160a01b03831660009081526066602052604080822090518291906124449086908690613eef565b9081526020016040518091039020600301546000146124675760001991506124ad565b60678484604051612479929190613eef565b90815260405190819003602001812054925060689061249b9086908690613eef565b90815260200160405180910390205490505b935093915050565b336000908152606f602052604090205460ff166125005760405162461bcd60e51b81526020600482015260096024820152683737ba1037bbb732b960b91b6044820152606401610c46565b61250c85848484611534565b61254d5760405162461bcd60e51b8152602060048201526012602482015271696e76616c6964207369676e61747572657360701b6044820152606401610c46565b606e5461255b906001613cc9565b606e5560785460009081906125709042613d29565b905060005b6001600160a01b038816600090815260696020526040902054811015612901576001600160a01b03881660009081526069602052604081208054829190849081106125c2576125c2613cfc565b9060005260206000200180546125d790613c5c565b80601f016020809104026020016040519081016040528092919081815260200182805461260390613c5c565b80156126505780601f1061262557610100808354040283529160200191612650565b820191906000526020600020905b81548152906001019060200180831161263357829003601f168201915b5050505050905060006067826040516126699190613c97565b90815260200160405180910390208054905090506000607854606660008e6001600160a01b03166001600160a01b03168152602001908152602001600020846040516126b59190613c97565b908152602001604051809103902060030154426126d29190613d12565b6126dc9190613d29565b90506000826126ed83611a0b613d4b565b6126fc9064174876e800613d4b565b6127069190613d29565b9050600182106127435780607e600061272060018b613d12565b8152602001908152602001600020600082825461273d9190613cc9565b90915550505b60018211156127b457612757600183613d12565b612762906002613e4e565b61276c9082613d29565b612777826002613d4b565b6127819190613d12565b61278b9089613cc9565b9750612798600183613d12565b6127a3906002613e4e565b6127ad9082613d29565b94506127c1565b6127be8189613cc9565b97505b876088856040516127d29190613c97565b908152602001604051809103902060008f6001600160a01b03166001600160a01b0316815260200190815260200160002060008282546128129190613cc9565b925050819055508460898560405161282a9190613c97565b908152602001604051809103902060008f6001600160a01b03166001600160a01b03168152602001908152602001600020600082825461286a9190613cc9565b90915550506001600160a01b038d16600090815260666020526040908190209051429190612899908790613c97565b9081526020016040518091039020600301819055507ff498e0b0d0e3ef52fe21a90b9ea81effdeee405ca5fd31bf66845b803a4959863385426040516128e193929190613e7f565b60405180910390a1505050505080806128f990613ce1565b915050612575565b50600281101580156129335750607f600061291d600184613d12565b815260208101919091526040016000205460ff16155b80156129595750607854612948906003613d4b565b6072546129559190613cc9565b4210155b15612a2c5760006074546307b98a006129729190613d12565b61297e90611a0b613d4b565b607e600061298d600286613d12565b815260200190815260200160002054611a0b6129a99190613d12565b6129b39190613cc9565b6129c29064174876e800613d4b565b905080608060008282546129d69190613cc9565b90915550506081546129fb906001600160a01b03166129f6600584613d29565b613085565b6001607f6000612a0b8386613d12565b81526020810191909152604001600020805460ff1916911515919091179055505b6001600160a01b0387166000908152606a6020526040812054612a4f9084613cc9565b6001600160a01b0389166000908152606a602052604081205491925090606490612a799086613cc9565b612a8490605a613d4b565b612a8e9190613d29565b336000908152606b602052604090208190559050612aac8883613cc9565b33600090815260876020526040902055612aca896129f68a85613cc9565b5050506001600160a01b039095166000908152606a60205260408120555050505050565b60666020908152600092835260409092208151808301840180519281529084019290930191909120915280546001820180546001600160a01b039092169291612b3690613c5c565b80601f0160208091040260200160405190810160405280929190818152602001828054612b6290613c5c565b8015612baf5780601f10612b8457610100808354040283529160200191612baf565b820191906000526020600020905b815481529060010190602001808311612b9257829003601f168201915b5050505050908060020154908060030154905084565b6001600160a01b038316612c275760405162461bcd60e51b8152602060048201526024808201527f45524332303a20617070726f76652066726f6d20746865207a65726f206164646044820152637265737360e01b6064820152608401610c46565b6001600160a01b038216612c885760405162461bcd60e51b815260206004820152602260248201527f45524332303a20617070726f766520746f20746865207a65726f206164647265604482015261737360f01b6064820152608401610c46565b6001600160a01b0383811660008181526034602090815260408083209487168084529482529182902085905590518481527f8c5be1e5ebec7d5bd14f71427d1e84f3dd0314c0f7b2291e5b200ac8c7c3b92591015b60405180910390a3505050565b6001600160a01b038216612d4a5760405162461bcd60e51b815260206004820152602160248201527f45524332303a206275726e2066726f6d20746865207a65726f206164647265736044820152607360f81b6064820152608401610c46565b6001600160a01b03821660009081526033602052604090205481811015612dbe5760405162461bcd60e51b815260206004820152602260248201527f45524332303a206275726e20616d6f756e7420657863656564732062616c616e604482015261636560f01b6064820152608401610c46565b6001600160a01b03831660008181526033602090815260408083208686039055603580548790039055518581529192917fddf252ad1be2c89b69c2b068fc378daa952ba7f163c4a11628f55a4df523b3ef9101612cdd565b505050565b6000612e2784846123bb565b90506000198114612e8f5781811015612e825760405162461bcd60e51b815260206004820152601d60248201527f45524332303a20696e73756666696369656e7420616c6c6f77616e63650000006044820152606401610c46565b612e8f8484848403612bc5565b50505050565b6001600160a01b038316612ef95760405162461bcd60e51b815260206004820152602560248201527f45524332303a207472616e736665722066726f6d20746865207a65726f206164604482015264647265737360d81b6064820152608401610c46565b6001600160a01b038216612f5b5760405162461bcd60e51b815260206004820152602360248201527f45524332303a207472616e7366657220746f20746865207a65726f206164647260448201526265737360e81b6064820152608401610c46565b6001600160a01b03831660009081526033602052604090205481811015612fd35760405162461bcd60e51b815260206004820152602660248201527f45524332303a207472616e7366657220616d6f756e7420657863656564732062604482015265616c616e636560d01b6064820152608401610c46565b6001600160a01b0380851660008181526033602052604080822086860390559286168082529083902080548601905591517fddf252ad1be2c89b69c2b068fc378daa952ba7f163c4a11628f55a4df523b3ef906130339086815260200190565b60405180910390a3612e8f565b60008142111561307b5760008360795461305a9190613d4b565b90506127106130698287613d4b565b6130739190613d29565b91505061132d565b5060009392505050565b6000607854607254426130989190613d12565b6130a29190613d29565b9050816083600083815260200190815260200160002060008282546130c79190613cc9565b90915550612e169050838361334d565b60008061312b83606e546040805160609390931b6bffffffffffffffffffffffff19166020808501919091524660348501526054808501939093528151808503909301835260749093019052805191012090565b905060006040518060400160405280601c81526020017f19457468657265756d205369676e6564204d6573736167653a0a3332000000008152509050808260405160200161317a929190613eff565b6040516020818303038152906040528051906020012092505050919050565b607054815160009110156131af57506000919050565b60005b825181101561328b57606f60008483815181106131d1576131d1613cfc565b6020908102919091018101516001600160a01b031682528101919091526040016000205460ff166132055750600092915050565b60005b818110156132785783818151811061322257613222613cfc565b60200260200101516001600160a01b031684838151811061324557613245613cfc565b60200260200101516001600160a01b03161415613266575060009392505050565b8061327081613ce1565b915050613208565b508061328381613ce1565b9150506131b2565b50600192915050565b600054610100900460ff166132bb5760405162461bcd60e51b8152600401610c4690613f21565b611f2b828261340e565b6040518060600160405280828152602001607854836132e49190613d4b565b6132ee9042613cc9565b81526020908101849052336000908152607d82526040808220845181559284015160018401559290920151600290910155607a80549161332d83613ce1565b919050555081607b60008282546133449190613cc9565b90915550505050565b6001600160a01b0382166133a35760405162461bcd60e51b815260206004820152601f60248201527f45524332303a206d696e7420746f20746865207a65726f2061646472657373006044820152606401610c46565b80603560008282546133b59190613cc9565b90915550506001600160a01b0382166000818152603360209081526040808320805486019055518481527fddf252ad1be2c89b69c2b068fc378daa952ba7f163c4a11628f55a4df523b3ef910160405180910390a35050565b600054610100900460ff166134355760405162461bcd60e51b8152600401610c4690613f21565b8151613448906036906020850190613458565b508051612e169060379060208401905b82805461346490613c5c565b90600052602060002090601f01602090048101928261348657600085556134cc565b82601f1061349f57805160ff19168380011785556134cc565b828001600101855582156134cc579182015b828111156134cc5782518255916020019190600101906134b1565b506134d89291506134dc565b5090565b5b808211156134d857600081556001016134dd565b60005b8381101561350c5781810151838201526020016134f4565b83811115612e8f5750506000910152565b600081518084526135358160208601602086016134f1565b601f01601f19169290920160200192915050565b60208152600061132d602083018461351d565b80356001600160a01b038116811461357357600080fd5b919050565b6000806040838503121561358b57600080fd5b6135948361355c565b946020939093013593505050565b6000602082840312156135b457600080fd5b5035919050565b634e487b7160e01b600052604160045260246000fd5b604051601f8201601f191681016001600160401b03811182821017156135f9576135f96135bb565b604052919050565b600082601f83011261361257600080fd5b81356001600160401b0381111561362b5761362b6135bb565b61363e601f8201601f19166020016135d1565b81815284602083860101111561365357600080fd5b816020850160208301376000918101602001919091529392505050565b60006020828403121561368257600080fd5b81356001600160401b0381111561369857600080fd5b6136a484828501613601565b949350505050565b600080604083850312156136bf57600080fd5b82356001600160401b038111156136d557600080fd5b6136e185828601613601565b9250506136f06020840161355c565b90509250929050565b60008060006060848603121561370e57600080fd5b6137178461355c565b92506137256020850161355c565b9150604084013590509250925092565b60006001600160401b0382111561374e5761374e6135bb565b5060051b60200190565b600082601f83011261376957600080fd5b8135602061377e61377983613735565b6135d1565b82815260059290921b8401810191818101908684111561379d57600080fd5b8286015b848110156137c857803560ff811681146137bb5760008081fd5b83529183019183016137a1565b509695505050505050565b600082601f8301126137e457600080fd5b813560206137f461377983613735565b82815260059290921b8401810191818101908684111561381357600080fd5b8286015b848110156137c85780358352918301918301613817565b6000806000806080858703121561384457600080fd5b61384d8561355c565b935060208501356001600160401b038082111561386957600080fd5b61387588838901613758565b9450604087013591508082111561388b57600080fd5b613897888389016137d3565b935060608701359150808211156138ad57600080fd5b506138ba878288016137d3565b91505092959194509250565b6000602082840312156138d857600080fd5b61132d8261355c565b6000806000606084860312156138f657600080fd5b6138ff8461355c565b95602085013595506040909401359392505050565b6000806000806060858703121561392a57600080fd5b84356001600160401b038082111561394157600080fd5b818701915087601f83011261395557600080fd5b81358181111561396457600080fd5b8860208260051b850101111561397957600080fd5b6020928301965094505085013591506139946040860161355c565b905092959194509250565b600080604083850312156139b257600080fd5b50508035926020909101359150565b600081518084526020808501945080840160005b838110156139f1578151875295820195908201906001016139d5565b509495945050505050565b848152608060208201526000613a1560808301866139c1565b8281036040840152613a2781866139c1565b90508281036060840152613a3b81856139c1565b979650505050505050565b60008060408385031215613a5957600080fd5b82356001600160401b03811115613a6f57600080fd5b613a7b85828601613601565b95602094909401359450505050565b60008060408385031215613a9d57600080fd5b613aa68361355c565b91506136f06020840161355c565b600080600060408486031215613ac957600080fd5b613ad28461355c565b925060208401356001600160401b0380821115613aee57600080fd5b818601915086601f830112613b0257600080fd5b813581811115613b1157600080fd5b876020828501011115613b2357600080fd5b6020830194508093505050509250925092565b600080600080600060a08688031215613b4e57600080fd5b613b578661355c565b94506020860135935060408601356001600160401b0380821115613b7a57600080fd5b613b8689838a01613758565b94506060880135915080821115613b9c57600080fd5b613ba889838a016137d3565b93506080880135915080821115613bbe57600080fd5b50613bcb888289016137d3565b9150509295509295909350565b60008060408385031215613beb57600080fd5b613bf48361355c565b915060208301356001600160401b03811115613c0f57600080fd5b613c1b85828601613601565b9150509250929050565b6001600160a01b0385168152608060208201819052600090613c499083018661351d565b6040830194909452506060015292915050565b600181811c90821680613c7057607f821691505b60208210811415613c9157634e487b7160e01b600052602260045260246000fd5b50919050565b60008251613ca98184602087016134f1565b9190910192915050565b634e487b7160e01b600052601160045260246000fd5b60008219821115613cdc57613cdc613cb3565b500190565b6000600019821415613cf557613cf5613cb3565b5060010190565b634e487b7160e01b600052603260045260246000fd5b600082821015613d2457613d24613cb3565b500390565b600082613d4657634e487b7160e01b600052601260045260246000fd5b500490565b6000816000190483118215151615613d6557613d65613cb3565b500290565b600181815b80851115613da5578160001904821115613d8b57613d8b613cb3565b80851615613d9857918102915b93841c9390800290613d6f565b509250929050565b600082613dbc57506001610a49565b81613dc957506000610a49565b8160018114613ddf5760028114613de957613e05565b6001915050610a49565b60ff841115613dfa57613dfa613cb3565b50506001821b610a49565b5060208310610133831016604e8410600b8410161715613e28575081810a610a49565b613e328383613d6a565b8060001904821115613e4657613e46613cb3565b029392505050565b600061132d8383613dad565b606081526000613e6d606083018661351d565b60208301949094525060400152919050565b6001600160a01b0384168152606060208201819052600090613ea39083018561351d565b9050826040830152949350505050565b600081613ec257613ec2613cb3565b506000190190565b600060ff821660ff84168060ff03821115613ee757613ee7613cb3565b019392505050565b8183823760009101908152919050565b60008351613f118184602088016134f1565b9190910191825250602001919050565b6020808252602b908201527f496e697469616c697a61626c653a20636f6e7472616374206973206e6f74206960408201526a6e697469616c697a696e6760a81b60608201526080019056fea264697066735822122050b59957c3ea974abda4a8375da5afa4fc951e08d5b3301b09095218bcbdbde164736f6c63430008080033",
  "devdoc": {
    "kind": "dev",
    "methods": {
      "allowance(address,address)": {
        "details": "See {IERC20-allowance}."
      },
      "approve(address,uint256)": {
        "details": "See {IERC20-approve}. NOTE: If `amount` is the maximum `uint256`, the allowance is not updated on `transferFrom`. This is semantically equivalent to an infinite approval. Requirements: - `spender` cannot be the zero address."
      },
      "balanceOf(address)": {
        "details": "See {IERC20-balanceOf}."
      },
      "decimals()": {
        "details": "Returns the number of decimals used to get its user representation. For example, if `decimals` equals `2`, a balance of `505` tokens should be displayed to a user as `5.05` (`505 / 10 ** 2`). Tokens usually opt for a value of 18, imitating the relationship between Ether and Wei. This is the value {ERC20} uses, unless this function is overridden; NOTE: This information is only used for _display_ purposes: it in no way affects any of the arithmetic of the contract, including {IERC20-balanceOf} and {IERC20-transfer}."
      },
      "decreaseAllowance(address,uint256)": {
        "details": "Atomically decreases the allowance granted to `spender` by the caller. This is an alternative to {approve} that can be used as a mitigation for problems described in {IERC20-approve}. Emits an {Approval} event indicating the updated allowance. Requirements: - `spender` cannot be the zero address. - `spender` must have allowance for the caller of at least `subtractedValue`."
      },
      "increaseAllowance(address,uint256)": {
        "details": "Atomically increases the allowance granted to `spender` by the caller. This is an alternative to {approve} that can be used as a mitigation for problems described in {IERC20-approve}. Emits an {Approval} event indicating the updated allowance. Requirements: - `spender` cannot be the zero address."
      },
      "name()": {
        "details": "Returns the name of the token."
      },
      "symbol()": {
        "details": "Returns the symbol of the token, usually a shorter version of the name."
      },
      "totalSupply()": {
        "details": "See {IERC20-totalSupply}."
      },
      "transfer(address,uint256)": {
        "details": "See {IERC20-transfer}. Requirements: - `to` cannot be the zero address. - the caller must have a balance of at least `amount`."
      },
      "transferFrom(address,address,uint256)": {
        "details": "See {IERC20-transferFrom}. Emits an {Approval} event indicating the updated allowance. This is not required by the EIP. See the note at the beginning of {ERC20}. NOTE: Does not update the allowance if the current allowance is the maximum `uint256`. Requirements: - `from` and `to` cannot be the zero address. - `from` must have a balance of at least `amount`. - the caller must have allowance for ``from``'s tokens of at least `amount`."
      }
    },
    "version": 1
  },
  "userdoc": {
    "kind": "user",
    "methods": {},
    "version": 1
  },
  "storageLayout": {
    "storage": [
      {
        "astId": 6,
        "contract": "contracts/NGP.sol:NGP",
        "label": "_initialized",
        "offset": 0,
        "slot": "0",
        "type": "t_uint8"
      },
      {
        "astId": 9,
        "contract": "contracts/NGP.sol:NGP",
        "label": "_initializing",
        "offset": 1,
        "slot": "0",
        "type": "t_bool"
      },
      {
        "astId": 1208,
        "contract": "contracts/NGP.sol:NGP",
        "label": "__gap",
        "offset": 0,
        "slot": "1",
        "type": "t_array(t_uint256)50_storage"
      },
      {
        "astId": 187,
        "contract": "contracts/NGP.sol:NGP",
        "label": "_balances",
        "offset": 0,
        "slot": "51",
        "type": "t_mapping(t_address,t_uint256)"
      },
      {
        "astId": 193,
        "contract": "contracts/NGP.sol:NGP",
        "label": "_allowances",
        "offset": 0,
        "slot": "52",
        "type": "t_mapping(t_address,t_mapping(t_address,t_uint256))"
      },
      {
        "astId": 195,
        "contract": "contracts/NGP.sol:NGP",
        "label": "_totalSupply",
        "offset": 0,
        "slot": "53",
        "type": "t_uint256"
      },
      {
        "astId": 197,
        "contract": "contracts/NGP.sol:NGP",
        "label": "_name",
        "offset": 0,
        "slot": "54",
        "type": "t_string_storage"
      },
      {
        "astId": 199,
        "contract": "contracts/NGP.sol:NGP",
        "label": "_symbol",
        "offset": 0,
        "slot": "55",
        "type": "t_string_storage"
      },
      {
        "astId": 779,
        "contract": "contracts/NGP.sol:NGP",
        "label": "__gap",
        "offset": 0,
        "slot": "56",
        "type": "t_array(t_uint256)45_storage"
      },
      {
        "astId": 1225,
        "contract": "contracts/NGP.sol:NGP",
        "label": "daySupply",
        "offset": 0,
        "slot": "101",
        "type": "t_uint256"
      },
      {
        "astId": 1232,
        "contract": "contracts/NGP.sol:NGP",
        "label": "userMints",
        "offset": 0,
        "slot": "102",
        "type": "t_mapping(t_address,t_mapping(t_string_memory_ptr,t_struct(MintInfo)1223_storage))"
      },
      {
        "astId": 1237,
        "contract": "contracts/NGP.sol:NGP",
        "label": "userApplys",
        "offset": 0,
        "slot": "103",
        "type": "t_mapping(t_string_memory_ptr,t_array(t_address)dyn_storage)"
      },
      {
        "astId": 1241,
        "contract": "contracts/NGP.sol:NGP",
        "label": "degreeHeats",
        "offset": 0,
        "slot": "104",
        "type": "t_mapping(t_string_memory_ptr,t_uint256)"
      },
      {
        "astId": 1246,
        "contract": "contracts/NGP.sol:NGP",
        "label": "userNumbers",
        "offset": 0,
        "slot": "105",
        "type": "t_mapping(t_address,t_array(t_string_storage)dyn_storage)"
      },
      {
        "astId": 1250,
        "contract": "contracts/NGP.sol:NGP",
        "label": "withdrawAmount",
        "offset": 0,
        "slot": "106",
        "type": "t_mapping(t_address,t_uint256)"
      },
      {
        "astId": 1254,
        "contract": "contracts/NGP.sol:NGP",
        "label": "unWithDrawAmount",
        "offset": 0,
        "slot": "107",
        "type": "t_mapping(t_address,t_uint256)"
      },
      {
        "astId": 1258,
        "contract": "contracts/NGP.sol:NGP",
        "label": "rankWithdrawAmount",
        "offset": 0,
        "slot": "108",
        "type": "t_mapping(t_address,t_uint256)"
      },
      {
        "astId": 1262,
        "contract": "contracts/NGP.sol:NGP",
        "label": "minters",
        "offset": 0,
        "slot": "109",
        "type": "t_mapping(t_address,t_bool)"
      },
      {
        "astId": 1264,
        "contract": "contracts/NGP.sol:NGP",
        "label": "spendNonce",
        "offset": 0,
        "slot": "110",
        "type": "t_uint256"
      },
      {
        "astId": 1268,
        "contract": "contracts/NGP.sol:NGP",
        "label": "isOwner",
        "offset": 0,
        "slot": "111",
        "type": "t_mapping(t_address,t_bool)"
      },
      {
        "astId": 1271,
        "contract": "contracts/NGP.sol:NGP",
        "label": "owners",
        "offset": 0,
        "slot": "112",
        "type": "t_array(t_address)dyn_storage"
      },
      {
        "astId": 1273,
        "contract": "contracts/NGP.sol:NGP",
        "label": "required",
        "offset": 0,
        "slot": "113",
        "type": "t_uint256"
      },
      {
        "astId": 1275,
        "contract": "contracts/NGP.sol:NGP",
        "label": "genesisTs",
        "offset": 0,
        "slot": "114",
        "type": "t_uint256"
      },
      {
        "astId": 1277,
        "contract": "contracts/NGP.sol:NGP",
        "label": "activeMinters",
        "offset": 0,
        "slot": "115",
        "type": "t_uint256"
      },
      {
        "astId": 1279,
        "contract": "contracts/NGP.sol:NGP",
        "label": "activeNumbers",
        "offset": 0,
        "slot": "116",
        "type": "t_uint256"
      },
      {
        "astId": 1281,
        "contract": "contracts/NGP.sol:NGP",
        "label": "claimMints",
        "offset": 0,
        "slot": "117",
        "type": "t_uint256"
      },
      {
        "astId": 1283,
        "contract": "contracts/NGP.sol:NGP",
        "label": "maxMeshHeats",
        "offset": 0,
        "slot": "118",
        "type": "t_uint256"
      },
      {
        "astId": 1285,
        "contract": "contracts/NGP.sol:NGP",
        "label": "destructions",
        "offset": 0,
        "slot": "119",
        "type": "t_uint256"
      },
      {
        "astId": 1287,
        "contract": "contracts/NGP.sol:NGP",
        "label": "SECONDS_IN_DAY",
        "offset": 0,
        "slot": "120",
        "type": "t_uint256"
      },
      {
        "astId": 1296,
        "contract": "contracts/NGP.sol:NGP",
        "label": "apy",
        "offset": 0,
        "slot": "121",
        "type": "t_uint256"
      },
      {
        "astId": 1298,
        "contract": "contracts/NGP.sol:NGP",
        "label": "activeStakes",
        "offset": 0,
        "slot": "122",
        "type": "t_uint256"
      },
      {
        "astId": 1300,
        "contract": "contracts/NGP.sol:NGP",
        "label": "totalNGPStaked",
        "offset": 0,
        "slot": "123",
        "type": "t_uint256"
      },
      {
        "astId": 1302,
        "contract": "contracts/NGP.sol:NGP",
        "label": "totalEarn",
        "offset": 0,
        "slot": "124",
        "type": "t_uint256"
      },
      {
        "astId": 1307,
        "contract": "contracts/NGP.sol:NGP",
        "label": "userStakes",
        "offset": 0,
        "slot": "125",
        "type": "t_mapping(t_address,t_struct(StakeInfo)1294_storage)"
      },
      {
        "astId": 1311,
        "contract": "contracts/NGP.sol:NGP",
        "label": "dayClaims",
        "offset": 0,
        "slot": "126",
        "type": "t_mapping(t_uint256,t_uint256)"
      },
      {
        "astId": 1315,
        "contract": "contracts/NGP.sol:NGP",
        "label": "dayClaimed",
        "offset": 0,
        "slot": "127",
        "type": "t_mapping(t_uint256,t_bool)"
      },
      {
        "astId": 1317,
        "contract": "contracts/NGP.sol:NGP",
        "label": "treasuryValue",
        "offset": 0,
        "slot": "128",
        "type": "t_uint256"
      },
      {
        "astId": 1319,
        "contract": "contracts/NGP.sol:NGP",
        "label": "FoundationAddr",
        "offset": 0,
        "slot": "129",
        "type": "t_address"
      },
      {
        "astId": 1323,
        "contract": "contracts/NGP.sol:NGP",
        "label": "stakeValues",
        "offset": 0,
        "slot": "130",
        "type": "t_mapping(t_address,t_uint256)"
      },
      {
        "astId": 1327,
        "contract": "contracts/NGP.sol:NGP",
        "label": "dayReceived",
        "offset": 0,
        "slot": "131",
        "type": "t_mapping(t_uint256,t_uint256)"
      },
      {
        "astId": 1331,
        "contract": "contracts/NGP.sol:NGP",
        "label": "dayStaked",
        "offset": 0,
        "slot": "132",
        "type": "t_mapping(t_uint256,t_uint256)"
      },
      {
        "astId": 1335,
        "contract": "contracts/NGP.sol:NGP",
        "label": "dayUnStaked",
        "offset": 0,
        "slot": "133",
        "type": "t_mapping(t_uint256,t_uint256)"
      },
      {
        "astId": 1339,
        "contract": "contracts/NGP.sol:NGP",
        "label": "unWithdraws",
        "offset": 0,
        "slot": "134",
        "type": "t_mapping(t_address,t_uint256)"
      },
      {
        "astId": 1343,
        "contract": "contracts/NGP.sol:NGP",
        "label": "userWithdraws",
        "offset": 0,
        "slot": "135",
        "type": "t_mapping(t_address,t_uint256)"
      },
      {
        "astId": 1349,
        "contract": "contracts/NGP.sol:NGP",
        "label": "totalWithDraws",
        "offset": 0,
        "slot": "136",
        "type": "t_mapping(t_string_memory_ptr,t_mapping(t_address,t_uint256))"
      },
      {
        "astId": 1355,
        "contract": "contracts/NGP.sol:NGP",
        "label": "totalUnWithDraws",
        "offset": 0,
        "slot": "137",
        "type": "t_mapping(t_string_memory_ptr,t_mapping(t_address,t_uint256))"
      }
    ],
    "types": {
      "t_address": {
        "encoding": "inplace",
        "label": "address",
        "numberOfBytes": "20"
      },
      "t_array(t_address)dyn_storage": {
        "base": "t_address",
        "encoding": "dynamic_array",
        "label": "address[]",
        "numberOfBytes": "32"
      },
      "t_array(t_string_storage)dyn_storage": {
        "base": "t_string_storage",
        "encoding": "dynamic_array",
        "label": "string[]",
        "numberOfBytes": "32"
      },
      "t_array(t_uint256)45_storage": {
        "base": "t_uint256",
        "encoding": "inplace",
        "label": "uint256[45]",
        "numberOfBytes": "1440"
      },
      "t_array(t_uint256)50_storage": {
        "base": "t_uint256",
        "encoding": "inplace",
        "label": "uint256[50]",
        "numberOfBytes": "1600"
      },
      "t_bool": {
        "encoding": "inplace",
        "label": "bool",
        "numberOfBytes": "1"
      },
      "t_mapping(t_address,t_array(t_string_storage)dyn_storage)": {
        "encoding": "mapping",
        "key": "t_address",
        "label": "mapping(address => string[])",
        "numberOfBytes": "32",
        "value": "t_array(t_string_storage)dyn_storage"
      },
      "t_mapping(t_address,t_bool)": {
        "encoding": "mapping",
        "key": "t_address",
        "label": "mapping(address => bool)",
        "numberOfBytes": "32",
        "value": "t_bool"
      },
      "t_mapping(t_address,t_mapping(t_address,t_uint256))": {
        "encoding": "mapping",
        "key": "t_address",
        "label": "mapping(address => mapping(address => uint256))",
        "numberOfBytes": "32",
        "value": "t_mapping(t_address,t_uint256)"
      },
      "t_mapping(t_address,t_mapping(t_string_memory_ptr,t_struct(MintInfo)1223_storage))": {
        "encoding": "mapping",
        "key": "t_address",
        "label": "mapping(address => mapping(string => struct NGP.MintInfo))",
        "numberOfBytes": "32",
        "value": "t_mapping(t_string_memory_ptr,t_struct(MintInfo)1223_storage)"
      },
      "t_mapping(t_address,t_struct(StakeInfo)1294_storage)": {
        "encoding": "mapping",
        "key": "t_address",
        "label": "mapping(address => struct NGP.StakeInfo)",
        "numberOfBytes": "32",
        "value": "t_struct(StakeInfo)1294_storage"
      },
      "t_mapping(t_address,t_uint256)": {
        "encoding": "mapping",
        "key": "t_address",
        "label": "mapping(address => uint256)",
        "numberOfBytes": "32",
        "value": "t_uint256"
      },
      "t_mapping(t_string_memory_ptr,t_array(t_address)dyn_storage)": {
        "encoding": "mapping",
        "key": "t_string_memory_ptr",
        "label": "mapping(string => address[])",
        "numberOfBytes": "32",
        "value": "t_array(t_address)dyn_storage"
      },
      "t_mapping(t_string_memory_ptr,t_mapping(t_address,t_uint256))": {
        "encoding": "mapping",
        "key": "t_string_memory_ptr",
        "label": "mapping(string => mapping(address => uint256))",
        "numberOfBytes": "32",
        "value": "t_mapping(t_address,t_uint256)"
      },
      "t_mapping(t_string_memory_ptr,t_struct(MintInfo)1223_storage)": {
        "encoding": "mapping",
        "key": "t_string_memory_ptr",
        "label": "mapping(string => struct NGP.MintInfo)",
        "numberOfBytes": "32",
        "value": "t_struct(MintInfo)1223_storage"
      },
      "t_mapping(t_string_memory_ptr,t_uint256)": {
        "encoding": "mapping",
        "key": "t_string_memory_ptr",
        "label": "mapping(string => uint256)",
        "numberOfBytes": "32",
        "value": "t_uint256"
      },
      "t_mapping(t_uint256,t_bool)": {
        "encoding": "mapping",
        "key": "t_uint256",
        "label": "mapping(uint256 => bool)",
        "numberOfBytes": "32",
        "value": "t_bool"
      },
      "t_mapping(t_uint256,t_uint256)": {
        "encoding": "mapping",
        "key": "t_uint256",
        "label": "mapping(uint256 => uint256)",
        "numberOfBytes": "32",
        "value": "t_uint256"
      },
      "t_string_memory_ptr": {
        "encoding": "bytes",
        "label": "string",
        "numberOfBytes": "32"
      },
      "t_string_storage": {
        "encoding": "bytes",
        "label": "string",
        "numberOfBytes": "32"
      },
      "t_struct(MintInfo)1223_storage": {
        "encoding": "inplace",
        "label": "struct NGP.MintInfo",
        "members": [
          {
            "astId": 1216,
            "contract": "contracts/NGP.sol:NGP",
            "label": "user",
            "offset": 0,
            "slot": "0",
            "type": "t_address"
          },
          {
            "astId": 1218,
            "contract": "contracts/NGP.sol:NGP",
            "label": "number",
            "offset": 0,
            "slot": "1",
            "type": "t_string_storage"
          },
          {
            "astId": 1220,
            "contract": "contracts/NGP.sol:NGP",
            "label": "updateTs",
            "offset": 0,
            "slot": "2",
            "type": "t_uint256"
          },
          {
            "astId": 1222,
            "contract": "contracts/NGP.sol:NGP",
            "label": "withdrawTs",
            "offset": 0,
            "slot": "3",
            "type": "t_uint256"
          }
        ],
        "numberOfBytes": "128"
      },
      "t_struct(StakeInfo)1294_storage": {
        "encoding": "inplace",
        "label": "struct NGP.StakeInfo",
        "members": [
          {
            "astId": 1289,
            "contract": "contracts/NGP.sol:NGP",
            "label": "term",
            "offset": 0,
            "slot": "0",
            "type": "t_uint256"
          },
          {
            "astId": 1291,
            "contract": "contracts/NGP.sol:NGP",
            "label": "maturityTs",
            "offset": 0,
            "slot": "1",
            "type": "t_uint256"
          },
          {
            "astId": 1293,
            "contract": "contracts/NGP.sol:NGP",
            "label": "amount",
            "offset": 0,
            "slot": "2",
            "type": "t_uint256"
          }
        ],
        "numberOfBytes": "96"
      },
      "t_uint256": {
        "encoding": "inplace",
        "label": "uint256",
        "numberOfBytes": "32"
      },
      "t_uint8": {
        "encoding": "inplace",
        "label": "uint8",
        "numberOfBytes": "1"
      }
    }
  }
}