{
  "address": "0x79b303dCB2fFD861e30114FFdEa8f65a92A969cA",
  "abi": [
    {
      "anonymous": false,
      "inputs": [
        {
          "indexed": true,
          "internalType": "address",
          "name": "owner",
          "type": "address"
        },
        {
          "indexed": true,
          "internalType": "address",
          "name": "spender",
          "type": "address"
        },
        {
          "indexed": false,
          "internalType": "uint256",
          "name": "value",
          "type": "uint256"
        }
      ],
      "name": "Approval",
      "type": "event"
    },
    {
      "anonymous": false,
      "inputs": [
        {
          "indexed": false,
          "internalType": "address",
          "name": "user",
          "type": "address"
        },
        {
          "indexed": false,
          "internalType": "string",
          "name": "number",
          "type": "string"
        },
        {
          "indexed": false,
          "internalType": "uint256",
          "name": "time",
          "type": "uint256"
        }
      ],
      "name": "ClaimMint",
      "type": "event"
    },
    {
      "anonymous": false,
      "inputs": [
        {
          "indexed": false,
          "internalType": "address",
          "name": "user",
          "type": "address"
        },
        {
          "indexed": false,
          "internalType": "string",
          "name": "number",
          "type": "string"
        },
        {
          "indexed": false,
          "internalType": "uint256",
          "name": "time",
          "type": "uint256"
        }
      ],
      "name": "ClaimMintReward",
      "type": "event"
    },
    {
      "anonymous": false,
      "inputs": [
        {
          "indexed": false,
          "internalType": "string",
          "name": "number",
          "type": "string"
        },
        {
          "indexed": false,
          "internalType": "uint256",
          "name": "heat",
          "type": "uint256"
        },
        {
          "indexed": false,
          "internalType": "uint256",
          "name": "len",
          "type": "uint256"
        }
      ],
      "name": "DegreeHeats",
      "type": "event"
    },
    {
      "anonymous": false,
      "inputs": [
        {
          "indexed": false,
          "internalType": "uint8",
          "name": "version",
          "type": "uint8"
        }
      ],
      "name": "Initialized",
      "type": "event"
    },
    {
      "anonymous": false,
      "inputs": [
        {
          "indexed": true,
          "internalType": "address",
          "name": "user",
          "type": "address"
        },
        {
          "indexed": false,
          "internalType": "uint256",
          "name": "amount",
          "type": "uint256"
        },
        {
          "indexed": false,
          "internalType": "uint256",
          "name": "term",
          "type": "uint256"
        }
      ],
      "name": "Staked",
      "type": "event"
    },
    {
      "anonymous": false,
      "inputs": [
        {
          "indexed": true,
          "internalType": "address",
          "name": "from",
          "type": "address"
        },
        {
          "indexed": true,
          "internalType": "address",
          "name": "to",
          "type": "address"
        },
        {
          "indexed": false,
          "internalType": "uint256",
          "name": "value",
          "type": "uint256"
        }
      ],
      "name": "Transfer",
      "type": "event"
    },
    {
      "anonymous": false,
      "inputs": [
        {
          "indexed": true,
          "internalType": "address",
          "name": "user",
          "type": "address"
        },
        {
          "indexed": false,
          "internalType": "uint256",
          "name": "amount",
          "type": "uint256"
        },
        {
          "indexed": false,
          "internalType": "uint256",
          "name": "reward",
          "type": "uint256"
        }
      ],
      "name": "Withdrawn",
      "type": "event"
    },
    {
      "inputs": [],
      "name": "FoundationAddr",
      "outputs": [
        {
          "internalType": "address",
          "name": "",
          "type": "address"
        }
      ],
      "stateMutability": "view",
      "type": "function"
    },
    {
      "inputs": [
        {
          "internalType": "address",
          "name": "user",
          "type": "address"
        },
        {
          "internalType": "uint256",
          "name": "amount",
          "type": "uint256"
        }
      ],
      "name": "MintGNP",
      "outputs": [],
      "stateMutability": "nonpayable",
      "type": "function"
    },
    {
      "inputs": [],
      "name": "SECONDS_IN_DAY",
      "outputs": [
        {
          "internalType": "uint256",
          "name": "",
          "type": "uint256"
        }
      ],
      "stateMutability": "view",
      "type": "function"
    },
    {
      "inputs": [],
      "name": "activeMinters",
      "outputs": [
        {
          "internalType": "uint256",
          "name": "",
          "type": "uint256"
        }
      ],
      "stateMutability": "view",
      "type": "function"
    },
    {
      "inputs": [],
      "name": "activeNumbers",
      "outputs": [
        {
          "internalType": "uint256",
          "name": "",
          "type": "uint256"
        }
      ],
      "stateMutability": "view",
      "type": "function"
    },
    {
      "inputs": [],
      "name": "activeStakes",
      "outputs": [
        {
          "internalType": "uint256",
          "name": "",
          "type": "uint256"
        }
      ],
      "stateMutability": "view",
      "type": "function"
    },
    {
      "inputs": [],
      "name": "addSpendNonce",
      "outputs": [],
      "stateMutability": "nonpayable",
      "type": "function"
    },
    {
      "inputs": [
        {
          "internalType": "address",
          "name": "owner",
          "type": "address"
        },
        {
          "internalType": "address",
          "name": "spender",
          "type": "address"
        }
      ],
      "name": "allowance",
      "outputs": [
        {
          "internalType": "uint256",
          "name": "",
          "type": "uint256"
        }
      ],
      "stateMutability": "view",
      "type": "function"
    },
    {
      "inputs": [
        {
          "internalType": "address",
          "name": "spender",
          "type": "address"
        },
        {
          "internalType": "uint256",
          "name": "amount",
          "type": "uint256"
        }
      ],
      "name": "approve",
      "outputs": [
        {
          "internalType": "bool",
          "name": "",
          "type": "bool"
        }
      ],
      "stateMutability": "nonpayable",
      "type": "function"
    },
    {
      "inputs": [],
      "name": "apy",
      "outputs": [
        {
          "internalType": "uint256",
          "name": "",
          "type": "uint256"
        }
      ],
      "stateMutability": "view",
      "type": "function"
    },
    {
      "inputs": [
        {
          "internalType": "address",
          "name": "account",
          "type": "address"
        }
      ],
      "name": "balanceOf",
      "outputs": [
        {
          "internalType": "uint256",
          "name": "",
          "type": "uint256"
        }
      ],
      "stateMutability": "view",
      "type": "function"
    },
    {
      "inputs": [
        {
          "internalType": "string",
          "name": "_number",
          "type": "string"
        }
      ],
      "name": "claimMint",
      "outputs": [],
      "stateMutability": "nonpayable",
      "type": "function"
    },
    {
      "inputs": [
        {
          "internalType": "address",
          "name": "_user",
          "type": "address"
        },
        {
          "internalType": "uint256",
          "name": "_amount",
          "type": "uint256"
        },
        {
          "internalType": "uint8[]",
          "name": "vs",
          "type": "uint8[]"
        },
        {
          "internalType": "bytes32[]",
          "name": "rs",
          "type": "bytes32[]"
        },
        {
          "internalType": "bytes32[]",
          "name": "ss",
          "type": "bytes32[]"
        }
      ],
      "name": "claimMintReward",
      "outputs": [],
      "stateMutability": "nonpayable",
      "type": "function"
    },
    {
      "inputs": [],
      "name": "claimMints",
      "outputs": [
        {
          "internalType": "uint256",
          "name": "",
          "type": "uint256"
        }
      ],
      "stateMutability": "view",
      "type": "function"
    },
    {
      "inputs": [
        {
          "internalType": "uint256",
          "name": "",
          "type": "uint256"
        }
      ],
      "name": "dayClaimed",
      "outputs": [
        {
          "internalType": "bool",
          "name": "",
          "type": "bool"
        }
      ],
      "stateMutability": "view",
      "type": "function"
    },
    {
      "inputs": [
        {
          "internalType": "uint256",
          "name": "",
          "type": "uint256"
        }
      ],
      "name": "dayClaims",
      "outputs": [
        {
          "internalType": "uint256",
          "name": "",
          "type": "uint256"
        }
      ],
      "stateMutability": "view",
      "type": "function"
    },
    {
      "inputs": [
        {
          "internalType": "uint256",
          "name": "",
          "type": "uint256"
        }
      ],
      "name": "dayReceived",
      "outputs": [
        {
          "internalType": "uint256",
          "name": "",
          "type": "uint256"
        }
      ],
      "stateMutability": "view",
      "type": "function"
    },
    {
      "inputs": [
        {
          "internalType": "uint256",
          "name": "",
          "type": "uint256"
        }
      ],
      "name": "dayStaked",
      "outputs": [
        {
          "internalType": "uint256",
          "name": "",
          "type": "uint256"
        }
      ],
      "stateMutability": "view",
      "type": "function"
    },
    {
      "inputs": [],
      "name": "daySupply",
      "outputs": [
        {
          "internalType": "uint256",
          "name": "",
          "type": "uint256"
        }
      ],
      "stateMutability": "view",
      "type": "function"
    },
    {
      "inputs": [
        {
          "internalType": "uint256",
          "name": "",
          "type": "uint256"
        }
      ],
      "name": "dayUnStaked",
      "outputs": [
        {
          "internalType": "uint256",
          "name": "",
          "type": "uint256"
        }
      ],
      "stateMutability": "view",
      "type": "function"
    },
    {
      "inputs": [],
      "name": "decimals",
      "outputs": [
        {
          "internalType": "uint8",
          "name": "",
          "type": "uint8"
        }
      ],
      "stateMutability": "view",
      "type": "function"
    },
    {
      "inputs": [
        {
          "internalType": "address",
          "name": "spender",
          "type": "address"
        },
        {
          "internalType": "uint256",
          "name": "subtractedValue",
          "type": "uint256"
        }
      ],
      "name": "decreaseAllowance",
      "outputs": [
        {
          "internalType": "bool",
          "name": "",
          "type": "bool"
        }
      ],
      "stateMutability": "nonpayable",
      "type": "function"
    },
    {
      "inputs": [
        {
          "internalType": "string",
          "name": "",
          "type": "string"
        }
      ],
      "name": "degreeHeats",
      "outputs": [
        {
          "internalType": "uint256",
          "name": "",
          "type": "uint256"
        }
      ],
      "stateMutability": "view",
      "type": "function"
    },
    {
      "inputs": [],
      "name": "destructions",
      "outputs": [
        {
          "internalType": "uint256",
          "name": "",
          "type": "uint256"
        }
      ],
      "stateMutability": "view",
      "type": "function"
    },
    {
      "inputs": [],
      "name": "genesisTs",
      "outputs": [
        {
          "internalType": "uint256",
          "name": "",
          "type": "uint256"
        }
      ],
      "stateMutability": "view",
      "type": "function"
    },
    {
      "inputs": [],
      "name": "getEarthDashboard",
      "outputs": [
        {
          "internalType": "uint256",
          "name": "_totalSupply",
          "type": "uint256"
        },
        {
          "internalType": "uint256",
          "name": "liquidSupply",
          "type": "uint256"
        },
        {
          "internalType": "uint256",
          "name": "destruction",
          "type": "uint256"
        },
        {
          "internalType": "uint256",
          "name": "totalStaked",
          "type": "uint256"
        },
        {
          "internalType": "uint256",
          "name": "treasury",
          "type": "uint256"
        },
        {
          "internalType": "uint256",
          "name": "foundation",
          "type": "uint256"
        }
      ],
      "stateMutability": "view",
      "type": "function"
    },
    {
      "inputs": [],
      "name": "getMeshDashboard",
      "outputs": [
        {
          "internalType": "uint256",
          "name": "participants",
          "type": "uint256"
        },
        {
          "internalType": "uint256",
          "name": "totalclaimMints",
          "type": "uint256"
        },
        {
          "internalType": "uint256",
          "name": "claimedMesh",
          "type": "uint256"
        },
        {
          "internalType": "uint256",
          "name": "maxHeats",
          "type": "uint256"
        },
        {
          "internalType": "uint256",
          "name": "sinceGenesis",
          "type": "uint256"
        }
      ],
      "stateMutability": "view",
      "type": "function"
    },
    {
      "inputs": [],
      "name": "getMeshData",
      "outputs": [
        {
          "internalType": "uint256",
          "name": "userCounts",
          "type": "uint256"
        },
        {
          "internalType": "uint256",
          "name": "launchData",
          "type": "uint256"
        },
        {
          "internalType": "uint256",
          "name": "totalMinted",
          "type": "uint256"
        },
        {
          "internalType": "uint256",
          "name": "liquidSupply",
          "type": "uint256"
        }
      ],
      "stateMutability": "view",
      "type": "function"
    },
    {
      "inputs": [],
      "name": "getNetworkEvents",
      "outputs": [
        {
          "internalType": "uint256",
          "name": "_genesisTs",
          "type": "uint256"
        },
        {
          "internalType": "uint256[]",
          "name": "_received",
          "type": "uint256[]"
        },
        {
          "internalType": "uint256[]",
          "name": "_staked",
          "type": "uint256[]"
        },
        {
          "internalType": "uint256[]",
          "name": "_unstaked",
          "type": "uint256[]"
        }
      ],
      "stateMutability": "view",
      "type": "function"
    },
    {
      "inputs": [],
      "name": "getSpendNonce",
      "outputs": [
        {
          "internalType": "uint256",
          "name": "",
          "type": "uint256"
        }
      ],
      "stateMutability": "view",
      "type": "function"
    },
    {
      "inputs": [
        {
          "internalType": "address",
          "name": "_user",
          "type": "address"
        }
      ],
      "name": "getStakeInfo",
      "outputs": [
        {
          "internalType": "uint256",
          "name": "tvl",
          "type": "uint256"
        },
        {
          "internalType": "uint256",
          "name": "revenue",
          "type": "uint256"
        },
        {
          "internalType": "uint256",
          "name": "earned",
          "type": "uint256"
        },
        {
          "internalType": "uint256",
          "name": "claimable",
          "type": "uint256"
        },
        {
          "internalType": "uint256",
          "name": "totalApy",
          "type": "uint256"
        },
        {
          "internalType": "uint256",
          "name": "staked",
          "type": "uint256"
        },
        {
          "internalType": "uint256",
          "name": "totalEarnValue",
          "type": "uint256"
        },
        {
          "internalType": "uint256",
          "name": "offEarthStake",
          "type": "uint256"
        }
      ],
      "stateMutability": "view",
      "type": "function"
    },
    {
      "inputs": [
        {
          "internalType": "address",
          "name": "user",
          "type": "address"
        }
      ],
      "name": "getStakeTime",
      "outputs": [
        {
          "internalType": "uint256",
          "name": "ts",
          "type": "uint256"
        }
      ],
      "stateMutability": "view",
      "type": "function"
    },
    {
      "inputs": [
        {
          "internalType": "address",
          "name": "spender",
          "type": "address"
        },
        {
          "internalType": "uint256",
          "name": "addedValue",
          "type": "uint256"
        }
      ],
      "name": "increaseAllowance",
      "outputs": [
        {
          "internalType": "bool",
          "name": "",
          "type": "bool"
        }
      ],
      "stateMutability": "nonpayable",
      "type": "function"
    },
    {
      "inputs": [
        {
          "internalType": "address[]",
          "name": "_owners",
          "type": "address[]"
        },
        {
          "internalType": "uint256",
          "name": "_apy",
          "type": "uint256"
        },
        {
          "internalType": "address",
          "name": "_foundationAddr",
          "type": "address"
        }
      ],
      "name": "initialize",
      "outputs": [],
      "stateMutability": "nonpayable",
      "type": "function"
    },
    {
      "inputs": [],
      "name": "maxMeshHeats",
      "outputs": [
        {
          "internalType": "uint256",
          "name": "",
          "type": "uint256"
        }
      ],
      "stateMutability": "view",
      "type": "function"
    },
    {
      "inputs": [],
      "name": "name",
      "outputs": [
        {
          "internalType": "string",
          "name": "",
          "type": "string"
        }
      ],
      "stateMutability": "view",
      "type": "function"
    },
    {
      "inputs": [
        {
          "internalType": "address",
          "name": "",
          "type": "address"
        }
      ],
      "name": "rankWithdrawAmount",
      "outputs": [
        {
          "internalType": "uint256",
          "name": "",
          "type": "uint256"
        }
      ],
      "stateMutability": "view",
      "type": "function"
    },
    {
      "inputs": [
        {
          "internalType": "uint256",
          "name": "amount",
          "type": "uint256"
        },
        {
          "internalType": "uint256",
          "name": "term",
          "type": "uint256"
        }
      ],
      "name": "stake",
      "outputs": [],
      "stateMutability": "nonpayable",
      "type": "function"
    },
    {
      "inputs": [
        {
          "internalType": "address",
          "name": "",
          "type": "address"
        }
      ],
      "name": "stakeValues",
      "outputs": [
        {
          "internalType": "uint256",
          "name": "",
          "type": "uint256"
        }
      ],
      "stateMutability": "view",
      "type": "function"
    },
    {
      "inputs": [],
      "name": "symbol",
      "outputs": [
        {
          "internalType": "string",
          "name": "",
          "type": "string"
        }
      ],
      "stateMutability": "view",
      "type": "function"
    },
    {
      "inputs": [],
      "name": "totalEarn",
      "outputs": [
        {
          "internalType": "uint256",
          "name": "",
          "type": "uint256"
        }
      ],
      "stateMutability": "view",
      "type": "function"
    },
    {
      "inputs": [],
      "name": "totalNGPStaked",
      "outputs": [
        {
          "internalType": "uint256",
          "name": "",
          "type": "uint256"
        }
      ],
      "stateMutability": "view",
      "type": "function"
    },
    {
      "inputs": [],
      "name": "totalSupply",
      "outputs": [
        {
          "internalType": "uint256",
          "name": "",
          "type": "uint256"
        }
      ],
      "stateMutability": "view",
      "type": "function"
    },
    {
      "inputs": [
        {
          "internalType": "address",
          "name": "to",
          "type": "address"
        },
        {
          "internalType": "uint256",
          "name": "amount",
          "type": "uint256"
        }
      ],
      "name": "transfer",
      "outputs": [
        {
          "internalType": "bool",
          "name": "",
          "type": "bool"
        }
      ],
      "stateMutability": "nonpayable",
      "type": "function"
    },
    {
      "inputs": [
        {
          "internalType": "address",
          "name": "from",
          "type": "address"
        },
        {
          "internalType": "address",
          "name": "to",
          "type": "address"
        },
        {
          "internalType": "uint256",
          "name": "amount",
          "type": "uint256"
        }
      ],
      "name": "transferFrom",
      "outputs": [
        {
          "internalType": "bool",
          "name": "",
          "type": "bool"
        }
      ],
      "stateMutability": "nonpayable",
      "type": "function"
    },
    {
      "inputs": [],
      "name": "treasuryValue",
      "outputs": [
        {
          "internalType": "uint256",
          "name": "",
          "type": "uint256"
        }
      ],
      "stateMutability": "view",
      "type": "function"
    },
    {
      "inputs": [
        {
          "internalType": "address",
          "name": "",
          "type": "address"
        }
      ],
      "name": "unWithDrawAmount",
      "outputs": [
        {
          "internalType": "uint256",
          "name": "",
          "type": "uint256"
        }
      ],
      "stateMutability": "view",
      "type": "function"
    },
    {
      "inputs": [
        {
          "internalType": "string",
          "name": "",
          "type": "string"
        },
        {
          "internalType": "uint256",
          "name": "",
          "type": "uint256"
        }
      ],
      "name": "userApplys",
      "outputs": [
        {
          "internalType": "address",
          "name": "",
          "type": "address"
        }
      ],
      "stateMutability": "view",
      "type": "function"
    },
    {
      "inputs": [
        {
          "internalType": "address",
          "name": "",
          "type": "address"
        },
        {
          "internalType": "string",
          "name": "",
          "type": "string"
        }
      ],
      "name": "userMints",
      "outputs": [
        {
          "internalType": "address",
          "name": "user",
          "type": "address"
        },
        {
          "internalType": "string",
          "name": "number",
          "type": "string"
        },
        {
          "internalType": "uint256",
          "name": "updateTs",
          "type": "uint256"
        },
        {
          "internalType": "uint256",
          "name": "withdrawTs",
          "type": "uint256"
        }
      ],
      "stateMutability": "view",
      "type": "function"
    },
    {
      "inputs": [
        {
          "internalType": "address",
          "name": "",
          "type": "address"
        },
        {
          "internalType": "uint256",
          "name": "",
          "type": "uint256"
        }
      ],
      "name": "userNumbers",
      "outputs": [
        {
          "internalType": "string",
          "name": "",
          "type": "string"
        }
      ],
      "stateMutability": "view",
      "type": "function"
    },
    {
      "inputs": [
        {
          "internalType": "address",
          "name": "",
          "type": "address"
        }
      ],
      "name": "userStakes",
      "outputs": [
        {
          "internalType": "uint256",
          "name": "term",
          "type": "uint256"
        },
        {
          "internalType": "uint256",
          "name": "maturityTs",
          "type": "uint256"
        },
        {
          "internalType": "uint256",
          "name": "amount",
          "type": "uint256"
        }
      ],
      "stateMutability": "view",
      "type": "function"
    },
    {
      "inputs": [
        {
          "internalType": "address",
          "name": "_sender",
          "type": "address"
        },
        {
          "internalType": "uint8[]",
          "name": "vs",
          "type": "uint8[]"
        },
        {
          "internalType": "bytes32[]",
          "name": "rs",
          "type": "bytes32[]"
        },
        {
          "internalType": "bytes32[]",
          "name": "ss",
          "type": "bytes32[]"
        }
      ],
      "name": "validSignature",
      "outputs": [
        {
          "internalType": "bool",
          "name": "",
          "type": "bool"
        }
      ],
      "stateMutability": "view",
      "type": "function"
    },
    {
      "inputs": [],
      "name": "withdraw",
      "outputs": [],
      "stateMutability": "nonpayable",
      "type": "function"
    },
    {
      "inputs": [
        {
          "internalType": "address",
          "name": "",
          "type": "address"
        }
      ],
      "name": "withdrawAmount",
      "outputs": [
        {
          "internalType": "uint256",
          "name": "",
          "type": "uint256"
        }
      ],
      "stateMutability": "view",
      "type": "function"
    }
  ],
  "transactionHash": "0xe100026e313db5e6b84115b7a1bf0fa1e3ddcdaef71d54f7d78f234067efdefb",
  "args": [],
  "numDeployments": 1,
  "solcInputHash": "11c3c4e2b0baf01c57e348fec1444151",
  "bytecode": "0x608060405234801561001057600080fd5b506137cd806100206000396000f3fe608060405234801561001057600080fd5b50600436106103425760003560e01c8063890d3b27116101b8578063c345315311610104578063e3c41c4e116100a2578063ed2f23691161007c578063ed2f2369146107fb578063f01d110c14610804578063f9a18ba51461080d578063fb1c8b9f1461082d57600080fd5b8063e3c41c4e14610798578063e9cabce7146107c8578063ebcdbc2d146107db57600080fd5b8063cb92ef4a116100de578063cb92ef4a14610753578063dd62ed3e14610773578063dffd722f14610786578063e3af6d0a1461078f57600080fd5b8063c3453153146106dd578063c6a2a9f11461072b578063cb48e3c61461073357600080fd5b8063a673471511610171578063b4800cdc1161014b578063b4800cdc14610679578063bcfd8dbf14610682578063c18fab1414610695578063c293d09b146106ca57600080fd5b8063a673471514610635578063a6a5ff921461063e578063a9059cbb1461066657600080fd5b8063890d3b27146105845780638da7ad23146105af5780638ed4064a146105f9578063903993181461060257806395d89b411461061a578063a457c2d71461062257600080fd5b80633adfe5ea116102925780635f7bb9321161023057806370a082311161020a57806370a082311461052257806372483bf91461054b5780637b0472f01461055e5780638283cef61461057157600080fd5b80635f7bb932146104d657806361a52a36146104f65780636e5d8280146104ff57600080fd5b80633d7af48f1161026c5780633d7af48f146104915780634c2346fa1461049a5780634f420151146104ad5780635cad385c146104cd57600080fd5b80633adfe5ea146104785780633bcfc4b8146104805780633ccfd60b1461048957600080fd5b806318160ddd116102ff57806323b872dd116102d957806323b872dd146104235780632c2d0a0c14610436578063313ce56714610456578063395093511461046557600080fd5b806318160ddd146103e75780631c02b1f4146103ef5780631dca03bc146103f857600080fd5b806306fdde0314610347578063095ea7b3146103655780630aedb5ba146103885780630bfbba011461039f5780630ffcccff146103b257806313066240146103d2575b600080fd5b61034f610850565b60405161035c9190612e7d565b60405180910390f35b610378610373366004612eac565b6108e2565b604051901515815260200161035c565b61039160655481565b60405190815260200161035c565b61034f6103ad366004612eac565b6108fc565b6103916103c0366004612ed6565b60836020526000908152604090205481565b6103e56103e0366004612fa4565b6109b5565b005b603554610391565b61039160765481565b610391610406366004612fa4565b805160208183018101805160688252928201919093012091525481565b610378610431366004612fe0565b6110ad565b610391610444366004612ed6565b60856020526000908152604090205481565b6040516012815260200161035c565b610378610473366004612eac565b6110d3565b6103e56110f5565b61039160795481565b6103e561110c565b61039160745481565b6103786104a8366004613115565b6112d3565b6103916104bb3660046131ad565b606a6020526000908152604090205481565b61039160775481565b6103916104e43660046131ad565b60826020526000908152604090205481565b61039160785481565b61037861050d366004612ed6565b607f6020526000908152604090205460ff1681565b6103916105303660046131ad565b6001600160a01b031660009081526033602052604090205490565b6103e56105593660046131c8565b6115b7565b6103e561056c366004613253565b611838565b6103e561057f366004612eac565b611a0a565b608154610597906001600160a01b031681565b6040516001600160a01b03909116815260200161035c565b6105de6105bd3660046131ad565b607d6020526000908152604090208054600182015460029092015490919083565b6040805193845260208401929092529082015260600161035c565b610391607b5481565b61060a611a18565b60405161035c94939291906132b0565b61034f611bc6565b610378610630366004612eac565b611bd5565b61039160755481565b610646611c5b565b60408051948552602085019390935291830152606082015260800161035c565b610378610674366004612eac565b611cb1565b61039160735481565b6103916106903660046131ad565b611cbf565b61069d611d02565b604080519687526020870195909552938501929092526060840152608083015260a082015260c00161035c565b6105976106d83660046132fa565b611d67565b6106f06106eb3660046131ad565b611dae565b604080519889526020890197909752958701949094526060860192909252608085015260a084015260c083015260e08201526101000161035c565b606e54610391565b6103916107413660046131ad565b606b6020526000908152604090205481565b610391610761366004612ed6565b607e6020526000908152604090205481565b61039161078136600461333e565b611e99565b610391607c5481565b61039160725481565b6107a0611ec4565b604080519586526020860194909452928401919091526060830152608082015260a00161035c565b6103e56107d6366004613371565b611ef7565b6103916107e9366004612ed6565b60846020526000908152604090205481565b610391607a5481565b61039160805481565b61039161081b3660046131ad565b606c6020526000908152604090205481565b61084061083b366004613413565b612422565b60405161035c9493929190613460565b60606036805461085f90613497565b80601f016020809104026020016040519081016040528092919081815260200182805461088b90613497565b80156108d85780601f106108ad576101008083540402835291602001916108d8565b820191906000526020600020905b8154815290600101906020018083116108bb57829003601f168201915b5050505050905090565b6000336108f08185856124f9565b60019150505b92915050565b6069602052816000526040600020818154811061091857600080fd5b9060005260206000200160009150915050805461093490613497565b80601f016020809104026020016040519081016040528092919081815260200182805461096090613497565b80156109ad5780601f10610982576101008083540402835291602001916109ad565b820191906000526020600020905b81548152906001019060200180831161099057829003601f168201915b505050505081565b3360009081526066602052604080822090516109d29084906134d2565b9081526040805191829003602090810183206080840190925281546001600160a01b0316835260018201805491840191610a0b90613497565b80601f0160208091040260200160405190810160405280929190818152602001828054610a3790613497565b8015610a845780601f10610a5957610100808354040283529160200191610a84565b820191906000526020600020905b815481529060010190602001808311610a6757829003601f168201915b505050505081526020016002820154815260200160038201548152505090508060400151600014610afc5760405162461bcd60e51b815260206004820152601e60248201527f6d4e47503a204d696e7420616c726561647920696e2070726f6772657373000060448201526064015b60405180910390fd5b6000606783604051610b0e91906134d2565b9081526040519081900360200190205490508015610b7d576000600a606885604051610b3a91906134d2565b908152602001604051809103902054610b539190613504565b90508060776000828254610b679190613526565b90915550610b779050338261261e565b50610b93565b60748054906000610b8d8361353e565b91905055505b6020808301849052338084524260408086018290526060860191909152600091825260669092528190209051839190610bcd9086906134d2565b90815260405160209181900382019020825181546001600160a01b0319166001600160a01b039091161781558282015180519192610c1392600185019290910190612d8c565b506040820151600282015560609091015160039091015560005b606784604051610c3d91906134d2565b90815260405190819003602001902054811015610dcd576000606785604051610c6691906134d2565b90815260200160405180910390208281548110610c8557610c85613559565b60009182526020808320909101546078546001600160a01b039091168084526066909252604080842090519294509091610cc09089906134d2565b90815260200160405180910390206003015442610cdd919061356f565b610ce79190613504565b9050600084610cf883611a0b613586565b610d029190613504565b9050610d0f60018361356f565b610d1a906002613689565b610d25906001613504565b610d3090600261356f565b610d3a9082613586565b6001600160a01b0384166000908152606660205260409081902090519192504291610d66908a906134d2565b90815260200160405180910390206003018190555080606a6000856001600160a01b03166001600160a01b031681526020019081526020016000206000828254610db09190613526565b925050819055505050508080610dc59061353e565b915050610c2d565b50606783604051610dde91906134d2565b90815260405190819003602090810182208054600181018255600091825291812090910180546001600160a01b0319163317905590606790610e219086906134d2565b9081526040519081900360200190205490506000610e40826064613689565b610e4b83606a613689565b610e559190613504565b610e6190611a0b613586565b905080606886604051610e7491906134d2565b9081526020016040518091039020819055507fe5c486bee358a5fff5e4d70dc5fdaaf14806df125ffde843a8c40db608264812858284604051610eb993929190613695565b60405180910390a1607654811115610ed15760768190555b33600090815260696020908152604082208054600181018255908352918190208751610f04939190910191880190612d8c565b50336000908152606d602052604090205460ff16610f4c5760738054906000610f2c8361353e565b9091555050336000908152606d60205260409020805460ff191660011790555b600060785442610f5c9190613504565b9050607f6000610f6d60018461356f565b815260208101919091526040016000205460ff16158015610fa85750607854610f97906003613586565b607254610fa49190613526565b4210155b1561105557607454610fbe906307b98a0061356f565b610fca90611a0b613586565b607e6000610fd960028561356f565b815260200190815260200160002054611a0b610ff5919061356f565b610fff9190613526565b61100e9064174876e800613586565b6080600082825461101f9190613526565b9091555060019050607f6000611035838561356f565b81526020810191909152604001600020805460ff19169115159190911790555b607580549060006110658361353e565b91905055507f1309ab74031e37b46ee8ce9ff667a17a5c69a500a05d167e4c89ad8b0bc40bf933874260405161109d939291906136ba565b60405180910390a1505050505050565b6000336110bb85828561274f565b6110c68585856127c9565b60019150505b9392505050565b6000336108f08185856110e68383611e99565b6110f09190613526565b6124f9565b606e80549060006111058361353e565b9190505550565b336000908152607d602090815260409182902082516060810184528154815260018201549281019290925260020154918101829052906111855760405162461bcd60e51b81526020600482015260146024820152734e47503a206e6f207374616b652065786973747360601b6044820152606401610af3565b600061119e826040015183600001518460200151612974565b905060008183604001516111b29190613526565b90506000607854607254426111c7919061356f565b6111d19190613504565b336000908152608260205260408120805492935085929091906111f5908490613526565b9250508190555082607c600082825461120e9190613526565b9091555050607a8054906000611223836136ee565b91905055508360400151607b600082825461123e919061356f565b909155505060008181526085602052604081208054849290611261908490613526565b90915550611271905033836129b9565b60408085015181519081526020810185905233917f92ccf450a286a957af52509bc1c9939d1a6a481783e142e41e2499f0bb66ebc6910160405180910390a25050336000908152607d6020526040812081815560018101829055600201555050565b6000825184511461131f5760405162461bcd60e51b81526020600482015260166024820152750ece65cd8cadccee8d0407a7a40e4e65cd8cadccee8d60531b6044820152606401610af3565b81518351146113695760405162461bcd60e51b81526020600482015260166024820152750e4e65cd8cadccee8d0407a7a40e6e65cd8cadccee8d60531b6044820152606401610af3565b607054845111156113bc5760405162461bcd60e51b815260206004820152601a60248201527f76732e6c656e677468203c3d206f776e6572732e6c656e6774680000000000006044820152606401610af3565b607154845110156114075760405162461bcd60e51b81526020600482015260156024820152741d9ccb9b195b99dd1a080f8f481c995c5d5a5c9959605a1b6044820152606401610af3565b600061141286612a0b565b9050600085516001600160401b0381111561142f5761142f612eef565b604051908082528060200260200182016040528015611458578160200160208202803683370190505b50905060005b86518110156115625760018388838151811061147c5761147c613559565b6020026020010151601b6114909190613705565b8884815181106114a2576114a2613559565b60200260200101518885815181106114bc576114bc613559565b6020026020010151604051600081526020016040526040516114fa949392919093845260ff9290921660208401526040830152606082015260800190565b6020604051602081039080840390855afa15801561151c573d6000803e3d6000fd5b5050506020604051035182828151811061153857611538613559565b6001600160a01b03909216602092830291909101909101528061155a8161353e565b91505061145e565b5061156c81612acd565b6115aa5760405162461bcd60e51b815260206004820152600f60248201526e5f64697374696e63744f776e65727360881b6044820152606401610af3565b5060019695505050505050565b600054610100900460ff16158080156115d75750600054600160ff909116105b806115f15750303b1580156115f1575060005460ff166001145b6116545760405162461bcd60e51b815260206004820152602e60248201527f496e697469616c697a61626c653a20636f6e747261637420697320616c72656160448201526d191e481a5b9a5d1a585b1a5e995960921b6064820152608401610af3565b6000805460ff191660011790558015611677576000805461ff0019166101001790555b6116c16040518060400160405280600b81526020016a22a0a92a24102a37b5b2b760a91b8152506040518060400160405280600581526020016408a82a4a8960db1b815250612bc8565b60005b848110156117a65760008686838181106116e0576116e0613559565b90506020020160208101906116f591906131ad565b6001600160a01b0381166000908152606f602052604090205490915060ff168061172657506001600160a01b038116155b1561173057600080fd5b6001600160a01b03166000818152606f60205260408120805460ff191660019081179091556070805491820181559091527f8f6b23ffa15f0465e3176e15ca644cf24f86dc1312fe715484e3c4aead5eb78b0180546001600160a01b03191690911790558061179e8161353e565b9150506116c4565b506117b2600285613504565b6117bd906001613526565b60715562015180607855426072556079839055608180546001600160a01b0319166001600160a01b0384161790558015611831576000805461ff0019169055604051600181527f7f26b83ff96e1f2b6a682f133852f6798a09c465da95921460cefb38474024989060200160405180910390a15b5050505050565b336000908152603360205260409020548211156118975760405162461bcd60e51b815260206004820152601760248201527f4e47503a206e6f7420656e6f7567682062616c616e63650000000000000000006044820152606401610af3565b600082116118d95760405162461bcd60e51b815260206004820152600f60248201526e04e47503a20616d6f756e74203e203608c1b6044820152606401610af3565b600181101561191b5760405162461bcd60e51b815260206004820152600e60248201526d4e47503a207465726d203e3d203160901b6044820152606401610af3565b336000908152607d60205260409020600201541561196f5760405162461bcd60e51b81526020600482015260116024820152704e47503a207374616b652065786973747360781b6044820152606401610af3565b611979338361261e565b6119838282612bf9565b600060785460725442611996919061356f565b6119a09190613504565b9050826084600083815260200190815260200160002060008282546119c59190613526565b9091555050604080518481526020810184905233917f1449c6dd7851abc30abf37f57715f492010519147cc2652fbc38202c18a6ee90910160405180910390a2505050565b611a148282612c81565b5050565b60006060806060600060785460725442611a32919061356f565b611a3c9190613504565b9050806001600160401b03811115611a5657611a56612eef565b604051908082528060200260200182016040528015611a7f578160200160208202803683370190505b509350806001600160401b03811115611a9a57611a9a612eef565b604051908082528060200260200182016040528015611ac3578160200160208202803683370190505b509250806001600160401b03811115611ade57611ade612eef565b604051908082528060200260200182016040528015611b07578160200160208202803683370190505b509150607254945060005b81811015611bbe576000818152608360205260409020548551869083908110611b3d57611b3d613559565b6020026020010181815250506084600082815260200190815260200160002054848281518110611b6f57611b6f613559565b6020026020010181815250506085600082815260200190815260200160002054838281518110611ba157611ba1613559565b602090810291909101015280611bb68161353e565b915050611b12565b505090919293565b60606037805461085f90613497565b60003381611be38286611e99565b905083811015611c435760405162461bcd60e51b815260206004820152602560248201527f45524332303a2064656372656173656420616c6c6f77616e63652062656c6f77604482015264207a65726f60d81b6064820152608401610af3565b611c5082868684036124f9565b506001949350505050565b600080600080607354935060785460725442611c77919061356f565b611c819190613504565b9250611c8c60355490565b30600090815260336020526040902054909250611ca9908361356f565b905090919293565b6000336108f08185856127c9565b6001600160a01b0381166000908152607d6020526040812060020154611ce3575060005b506001600160a01b03166000908152607d602052604090206001015490565b600080600080600080611d1460355490565b30600090815260336020526040902054909650611d31908761356f565b607754607b546080546081546001600160a01b0316600090815260336020526040902054999a9399929850909650945092509050565b81516020818401810180516067825292820191850191909120919052805482908110611d9257600080fd5b6000918252602090912001546001600160a01b03169150829050565b6000806000806000806000806005607b546001611dcb9190613586565b611dd59190613504565b97506005607c546001611de89190613586565b611df29190613504565b607c546001600160a01b038b166000908152607d602052604090206001015491985096504211611e3f576001600160a01b0389166000908152607d60205260409020600201549450611e44565b600094505b6079546001600160a01b038a166000908152607d602090815260408083206002015460829092529091205491955093509150611e7f60355490565b607b54611e8c9190613504565b9050919395975091939597565b6001600160a01b03918216600090815260346020908152604080832093909416825291909152205490565b60735460755460745460765460785460725460009190611ee4904261356f565b611eee9190613504565b90509091929394565b336000908152606f602052604090205460ff16611f425760405162461bcd60e51b81526020600482015260096024820152683737ba1037bbb732b960b91b6044820152606401610af3565b611f4e858484846112d3565b611f8f5760405162461bcd60e51b8152602060048201526012602482015271696e76616c6964207369676e61747572657360701b6044820152606401610af3565b606e54611f9d906001613526565b606e556078546000908190611fb29042613504565b905060005b6001600160a01b038816600090815260696020526040902054811015612235576001600160a01b038816600090815260696020526040812080548390811061200157612001613559565b90600052602060002001805461201690613497565b80601f016020809104026020016040519081016040528092919081815260200182805461204290613497565b801561208f5780601f106120645761010080835404028352916020019161208f565b820191906000526020600020905b81548152906001019060200180831161207257829003601f168201915b5050505050905060006067826040516120a891906134d2565b9081526040805160209281900383018120546078546001600160a01b038f1660009081526066909552928420909450906120e39086906134d2565b90815260200160405180910390206003015442612100919061356f565b61210a9190613504565b905060008261211b83611a0b613586565b6121259190613504565b9050600182106121625780607e600061213f60018a61356f565b8152602001908152602001600020600082825461215c9190613526565b90915550505b61216d60018361356f565b612178906002613689565b612183906001613504565b61218e90600261356f565b6121989082613586565b6121a29088613526565b6001600160a01b038d1660009081526066602052604090819020905191985042916121ce9087906134d2565b9081526020016040518091039020600301819055507ff498e0b0d0e3ef52fe21a90b9ea81effdeee405ca5fd31bf66845b803a495986338542604051612216939291906136ba565b60405180910390a150505050808061222d9061353e565b915050611fb7565b50607f600061224560018461356f565b815260208101919091526040016000205460ff16158015612280575060785461226f906003613586565b60725461227c9190613526565b4210155b156123535760006074546307b98a00612299919061356f565b6122a590611a0b613586565b607e60006122b460028661356f565b815260200190815260200160002054611a0b6122d0919061356f565b6122da9190613526565b6122e99064174876e800613586565b905080608060008282546122fd9190613526565b9091555050608154612322906001600160a01b031661231d600584613504565b6129b9565b6001607f6000612332838661356f565b81526020810191909152604001600020805460ff1916911515919091179055505b6001600160a01b0387166000908152606a60205260408120546064906123799085613526565b61238490600a613586565b61238e9190613504565b61239d9064174876e800613586565b6001600160a01b0389166000908152606a6020526040812054919250906064906123c79086613526565b6123d290605a613586565b6123dc9190613504565b336000908152606b6020526040902081905590506123fe8961231d8a85613526565b5050506001600160a01b039095166000908152606a60205260408120555050505050565b60666020908152600092835260409092208151808301840180519281529084019290930191909120915280546001820180546001600160a01b03909216929161246a90613497565b80601f016020809104026020016040519081016040528092919081815260200182805461249690613497565b80156124e35780601f106124b8576101008083540402835291602001916124e3565b820191906000526020600020905b8154815290600101906020018083116124c657829003601f168201915b5050505050908060020154908060030154905084565b6001600160a01b03831661255b5760405162461bcd60e51b8152602060048201526024808201527f45524332303a20617070726f76652066726f6d20746865207a65726f206164646044820152637265737360e01b6064820152608401610af3565b6001600160a01b0382166125bc5760405162461bcd60e51b815260206004820152602260248201527f45524332303a20617070726f766520746f20746865207a65726f206164647265604482015261737360f01b6064820152608401610af3565b6001600160a01b0383811660008181526034602090815260408083209487168084529482529182902085905590518481527f8c5be1e5ebec7d5bd14f71427d1e84f3dd0314c0f7b2291e5b200ac8c7c3b92591015b60405180910390a3505050565b6001600160a01b03821661267e5760405162461bcd60e51b815260206004820152602160248201527f45524332303a206275726e2066726f6d20746865207a65726f206164647265736044820152607360f81b6064820152608401610af3565b6001600160a01b038216600090815260336020526040902054818110156126f25760405162461bcd60e51b815260206004820152602260248201527f45524332303a206275726e20616d6f756e7420657863656564732062616c616e604482015261636560f01b6064820152608401610af3565b6001600160a01b03831660008181526033602090815260408083208686039055603580548790039055518581529192917fddf252ad1be2c89b69c2b068fc378daa952ba7f163c4a11628f55a4df523b3ef9101612611565b505050565b600061275b8484611e99565b905060001981146127c357818110156127b65760405162461bcd60e51b815260206004820152601d60248201527f45524332303a20696e73756666696369656e7420616c6c6f77616e63650000006044820152606401610af3565b6127c384848484036124f9565b50505050565b6001600160a01b03831661282d5760405162461bcd60e51b815260206004820152602560248201527f45524332303a207472616e736665722066726f6d20746865207a65726f206164604482015264647265737360d81b6064820152608401610af3565b6001600160a01b03821661288f5760405162461bcd60e51b815260206004820152602360248201527f45524332303a207472616e7366657220746f20746865207a65726f206164647260448201526265737360e81b6064820152608401610af3565b6001600160a01b038316600090815260336020526040902054818110156129075760405162461bcd60e51b815260206004820152602660248201527f45524332303a207472616e7366657220616d6f756e7420657863656564732062604482015265616c616e636560d01b6064820152608401610af3565b6001600160a01b0380851660008181526033602052604080822086860390559286168082529083902080548601905591517fddf252ad1be2c89b69c2b068fc378daa952ba7f163c4a11628f55a4df523b3ef906129679086815260200190565b60405180910390a36127c3565b6000814211156129af5760008360795461298e9190613586565b905061271061299d8287613586565b6129a79190613504565b9150506110cc565b5060009392505050565b6000607854607254426129cc919061356f565b6129d69190613504565b9050816083600083815260200190815260200160002060008282546129fb9190613526565b9091555061274a90508383612c81565b600080612a5f83606e546040805160609390931b6bffffffffffffffffffffffff19166020808501919091524660348501526054808501939093528151808503909301835260749093019052805191012090565b905060006040518060400160405280601c81526020017f19457468657265756d205369676e6564204d6573736167653a0a33320000000081525090508082604051602001612aae92919061372a565b6040516020818303038152906040528051906020012092505050919050565b60705481516000911015612ae357506000919050565b60005b8251811015612bbf57606f6000848381518110612b0557612b05613559565b6020908102919091018101516001600160a01b031682528101919091526040016000205460ff16612b395750600092915050565b60005b81811015612bac57838181518110612b5657612b56613559565b60200260200101516001600160a01b0316848381518110612b7957612b79613559565b60200260200101516001600160a01b03161415612b9a575060009392505050565b80612ba48161353e565b915050612b3c565b5080612bb78161353e565b915050612ae6565b50600192915050565b600054610100900460ff16612bef5760405162461bcd60e51b8152600401610af39061374c565b611a148282612d42565b604051806060016040528082815260200160785483612c189190613586565b612c229042613526565b81526020908101849052336000908152607d82526040808220845181559284015160018401559290920151600290910155607a805491612c618361353e565b919050555081607b6000828254612c789190613526565b90915550505050565b6001600160a01b038216612cd75760405162461bcd60e51b815260206004820152601f60248201527f45524332303a206d696e7420746f20746865207a65726f2061646472657373006044820152606401610af3565b8060356000828254612ce99190613526565b90915550506001600160a01b0382166000818152603360209081526040808320805486019055518481527fddf252ad1be2c89b69c2b068fc378daa952ba7f163c4a11628f55a4df523b3ef910160405180910390a35050565b600054610100900460ff16612d695760405162461bcd60e51b8152600401610af39061374c565b8151612d7c906036906020850190612d8c565b50805161274a9060379060208401905b828054612d9890613497565b90600052602060002090601f016020900481019282612dba5760008555612e00565b82601f10612dd357805160ff1916838001178555612e00565b82800160010185558215612e00579182015b82811115612e00578251825591602001919060010190612de5565b50612e0c929150612e10565b5090565b5b80821115612e0c5760008155600101612e11565b60005b83811015612e40578181015183820152602001612e28565b838111156127c35750506000910152565b60008151808452612e69816020860160208601612e25565b601f01601f19169290920160200192915050565b6020815260006110cc6020830184612e51565b80356001600160a01b0381168114612ea757600080fd5b919050565b60008060408385031215612ebf57600080fd5b612ec883612e90565b946020939093013593505050565b600060208284031215612ee857600080fd5b5035919050565b634e487b7160e01b600052604160045260246000fd5b604051601f8201601f191681016001600160401b0381118282101715612f2d57612f2d612eef565b604052919050565b600082601f830112612f4657600080fd5b81356001600160401b03811115612f5f57612f5f612eef565b612f72601f8201601f1916602001612f05565b818152846020838601011115612f8757600080fd5b816020850160208301376000918101602001919091529392505050565b600060208284031215612fb657600080fd5b81356001600160401b03811115612fcc57600080fd5b612fd884828501612f35565b949350505050565b600080600060608486031215612ff557600080fd5b612ffe84612e90565b925061300c60208501612e90565b9150604084013590509250925092565b60006001600160401b0382111561303557613035612eef565b5060051b60200190565b600082601f83011261305057600080fd5b813560206130656130608361301c565b612f05565b82815260059290921b8401810191818101908684111561308457600080fd5b8286015b848110156130af57803560ff811681146130a25760008081fd5b8352918301918301613088565b509695505050505050565b600082601f8301126130cb57600080fd5b813560206130db6130608361301c565b82815260059290921b840181019181810190868411156130fa57600080fd5b8286015b848110156130af57803583529183019183016130fe565b6000806000806080858703121561312b57600080fd5b61313485612e90565b935060208501356001600160401b038082111561315057600080fd5b61315c8883890161303f565b9450604087013591508082111561317257600080fd5b61317e888389016130ba565b9350606087013591508082111561319457600080fd5b506131a1878288016130ba565b91505092959194509250565b6000602082840312156131bf57600080fd5b6110cc82612e90565b600080600080606085870312156131de57600080fd5b84356001600160401b03808211156131f557600080fd5b818701915087601f83011261320957600080fd5b81358181111561321857600080fd5b8860208260051b850101111561322d57600080fd5b60209283019650945050850135915061324860408601612e90565b905092959194509250565b6000806040838503121561326657600080fd5b50508035926020909101359150565b600081518084526020808501945080840160005b838110156132a557815187529582019590820190600101613289565b509495945050505050565b8481526080602082015260006132c96080830186613275565b82810360408401526132db8186613275565b905082810360608401526132ef8185613275565b979650505050505050565b6000806040838503121561330d57600080fd5b82356001600160401b0381111561332357600080fd5b61332f85828601612f35565b95602094909401359450505050565b6000806040838503121561335157600080fd5b61335a83612e90565b915061336860208401612e90565b90509250929050565b600080600080600060a0868803121561338957600080fd5b61339286612e90565b94506020860135935060408601356001600160401b03808211156133b557600080fd5b6133c189838a0161303f565b945060608801359150808211156133d757600080fd5b6133e389838a016130ba565b935060808801359150808211156133f957600080fd5b50613406888289016130ba565b9150509295509295909350565b6000806040838503121561342657600080fd5b61342f83612e90565b915060208301356001600160401b0381111561344a57600080fd5b61345685828601612f35565b9150509250929050565b6001600160a01b038516815260806020820181905260009061348490830186612e51565b6040830194909452506060015292915050565b600181811c908216806134ab57607f821691505b602082108114156134cc57634e487b7160e01b600052602260045260246000fd5b50919050565b600082516134e4818460208701612e25565b9190910192915050565b634e487b7160e01b600052601160045260246000fd5b60008261352157634e487b7160e01b600052601260045260246000fd5b500490565b60008219821115613539576135396134ee565b500190565b6000600019821415613552576135526134ee565b5060010190565b634e487b7160e01b600052603260045260246000fd5b600082821015613581576135816134ee565b500390565b60008160001904831182151516156135a0576135a06134ee565b500290565b600181815b808511156135e05781600019048211156135c6576135c66134ee565b808516156135d357918102915b93841c93908002906135aa565b509250929050565b6000826135f7575060016108f6565b81613604575060006108f6565b816001811461361a576002811461362457613640565b60019150506108f6565b60ff841115613635576136356134ee565b50506001821b6108f6565b5060208310610133831016604e8410600b8410161715613663575081810a6108f6565b61366d83836135a5565b8060001904821115613681576136816134ee565b029392505050565b60006110cc83836135e8565b6060815260006136a86060830186612e51565b60208301949094525060400152919050565b6001600160a01b03841681526060602082018190526000906136de90830185612e51565b9050826040830152949350505050565b6000816136fd576136fd6134ee565b506000190190565b600060ff821660ff84168060ff03821115613722576137226134ee565b019392505050565b6000835161373c818460208801612e25565b9190910191825250602001919050565b6020808252602b908201527f496e697469616c697a61626c653a20636f6e7472616374206973206e6f74206960408201526a6e697469616c697a696e6760a81b60608201526080019056fea2646970667358221220bfc09f65a590640456e737cbc575832c6c12fa1102996914da12221bcb288cca64736f6c63430008080033",
  "devdoc": {
    "kind": "dev",
    "methods": {
      "allowance(address,address)": {
        "details": "See {IERC20-allowance}."
      },
      "approve(address,uint256)": {
        "details": "See {IERC20-approve}. NOTE: If `amount` is the maximum `uint256`, the allowance is not updated on `transferFrom`. This is semantically equivalent to an infinite approval. Requirements: - `spender` cannot be the zero address."
      },
      "balanceOf(address)": {
        "details": "See {IERC20-balanceOf}."
      },
      "decimals()": {
        "details": "Returns the number of decimals used to get its user representation. For example, if `decimals` equals `2`, a balance of `505` tokens should be displayed to a user as `5.05` (`505 / 10 ** 2`). Tokens usually opt for a value of 18, imitating the relationship between Ether and Wei. This is the value {ERC20} uses, unless this function is overridden; NOTE: This information is only used for _display_ purposes: it in no way affects any of the arithmetic of the contract, including {IERC20-balanceOf} and {IERC20-transfer}."
      },
      "decreaseAllowance(address,uint256)": {
        "details": "Atomically decreases the allowance granted to `spender` by the caller. This is an alternative to {approve} that can be used as a mitigation for problems described in {IERC20-approve}. Emits an {Approval} event indicating the updated allowance. Requirements: - `spender` cannot be the zero address. - `spender` must have allowance for the caller of at least `subtractedValue`."
      },
      "increaseAllowance(address,uint256)": {
        "details": "Atomically increases the allowance granted to `spender` by the caller. This is an alternative to {approve} that can be used as a mitigation for problems described in {IERC20-approve}. Emits an {Approval} event indicating the updated allowance. Requirements: - `spender` cannot be the zero address."
      },
      "name()": {
        "details": "Returns the name of the token."
      },
      "symbol()": {
        "details": "Returns the symbol of the token, usually a shorter version of the name."
      },
      "totalSupply()": {
        "details": "See {IERC20-totalSupply}."
      },
      "transfer(address,uint256)": {
        "details": "See {IERC20-transfer}. Requirements: - `to` cannot be the zero address. - the caller must have a balance of at least `amount`."
      },
      "transferFrom(address,address,uint256)": {
        "details": "See {IERC20-transferFrom}. Emits an {Approval} event indicating the updated allowance. This is not required by the EIP. See the note at the beginning of {ERC20}. NOTE: Does not update the allowance if the current allowance is the maximum `uint256`. Requirements: - `from` and `to` cannot be the zero address. - `from` must have a balance of at least `amount`. - the caller must have allowance for ``from``'s tokens of at least `amount`."
      }
    },
    "version": 1
  },
  "userdoc": {
    "kind": "user",
    "methods": {},
    "version": 1
  },
  "storageLayout": {
    "storage": [
      {
        "astId": 6,
        "contract": "contracts/NGP.sol:NGP",
        "label": "_initialized",
        "offset": 0,
        "slot": "0",
        "type": "t_uint8"
      },
      {
        "astId": 9,
        "contract": "contracts/NGP.sol:NGP",
        "label": "_initializing",
        "offset": 1,
        "slot": "0",
        "type": "t_bool"
      },
      {
        "astId": 1208,
        "contract": "contracts/NGP.sol:NGP",
        "label": "__gap",
        "offset": 0,
        "slot": "1",
        "type": "t_array(t_uint256)50_storage"
      },
      {
        "astId": 187,
        "contract": "contracts/NGP.sol:NGP",
        "label": "_balances",
        "offset": 0,
        "slot": "51",
        "type": "t_mapping(t_address,t_uint256)"
      },
      {
        "astId": 193,
        "contract": "contracts/NGP.sol:NGP",
        "label": "_allowances",
        "offset": 0,
        "slot": "52",
        "type": "t_mapping(t_address,t_mapping(t_address,t_uint256))"
      },
      {
        "astId": 195,
        "contract": "contracts/NGP.sol:NGP",
        "label": "_totalSupply",
        "offset": 0,
        "slot": "53",
        "type": "t_uint256"
      },
      {
        "astId": 197,
        "contract": "contracts/NGP.sol:NGP",
        "label": "_name",
        "offset": 0,
        "slot": "54",
        "type": "t_string_storage"
      },
      {
        "astId": 199,
        "contract": "contracts/NGP.sol:NGP",
        "label": "_symbol",
        "offset": 0,
        "slot": "55",
        "type": "t_string_storage"
      },
      {
        "astId": 779,
        "contract": "contracts/NGP.sol:NGP",
        "label": "__gap",
        "offset": 0,
        "slot": "56",
        "type": "t_array(t_uint256)45_storage"
      },
      {
        "astId": 2611,
        "contract": "contracts/NGP.sol:NGP",
        "label": "daySupply",
        "offset": 0,
        "slot": "101",
        "type": "t_uint256"
      },
      {
        "astId": 2618,
        "contract": "contracts/NGP.sol:NGP",
        "label": "userMints",
        "offset": 0,
        "slot": "102",
        "type": "t_mapping(t_address,t_mapping(t_string_memory_ptr,t_struct(MintInfo)2609_storage))"
      },
      {
        "astId": 2623,
        "contract": "contracts/NGP.sol:NGP",
        "label": "userApplys",
        "offset": 0,
        "slot": "103",
        "type": "t_mapping(t_string_memory_ptr,t_array(t_address)dyn_storage)"
      },
      {
        "astId": 2627,
        "contract": "contracts/NGP.sol:NGP",
        "label": "degreeHeats",
        "offset": 0,
        "slot": "104",
        "type": "t_mapping(t_string_memory_ptr,t_uint256)"
      },
      {
        "astId": 2632,
        "contract": "contracts/NGP.sol:NGP",
        "label": "userNumbers",
        "offset": 0,
        "slot": "105",
        "type": "t_mapping(t_address,t_array(t_string_storage)dyn_storage)"
      },
      {
        "astId": 2636,
        "contract": "contracts/NGP.sol:NGP",
        "label": "withdrawAmount",
        "offset": 0,
        "slot": "106",
        "type": "t_mapping(t_address,t_uint256)"
      },
      {
        "astId": 2640,
        "contract": "contracts/NGP.sol:NGP",
        "label": "unWithDrawAmount",
        "offset": 0,
        "slot": "107",
        "type": "t_mapping(t_address,t_uint256)"
      },
      {
        "astId": 2644,
        "contract": "contracts/NGP.sol:NGP",
        "label": "rankWithdrawAmount",
        "offset": 0,
        "slot": "108",
        "type": "t_mapping(t_address,t_uint256)"
      },
      {
        "astId": 2648,
        "contract": "contracts/NGP.sol:NGP",
        "label": "minters",
        "offset": 0,
        "slot": "109",
        "type": "t_mapping(t_address,t_bool)"
      },
      {
        "astId": 2650,
        "contract": "contracts/NGP.sol:NGP",
        "label": "spendNonce",
        "offset": 0,
        "slot": "110",
        "type": "t_uint256"
      },
      {
        "astId": 2654,
        "contract": "contracts/NGP.sol:NGP",
        "label": "isOwner",
        "offset": 0,
        "slot": "111",
        "type": "t_mapping(t_address,t_bool)"
      },
      {
        "astId": 2657,
        "contract": "contracts/NGP.sol:NGP",
        "label": "owners",
        "offset": 0,
        "slot": "112",
        "type": "t_array(t_address)dyn_storage"
      },
      {
        "astId": 2659,
        "contract": "contracts/NGP.sol:NGP",
        "label": "required",
        "offset": 0,
        "slot": "113",
        "type": "t_uint256"
      },
      {
        "astId": 2661,
        "contract": "contracts/NGP.sol:NGP",
        "label": "genesisTs",
        "offset": 0,
        "slot": "114",
        "type": "t_uint256"
      },
      {
        "astId": 2663,
        "contract": "contracts/NGP.sol:NGP",
        "label": "activeMinters",
        "offset": 0,
        "slot": "115",
        "type": "t_uint256"
      },
      {
        "astId": 2665,
        "contract": "contracts/NGP.sol:NGP",
        "label": "activeNumbers",
        "offset": 0,
        "slot": "116",
        "type": "t_uint256"
      },
      {
        "astId": 2667,
        "contract": "contracts/NGP.sol:NGP",
        "label": "claimMints",
        "offset": 0,
        "slot": "117",
        "type": "t_uint256"
      },
      {
        "astId": 2669,
        "contract": "contracts/NGP.sol:NGP",
        "label": "maxMeshHeats",
        "offset": 0,
        "slot": "118",
        "type": "t_uint256"
      },
      {
        "astId": 2671,
        "contract": "contracts/NGP.sol:NGP",
        "label": "destructions",
        "offset": 0,
        "slot": "119",
        "type": "t_uint256"
      },
      {
        "astId": 2673,
        "contract": "contracts/NGP.sol:NGP",
        "label": "SECONDS_IN_DAY",
        "offset": 0,
        "slot": "120",
        "type": "t_uint256"
      },
      {
        "astId": 2682,
        "contract": "contracts/NGP.sol:NGP",
        "label": "apy",
        "offset": 0,
        "slot": "121",
        "type": "t_uint256"
      },
      {
        "astId": 2684,
        "contract": "contracts/NGP.sol:NGP",
        "label": "activeStakes",
        "offset": 0,
        "slot": "122",
        "type": "t_uint256"
      },
      {
        "astId": 2686,
        "contract": "contracts/NGP.sol:NGP",
        "label": "totalNGPStaked",
        "offset": 0,
        "slot": "123",
        "type": "t_uint256"
      },
      {
        "astId": 2688,
        "contract": "contracts/NGP.sol:NGP",
        "label": "totalEarn",
        "offset": 0,
        "slot": "124",
        "type": "t_uint256"
      },
      {
        "astId": 2693,
        "contract": "contracts/NGP.sol:NGP",
        "label": "userStakes",
        "offset": 0,
        "slot": "125",
        "type": "t_mapping(t_address,t_struct(StakeInfo)2680_storage)"
      },
      {
        "astId": 2697,
        "contract": "contracts/NGP.sol:NGP",
        "label": "dayClaims",
        "offset": 0,
        "slot": "126",
        "type": "t_mapping(t_uint256,t_uint256)"
      },
      {
        "astId": 2701,
        "contract": "contracts/NGP.sol:NGP",
        "label": "dayClaimed",
        "offset": 0,
        "slot": "127",
        "type": "t_mapping(t_uint256,t_bool)"
      },
      {
        "astId": 2703,
        "contract": "contracts/NGP.sol:NGP",
        "label": "treasuryValue",
        "offset": 0,
        "slot": "128",
        "type": "t_uint256"
      },
      {
        "astId": 2705,
        "contract": "contracts/NGP.sol:NGP",
        "label": "FoundationAddr",
        "offset": 0,
        "slot": "129",
        "type": "t_address"
      },
      {
        "astId": 2709,
        "contract": "contracts/NGP.sol:NGP",
        "label": "stakeValues",
        "offset": 0,
        "slot": "130",
        "type": "t_mapping(t_address,t_uint256)"
      },
      {
        "astId": 2713,
        "contract": "contracts/NGP.sol:NGP",
        "label": "dayReceived",
        "offset": 0,
        "slot": "131",
        "type": "t_mapping(t_uint256,t_uint256)"
      },
      {
        "astId": 2717,
        "contract": "contracts/NGP.sol:NGP",
        "label": "dayStaked",
        "offset": 0,
        "slot": "132",
        "type": "t_mapping(t_uint256,t_uint256)"
      },
      {
        "astId": 2721,
        "contract": "contracts/NGP.sol:NGP",
        "label": "dayUnStaked",
        "offset": 0,
        "slot": "133",
        "type": "t_mapping(t_uint256,t_uint256)"
      }
    ],
    "types": {
      "t_address": {
        "encoding": "inplace",
        "label": "address",
        "numberOfBytes": "20"
      },
      "t_array(t_address)dyn_storage": {
        "base": "t_address",
        "encoding": "dynamic_array",
        "label": "address[]",
        "numberOfBytes": "32"
      },
      "t_array(t_string_storage)dyn_storage": {
        "base": "t_string_storage",
        "encoding": "dynamic_array",
        "label": "string[]",
        "numberOfBytes": "32"
      },
      "t_array(t_uint256)45_storage": {
        "base": "t_uint256",
        "encoding": "inplace",
        "label": "uint256[45]",
        "numberOfBytes": "1440"
      },
      "t_array(t_uint256)50_storage": {
        "base": "t_uint256",
        "encoding": "inplace",
        "label": "uint256[50]",
        "numberOfBytes": "1600"
      },
      "t_bool": {
        "encoding": "inplace",
        "label": "bool",
        "numberOfBytes": "1"
      },
      "t_mapping(t_address,t_array(t_string_storage)dyn_storage)": {
        "encoding": "mapping",
        "key": "t_address",
        "label": "mapping(address => string[])",
        "numberOfBytes": "32",
        "value": "t_array(t_string_storage)dyn_storage"
      },
      "t_mapping(t_address,t_bool)": {
        "encoding": "mapping",
        "key": "t_address",
        "label": "mapping(address => bool)",
        "numberOfBytes": "32",
        "value": "t_bool"
      },
      "t_mapping(t_address,t_mapping(t_address,t_uint256))": {
        "encoding": "mapping",
        "key": "t_address",
        "label": "mapping(address => mapping(address => uint256))",
        "numberOfBytes": "32",
        "value": "t_mapping(t_address,t_uint256)"
      },
      "t_mapping(t_address,t_mapping(t_string_memory_ptr,t_struct(MintInfo)2609_storage))": {
        "encoding": "mapping",
        "key": "t_address",
        "label": "mapping(address => mapping(string => struct NGP.MintInfo))",
        "numberOfBytes": "32",
        "value": "t_mapping(t_string_memory_ptr,t_struct(MintInfo)2609_storage)"
      },
      "t_mapping(t_address,t_struct(StakeInfo)2680_storage)": {
        "encoding": "mapping",
        "key": "t_address",
        "label": "mapping(address => struct NGP.StakeInfo)",
        "numberOfBytes": "32",
        "value": "t_struct(StakeInfo)2680_storage"
      },
      "t_mapping(t_address,t_uint256)": {
        "encoding": "mapping",
        "key": "t_address",
        "label": "mapping(address => uint256)",
        "numberOfBytes": "32",
        "value": "t_uint256"
      },
      "t_mapping(t_string_memory_ptr,t_array(t_address)dyn_storage)": {
        "encoding": "mapping",
        "key": "t_string_memory_ptr",
        "label": "mapping(string => address[])",
        "numberOfBytes": "32",
        "value": "t_array(t_address)dyn_storage"
      },
      "t_mapping(t_string_memory_ptr,t_struct(MintInfo)2609_storage)": {
        "encoding": "mapping",
        "key": "t_string_memory_ptr",
        "label": "mapping(string => struct NGP.MintInfo)",
        "numberOfBytes": "32",
        "value": "t_struct(MintInfo)2609_storage"
      },
      "t_mapping(t_string_memory_ptr,t_uint256)": {
        "encoding": "mapping",
        "key": "t_string_memory_ptr",
        "label": "mapping(string => uint256)",
        "numberOfBytes": "32",
        "value": "t_uint256"
      },
      "t_mapping(t_uint256,t_bool)": {
        "encoding": "mapping",
        "key": "t_uint256",
        "label": "mapping(uint256 => bool)",
        "numberOfBytes": "32",
        "value": "t_bool"
      },
      "t_mapping(t_uint256,t_uint256)": {
        "encoding": "mapping",
        "key": "t_uint256",
        "label": "mapping(uint256 => uint256)",
        "numberOfBytes": "32",
        "value": "t_uint256"
      },
      "t_string_memory_ptr": {
        "encoding": "bytes",
        "label": "string",
        "numberOfBytes": "32"
      },
      "t_string_storage": {
        "encoding": "bytes",
        "label": "string",
        "numberOfBytes": "32"
      },
      "t_struct(MintInfo)2609_storage": {
        "encoding": "inplace",
        "label": "struct NGP.MintInfo",
        "members": [
          {
            "astId": 2602,
            "contract": "contracts/NGP.sol:NGP",
            "label": "user",
            "offset": 0,
            "slot": "0",
            "type": "t_address"
          },
          {
            "astId": 2604,
            "contract": "contracts/NGP.sol:NGP",
            "label": "number",
            "offset": 0,
            "slot": "1",
            "type": "t_string_storage"
          },
          {
            "astId": 2606,
            "contract": "contracts/NGP.sol:NGP",
            "label": "updateTs",
            "offset": 0,
            "slot": "2",
            "type": "t_uint256"
          },
          {
            "astId": 2608,
            "contract": "contracts/NGP.sol:NGP",
            "label": "withdrawTs",
            "offset": 0,
            "slot": "3",
            "type": "t_uint256"
          }
        ],
        "numberOfBytes": "128"
      },
      "t_struct(StakeInfo)2680_storage": {
        "encoding": "inplace",
        "label": "struct NGP.StakeInfo",
        "members": [
          {
            "astId": 2675,
            "contract": "contracts/NGP.sol:NGP",
            "label": "term",
            "offset": 0,
            "slot": "0",
            "type": "t_uint256"
          },
          {
            "astId": 2677,
            "contract": "contracts/NGP.sol:NGP",
            "label": "maturityTs",
            "offset": 0,
            "slot": "1",
            "type": "t_uint256"
          },
          {
            "astId": 2679,
            "contract": "contracts/NGP.sol:NGP",
            "label": "amount",
            "offset": 0,
            "slot": "2",
            "type": "t_uint256"
          }
        ],
        "numberOfBytes": "96"
      },
      "t_uint256": {
        "encoding": "inplace",
        "label": "uint256",
        "numberOfBytes": "32"
      },
      "t_uint8": {
        "encoding": "inplace",
        "label": "uint8",
        "numberOfBytes": "1"
      }
    }
  }
}